:020000040800F2
:10000000F0040020F10100086F18000853130008E5
:100010006D180008290300080921000800000000ED
:10002000000000000000000000000000871B000826
:100030002B0300080000000071180008891B00084D
:100040000B0200080B0200080B0200080B0200085C
:100050000B0200080B0200080B0200080B0200084C
:100060000B0200080B0200080B0200080B0200083C
:100070000B0200080B0200080B0200080B0200082C
:100080000B020008000000000B0200080B02000831
:100090000B0200080B0200080B0200080B0200080C
:1000A0000B0200080B0200080B0200080B020008FC
:1000B0000B0200080B0200080B0200080B020008EC
:1000C0000B0200080B0200080B0200080B020008DC
:1000D0000B0200080B0200080B0200080B020008CC
:1000E0000B0200080B0200080B0200080B020008BC
:1000F0000B0200080B0200080B02000800000000C1
:10010000000000000B020008000000000B020008C5
:100110000B020008000000000B0200080B020008A0
:100120000B0200080B0200080B0200080B0200087B
:100130000B02000800000000000000000B02000895
:100140000B0200080B020008000000000000000085
:10015000000000000000000000000000000000009F
:100160000000000000000000000000000B0200087A
:100170000B0200080000000000000000000000006A
:10018000000000000B02000800000000000000005A
:10019000000000000000000000000000000000005F
:1001A00000000000000000000B0200080B02000825
:1001B0000B0200080B0200080B0200080000000000
:1001C000000000000B02000800000000000000001A
:1001D0000B0200080B020008DFF810D000F092F8C4
:1001E00000480047D9220008AFF30080F004002047
:1001F0000648804706480047FEE7FEE7FEE7FEE7C1
:10020000FEE7FEE7FEE7FEE7FEE7FEE7D91B000894
:10021000D90100082DE9F05F0546002092469B4673
:1002200088460646814640241BE02846414647460C
:10023000224600F057F853465A46C01A914110D34F
:1002400011461846224600F03EF82D1A67EB0108C9
:100250004F4622460120002100F035F817EB000937
:100260004E41201EA4F10104DFDC484631462A46F7
:100270004346BDE8F09FD2B201E000F8012B491ED1
:10028000FBD270470022F6E710B513460A46044633
:100290001946FFF7F0FF204610BD30B50B4601466A
:1002A00000202022012409E021FA02F59D4205D315
:1002B00003FA02F5491B04FA02F52844151EA2F1BF
:1002C0000102F1DC30BD202A04DB203A00FA02F101
:1002D000002070479140C2F1200320FA03F3194334
:1002E00090407047202A04DB203A21FA02F00021D6
:1002F000704721FA02F3D040C2F120029140084336
:1003000019467047064C074D06E0E06840F00103CF
:1003100094E8070098471034AC42F6D3FFF760FF2B
:100320007423000894230008FEE77047002240F67B
:10033000B83306E00021491C89B29942FBD3521C14
:1003400092B28242F6D370477047000070B50446FF
:1003500000F038F90546601C02D0044840680444A7
:1003600000F030F9401BA042FAD370BD0800002015
:100370002DE9F04FDFF82092002301260324A9F194
:10038000040B85B00F2709F1040AABF1040EFAE063
:1003900006FA03F52A407CD091F804C00CF0030C57
:1003A000BCF1010F02D0BCF1020F26D1D0F808C079
:1003B000CDF800C04FEA430C04FA0CF8CDF810C099
:1003C000DDF800C02CEA080CCDF800C0D1F80C8094
:1003D000DDF810C008FA0CF8DDF800C048EA0C0897
:1003E000C0F80880D0F804C02CEA050C0D79C5F3DC
:1003F00000159D4045EA0C0545600D79ED43AD07BC
:100400000ED0C5684FEA430804FA08FC25EA0C053B
:10041000D1F808C00CFA08FC4CEA050CC0F80CC076
:100420000D7905F00305022D16D1DD0800EB850CD2
:10043000CDF808C0DCF820805D074FEAD56C07FADC
:100440000CF528EA05080D6905FA0CF5DDF808C079
:1004500045EA0805CCF8205005684FEA430CCDF872
:1004600008C004FA0CFC25EA0C0591F804C00CF055
:100470000308DDF808C008FA0CF848EA0508C0F8D7
:1004800000804D6815F4403F7CD0444DD5F860C0E5
:1004900000E077E04CF0010CC5F860C02D6E23F051
:1004A000030C05F0010500953D4D65440295AD68CE
:1004B0004FEA837C4FEA1C7807FA08FC25EA0C0512
:1004C000B0F1904F06D0DFF8DCC0604505D14FF0A9
:1004D000010C20E04FF0000C1DE0DFF8CCC06045BF
:1004E00002D14FF0020C16E0DFF8C0C0604502D127
:1004F0004FF0030C0FE0DFF8B8C0604502D14FF0B9
:10050000040C08E0DFF8ACC0604502D14FF0050CE8
:1005100001E04FF0060C0CFA08FC4CEA050C029DB9
:10052000C5F808C0D9F80050CC46D1F804809543EE
:100530005FEAC82800D51543CCF80050DAF800501F
:10054000D446D1F8048095435FEA882800D5154346
:10055000CCF80050DBF80050DC46D1F8048095431D
:100560005FEA883800D51543CCF80050DEF800501B
:10057000F446D1F8048095435FEAC83800D51543A6
:10058000CCF800505B1C0A6832FA03F57FF400AF28
:1005900005B0BDE8F08F00000804014000100240E3
:1005A000000001400004004800080048000C00481A
:1005B00000100048001400480069084000D00120E5
:1005C0007047000001488068704700000800002064
:1005D0000248816842681144816070470800002029
:1005E00010B50024032000F065F80F2000F008F893
:1005F00008B1012401E000F025F8204610BD0000FC
:1006000070B50E4E05460024706898B14FF47A71AB
:10061000B1FBF0F00A490968B1FBF0F000F050FDC1
:1006200040B9102D06D200222946501E00F022F8B3
:10063000356000E00124204670BD00000800002065
:10064000140000200A4882B0016E41F001010166E9
:10065000016E01F001010091816D41F080518165D1
:10066000806D00F08050009002B000F093B8000060
:1006700000100240F0B40E4B1B680C46C3F302237B
:10068000C3F10705042D00D90425191D072901D23E
:10069000002300E0DB1E012606FA05F1491E214079
:1006A00099409E40761E16403143F0BC01F03EBD9D
:1006B0000CED00E0064900F0070208684FF6FF0362
:1006C000184040EA0220034A1043086070470000C7
:1006D0000CED00E00000FA052B492C4B0A68322192
:1006E0004A432B4940B1B0F5007F086829D020F477
:1006F000C06040F480602CE00868C0F3412002280C
:1007000004D051F8800F20F4807022E0D1F88000EE
:1007100020F48070C1F88000086820F4C06040F4C4
:1007200000700860B2FBF3F0401C00E0401E4A6914
:10073000520501D50028F9D1486940050AD50320A2
:100740007047C0F34120022806D051F8800F40F4D2
:100750008070086000207047D1F8800040F48070FD
:10076000C1F88000086820F4C06040F400700860A0
:10077000B2FBF3F0401C00E0401E4A695205DBD595
:100780000028F9D1D8E700001400002040420F00F3
:10079000007000400248816841F4804181607047E8
:1007A000007000402DE9F8430446006800269D4D86
:1007B00000035ED5A86D0027C00008D4A86D40F0E6
:1007C0008050A865A86D012700F080500090DFF8E8
:1007D0005892D9F8001041F48071C9F80010FFF761
:1007E000F1FE804606E000BFFFF7ECFEA0EB08003C
:1007F00002282BD8D9F80000C005F5D5D5F890000F
:1008000010F4407014D0216C814211D0D5F89000C2
:10081000D5F8901020F4407041F48031C5F8901064
:10082000D5F8901021F48031C5F89010C5F89000EB
:10083000C00711D0FFF7C6FE804641F2883907E0B5
:10084000FFF7C0FEA0EB0801494501D903260BE0E4
:10085000D5F890008007F3D5D5F89000216C20F4EE
:1008600040700843C5F890001FB1A86D20F080507B
:10087000A8652078C00707D0D5F88800616820F007
:1008800003000843C5F888002078800707D5D5F80D
:100890008800A16820F00C000843C5F88800207883
:1008A000400707D5D5F88800E16820F030000843FC
:1008B000C5F888002078000707D5D5F88800216999
:1008C00020F0C0000843C5F888002078800607D5CE
:1008D000D5F88800616920F440600843C5F88800B5
:1008E0002078400607D5D5F88800A16920F440504B
:1008F0000843C5F888002078000607D5D5F8880099
:10090000E16920F440400843C5F888002088C0050C
:1009100007D5D5F88800216A20F440300843C5F88F
:1009200088002088800507D5D5F88800616A20F402
:1009300040200843C5F88800208840050FD5D5F829
:100940008800A16A20F440100843C5F88800A06A16
:10095000B0F5801F03D1E86840F48010E86020887B
:1009600000050FD5D5F88800E16A20F4400008435F
:10097000C5F88800E06AB0F5800F03D1E86840F45C
:100980008010E8602088C0040FD5D5F88800216B5E
:1009900020F040700843C5F88800206BB0F1807FDC
:1009A00003D1E86840F48010E86020884FF00061CF
:1009B00080040ED5D5F88800626B20F040601043AB
:1009C000C5F88800606B884203D1E86840F4801065
:1009D000E860208840040ED5D5F88800A26B20F08E
:1009E00040601043C5F88800A06B884203D1E868D6
:1009F00040F48010E860208800040FD5D5F8880006
:100A0000E16B20F040500843C5F88800E06BB0F17E
:100A1000805F03D1E86840F48030E8603046BDE88C
:100A2000F883000000100240007000402DE9F047FC
:100A30000E4605004FF0000725D0DFF8AC81D8F84E
:100A4000000000F00F00B0420CD2D8F8001021F0E6
:100A50000F013143C8F80010D8F8000000F00F0073
:100A6000B04210D12968614CC80741F2883A5AD087
:100A70006868DFF87C91032808D0022820682DD010
:100A8000400500282CDB0120BDE8F08720688001AC
:100A9000F9D5E06800F00302E068C0F30310401CE1
:100AA000032A19D0534A00BFB2FBF0F0E268C2F348
:100AB00006225043E268C2F34162521C5200B0FB6E
:100AC000F2F0484517D9A06810F0F00F0CD0880755
:100AD00011D5A86840B10EE0474AE5E78003D0E7AA
:100AE00000F0B6F8484506D9A06820F0F00040F0C4
:100AF0008000A0608027A068696820F00300084398
:100B0000A060FFF75FFD814606E000BFFFF75AFDDA
:100B1000A0EB090151453AD8A068696800F00C00C3
:100B2000B0EB810FF2D12868810714D5400703D5B7
:100B3000A06840F4E060A0602878000705D5A068B0
:100B400020F4605040F4E060A060A068A96820F044
:100B5000F000084304E0802F03D1A06820F0F000EB
:100B6000A060D8F80010404601F00F01B14216D93C
:100B7000016821F00F0131430160FFF723FD0746B3
:100B800007E000BFFFF71EFDC11B514501D903203F
:100B90007AE7D8F8000000F00F00B042F2D12878D0
:100BA000400705D5A068E96820F4E0600843A0602C
:100BB0002878000706D5A068296920F4605040EA2B
:100BC000C100A06000F044F8A1680C4AC1F3031111
:100BD000515C01F01F01C8400949086009480068DC
:100BE000BDE8F047FFF70CBD0020024000100240B6
:100BF00000B4C4040024F40000127A005C2300084E
:100C00001400002008000020054806490068896893
:100C1000054AC1F30221515C01F01F01C840704731
:100C200014000020001002406C230008054806490B
:100C300000688968054AC1F3C221515C01F01F01B7
:100C4000C840704714000020001002406C230008C8
:100C5000184910B58868C0F381021748012A0BD0E3
:100C60008A684310C2F38102022A06D08A68C2F35E
:100C70008102032A03D0002010BD184610BDCA68A7
:100C800002F00304CA68C2F30312521C032C02D000
:100C9000B0FBF2F001E0B3FBF2F0CA68C968C2F33E
:100CA00006225043C1F34161491C4900B0FBF1F0F9
:100CB00010BD0000001002400024F4002DE9F843AC
:100CC00004007AD02078F84DC00747D0A868E968BA
:100CD00000F00C0001F003010C2802D0082817D006
:100CE00001E0032914D06068B0F5803F17D0B0F55B
:100CF000A02F286817D020F480302860286820F4BE
:100D0000802028606068E0B1FFF75CFC064614E0D4
:100D10002868800322D560680028D2D01EE02868A9
:100D200040F48030EDE740F480202860F7E700BF12
:100D3000FFF748FC801B642870D828688003F7D52B
:100D40000CE0FFF73FFC064605E000BFFFF73AFC6A
:100D5000801B6428F0D828688003F7D420788007A7
:100D60004CD5A868E96800F00C0001F003010C28DC
:100D700002D004280DD001E002290AD0E068002842
:100D800028682BD040F480702860FFF71BFC0646D3
:100D900019E02868400502D5E068002891D068680D
:100DA000217C20F0FE4040EA01606860BF48006896
:100DB000FFF726FC002800D120E072E1FFF702FCDB
:100DC000801B0228B8D828684005F7D56868217CC0
:100DD00020F0FE4040EA016068600FE020F480707F
:100DE0002860FFF7EFFB064605E000BFFFF7EAFBD0
:100DF000801B0228A0D828684005F7D42078000777
:100E000029D560690028D5F8940013D040F001007E
:100E1000C5F89400FFF7D6FB064606E090E000BF59
:100E2000FFF7D0FB801B022886D8D5F894008007F6
:100E3000F6D510E020F00100C5F89400FFF7C2FBE2
:100E4000064604E0FFF7BEFB801B022878D8D5F8E1
:100E500094008007F6D42078400761D5A86D00265D
:100E6000C00008D4A86D40F08050A865A86D012688
:100E700000F0805000908E480168C90511D40168C7
:100E8000804641F480710160FFF79CFB074604E057
:100E9000FFF798FBC01B022852D8D8F80000C00505
:100EA000F6D5A068012815D00528D5F8900016D0F1
:100EB00020F00100C5F89000D5F8900020F0040063
:100EC000C5F89000A06841F28838B8B1FFF77AFB06
:100ED00007460EE0D5F8900040F00100F0E740F042
:100EE0000400C5F89000F5E7FFF76CFBC11B414516
:100EF00026D8D5F890008007F6D50CE0FFF762FB06
:100F0000074604E0FFF75EFBC11B414518D8D5F842
:100F100090008007F6D41EB1A86D20F08050A8651F
:100F20002078800629D5A0690028D5F8980013D02C
:100F300040F00100C5F89800FFF744FB064606E0C4
:100F400075E000BFFFF73EFB801B02286FD8D5F885
:100F500098008007F6D510E020F00100C5F8980051
:100F6000FFF730FB064604E0FFF72CFB801B02284E
:100F70005DD8D5F898008007F6D4E069F0B3A96889
:100F8000C1F3810103295DD00228286820F0807018
:100F9000286003D0FFF716FB04464BE0FFF712FB77
:100FA000064604E0FFF70EFB801B02283FD82868A6
:100FB0008001F7D4F4E908016FF00F0202EB011190
:100FC0000843218A5204490802EB4151A26841EAD0
:100FD00002210843217D4FF07E42490802EB416126
:100FE0000843217B40EAC160E968324A1140084366
:100FF000E860286840F08070286000E05EE0E86803
:1010000040F08070E860FFF7DDFA044605E000BFBD
:10101000FFF7D8FA001B022809D828688001F7D505
:101020004CE000BFFFF7CEFA001B022802D90320D4
:10103000BDE8F88328688001F4D4E8681E490840B8
:10104000E8603BE00128F3D0E868226A00F0030181
:10105000914226D1616A00F0F002090110399142F3
:101060001FD1A26A00F4FE41B1EB022F19D194F80E
:101070002C2000F07841B1EBC26F12D1218E00F428
:10108000C00249084905A1F50011914209D194F81F
:10109000341000F0C06049084906A1F10071814296
:1010A0000CD00120C4E7000000100240080000201E
:1010B000007000400C809F01FCFFEEFE0020B7E7AF
:1010C00010B5401EB0F1807F01D3012010BD4FF05C
:1010D000E02460610F21601701F028F80020A06172
:1010E00007202061002010BD90F88410012918D03D
:1010F000012180F884102421C0F8881001680A6852
:101100000B6823F001030B6022F0005100224266BD
:10111000036819602021C0F8881080F884201046E8
:1011200070470220704770B5044690F8840001288B
:101130001DD0012084F884002420C4F88800206891
:101140000568026822F0010202602068826822F0CD
:1011500060620A438260204600F04CFD2068056012
:101160002020C4F88800002084F8840070BD02208C
:1011700070BD70B5044690F8840001281DD0012090
:1011800084F884002420C4F8880020680568026878
:1011900022F0010202602068826822F060420A4365
:1011A0008260204600F026FD206805602020C4F8FB
:1011B0008800002084F8840070BD022070BD10B546
:1011C000040003D0D4F8880010B107E0012010BD5E
:1011D000002084F88400204600F026F82420C4F87B
:1011E00088002068016821F001010160A06A10B147
:1011F000204600F021FD204600F002FE0128E6D046
:101200002068416821F4904141602068816821F0A4
:101210002A0181602068016841F0010101602046D7
:10122000BDE8104000F06CBD10B598B00446142124
:1012300011A8FFF727F844216846FFF723F817495C
:101240002068884228D101200024CDE900046846A6
:10125000FFF7A8FA08B1FFF777F81148016E41F4DB
:1012600080410166016E01F480411691C16C41F02C
:101270000101C164C06C11A900F0010016904FF487
:10128000C06011900220CDE912040720CDE914407E
:101290004FF09040FFF76CF818B010BD00380140D7
:1012A000001002402DE9F8430446D0F88800984623
:1012B00016460D46202802D00220BDE8F883A5B1CD
:1012C0009EB10020C4F890002120C4F88800183492
:1012D000FFF778F9A6878146E68754F8100C202797
:1012E000183CB0F5805F02D003E00120E5E72069FB
:1012F00010B12E46002510E000260EE08021204689
:1013000000F0B8FEC0B9DEB116F8010B21688862A2
:10131000B4F85600401EA4F85600B4F856004B46E8
:101320004FF00002CDF800800028E7D14FF04001D7
:10133000204600F09FFE40B1C4F888700320BCE74F
:1013400035F8020BC0F30800E0E7C4F8887000200D
:10135000B3E7FEE72DE9F047DFF820910121484689
:10136000FFF72AF9474C012700260028444D207832
:101370004FF0020802D0022821D00EE010B101285F
:1013800004D00AE027702868606006E06068296879
:10139000081A642801D984F800800221CA46484608
:1013A000FFF70AF90028207C4FF47A790BD0022845
:1013B00024D3267422D14FF00200BDE8F0872670B6
:1013C0004FF00100F9E720B1012804D002280CD029
:1013D00014E0277406E060692968081A64280DD9AA
:1013E00084F810802868606108E060692968081A3C
:1013F000484503D9032020740520DEE70421504628
:10140000FFF7DAF8002894F8200004D0022813D05F
:10141000012814D030E010B1012805D02CE084F868
:1014200020702868606227E0606A2968081A4845C9
:1014300022D984F820801FE084F820601AE084F824
:10144000206094F82800401CC0B284F82800296865
:10145000E162022802D0012808D00DE02868401A75
:10146000C82809D284F828600620A6E72868401A10
:10147000484501D90320A0E700209EE7000400486A
:10148000100000201C00002000B585B01421684623
:10149000FEF7F8FE4FF6FF70009000200321CDE923
:1014A0000201019069460248FEF762FF05B000BDE7
:1014B0000008004800B585B014216846FEF7E2FE3A
:1014C0004FF6FF7000900120019003200390002050
:1014D000029069460248FEF74BFF05B000BD0000D0
:1014E0000008004870B5002406462146204600F05A
:1014F000B5F800F0F3F84FF49635304600F0C2F836
:10150000641CAC42F9D370BD70B586B01421684636
:10151000FEF7B8FE1E48C16C41F00401C164C16C05
:1015200001F004010591C16C41F00101C164C16C7D
:1015300001F001010591C16C41F00201C164C06C70
:10154000032500F0020005904FF4487001240026A6
:1015500003958DE8510069460E48FEF709FF200209
:1015600003958DE851004FF0904469462046FEF700
:10157000FFFEFFF79FFFA06940F48070A06105485F
:101580001830016841F40871016006B070BD0000B8
:10159000001002400004004810B5FFF7B5FF00201E
:1015A00000F014F8084CA080A088A0F50241303962
:1015B00006D000F0E7F9002000F008F8A08010BD88
:1015C00000F057F9F7E700000000002070B51D4952
:1015D0000A6842F400720A600A6842F480720A6083
:1015E000184C103C226842F020022260164A10601B
:1015F000086840F02000086000BF00BF00BF2068FE
:1016000040F020002060206840F480702060FFF7E8
:101610003BFF4FF09041886A40F48070886200BFC1
:1016200000BF00BF0848001F006885B2886940F409
:1016300080708861FFF73EFF206840F400702060F2
:10164000284670BD280400481408004801B5BDF8BC
:1016500000000149488008BD0000002010B50C467C
:101660000146202000F068F82146BDE81040212006
:1016700000F062B801B5BDF800000149088008BD5E
:1016800000000020134A116841F4007111601149F3
:1016900010390B6843F480730B600B6843F0200330
:1016A0000B600D4B1860106840F02000106000BF08
:1016B00000BF00BF086840F020000860086840F4E0
:1016C0008070086000BF00BF00BF086840F4007071
:1016D0000860704728040048140800481449086846
:1016E00040F400700860086840F48070086010489A
:1016F0001038026842F0200202600E4B22221A606B
:101700000A6842F020020A6000BF00BF00BF016803
:1017100041F020010160016841F48071016000BF67
:1017200000BF00BF016841F4007101607047000014
:101730002804004814080048184B10B51A6842F4F1
:1017400000721A601A6842F480721A60134A103AE2
:10175000146844F020041460114C2060186840F0B4
:101760002000186000BF00BF00BF106840F02000DC
:101770001060106840F4807010602160186840F0BC
:101780002000186000BF00BF00BF106840F02000BC
:101790001060106840F48070106010BD280400488C
:1017A0001408004810B586B014216846FEF76AFD9B
:1017B0001248C16C41F00101C164C16C01F001012A
:1017C0000591C16C41F00201C164C06C002400F0BD
:1017D000020005900120CDE9000469464FF09040D9
:1017E0000294FEF7C5FD0720CDE9000469460448D0
:1017F0000294FEF7BDFD06B010BD000000100240CF
:1018000000040048184810B5164901604FF41651FD
:101810004160002181600C22C160C0E90412816135
:10182000C161016241628162FFF7C9FC08B1FEF744
:101830008BFD00210C48FFF79CFC08B1FEF784FDEE
:1018400000210948FFF76FFC08B1FEF77DFD06484F
:10185000FFF74AFC002803D0BDE81040FEF774BD36
:1018600010BD0000003801405C000020FEE770471A
:10187000704730B501210020FFF75EFF4FF47A700A
:10188000FEF754FD00210120FFF756FF41F2907151
:101890001020FFF751FF4FF41C516020FFF74CFF61
:1018A00001216120FFF748FF02214620FFF744FF96
:1018B00048F210011320FFF73FFF48F2FE0112200B
:1018C000FFF73AFF4FF4A0610220FFF735FF41F226
:1018D00030010320FFF730FF40F20334214630206F
:1018E000FFF72AFF21463120FFF726FF214632204D
:1018F000FFF722FFE51E29463320FFF71DFF0321D6
:101900003420FFF719FF21463520FFF715FF14217A
:101910003620FFF711FF21463720FFF70DFF214644
:101920003820FFF709FF21463920FFF705FF294638
:101930003A20FFF701FF03213B20FFF7FDFE214680
:101940003C20FFF7F9FE4FF4A0513D20FFF7F4FED5
:101950004FF400719220FFF7EFFE21469320FFF72E
:10196000EBFE40F60D019020FFF7E6FE41F2180174
:101970000320FFF7E1FEBDE8304040F2731107207D
:10198000FFF7DABE10B543F20801E320FFF7D4FEFB
:101990001221E720FFF7D0FE41F23121EF20FFF7BF
:1019A000CBFE00210120FFF7C7FE4FF4E0610220CB
:1019B000FFF7C2FE41F230010320FFF7BDFE002118
:1019C0000420FFF7B9FE40F207210820FFF7B4FE1C
:1019D00000210920FFF7B0FE00210A20FFF7ACFE2E
:1019E00000210C20FFF7A8FE00210D20FFF7A4FE28
:1019F00000210F20FFF7A0FE00211020FFF79CFE22
:101A000007211120FFF798FE00211220FFF794FE16
:101A100000211320FFF790FEC820FEF797FC41F24B
:101A200090611020FFF788FE40F227211120FFF778
:101A300083FE3220FEF78AFC1D211220FFF77CFE78
:101A40003220FEF783FC4FF400611320FFF774FE91
:101A500014212920FFF770FE0B212B20FFF76CFECD
:101A60003220FEF773FC00212020FFF765FE0021E5
:101A70002120FFF761FE07213020FFF75DFE40F2D5
:101A800007713120FFF758FE06213220FFF754FE80
:101A900040F204713520FFF74FFE41F60471362005
:101AA000FFF74AFE04213720FFF746FE00213820C9
:101AB000FFF742FE40F206713920FFF73DFE40F28B
:101AC00001713C20FFF738FE0F213D20FFF734FE67
:101AD00000215020FFF730FEEF215120FFF72CFEB0
:101AE00000215220FFF728FE40F23F115320FFF75C
:101AF00023FE4FF41C516020FFF71EFE01216120E0
:101B0000FFF71AFE00216A20FFF716FE0021802051
:101B1000FFF712FE00218120FFF70EFE0021822038
:101B2000FFF70AFE00218320FFF706FE0021842034
:101B3000FFF702FE00218520FFF7FEFD1021902017
:101B4000FFF7FAFD00219220FFF7F6FD0321932015
:101B5000FFF7F2FD4FF488719520FFF7EDFD0021AE
:101B60009720FFF7E9FD00219820FFF7E5FD41F2FE
:101B700018010320FFF7E0FDBDE8104040F27311AB
:101B80000720FFF7D9BD7047FEF722BD10B594B00E
:101B900038216846FEF776FB14210EA8FEF772FB8B
:101BA0004FF40070FEF798FD02200090C0010390F2
:101BB00040200024049007946846FFF77FF80F2028
:101BC0000E900120CDE90F04119400210EA812946B
:101BD000FEF72CFF14B010BD0548016841F47001F8
:101BE000016003494FF000608039086070470000D1
:101BF00088ED00E030B5416EB9B102689168926835
:101C0000C1F342610B4B520F9C5CE50003F10804E9
:101C1000A25CB5FBF2F2A0F86A205A5C615CD200CB
:101C2000B2FBF1F1A0F8681030BD0121A0F86A10F4
:101C3000F8E700004C23000890F82810090706D5A3
:101C400001684A68836B22F400421A434A6090F8A4
:101C50002810C90706D001684A68C36A22F4003216
:101C60001A434A6090F82810890706D501684A6827
:101C7000036B22F480321A434A6090F82810490717
:101C800006D501684A68436B22F480221A434A60F1
:101C900090F82810C90606D501688A68C36B22F43B
:101CA00080521A438A6090F82810890606D5016888
:101CB0008A68036C22F400521A438A6090F8281054
:101CC000490611D501684A68436C22F480121A4310
:101CD0004A60416CB1F5801F06D101684A68836C87
:101CE00022F4C0021A434A6090F82810090606D56B
:101CF00001684A68C06C22F4002202434A607047BF
:101D00002DE9F84300260446C0F89060FEF75AFC1F
:101D10008046206800684FF0200500076FF07E477E
:101D200013D54346002229042046009700F0A2F96B
:101D300058B1216851E8000F20F0800041E800020E
:101D4000002AF6D1C4F8885021E0206800684007D6
:101D500022D5434600224FF480012046009700F030
:101D600089F9C8B1216851E8000F20F4907041E86A
:101D70000002002AF6D12068083050E8001F21F048
:101D8000010140E80012002AF5D1C4F88C5084F813
:101D900084600320BDE8F883C4F88850C4F88C50F0
:101DA00044F86C6F666026760020F3E710B5026891
:101DB00052E8001F21F4907142E80013002BF6D185
:101DC0000E4B0268083252E8001F194042E8001426
:101DD000002CF6D1C16E012908D1016851E8002F0D
:101DE00022F0100241E80023002BF6D12021C0F898
:101DF0008C100021C166416710BD0000FEFFFFEF9F
:101E00002DE9F0410446016880682269E3691043C6
:101E1000626900251A431043DFF82CC20A688B4B15
:101E20001A4002430A6020684168E26821F4405188
:101E3000114341602168A069614501D0226A1043C5
:101E40008A68834B1A4002438A602068C16A626ACA
:101E500021F00F011143C1627E4923687E488B4205
:101E60000DD1D0F8880010F0030006D0012855D01D
:101E7000022842D003283FD152E001203DE07749BB
:101E80008B420BD1D0F8880010F00C0035D004281C
:101E900033D0082840D00C282ED141E070498B4225
:101EA0000BD1D0F8880010F0300026D0102835D0A3
:101EB000202831D030281FD132E06A498B420BD123
:101EC000D0F8880010F0C00017D0402826D0802815
:101ED00022D0C02810D123E063450DD1D0F888006E
:101EE00010F4406009D0B0F5806F17D0B0F5006FE6
:101EF00012D0B0F5406F13D010205B495B4F002625
:101F00004FF4004263453BD160B1022813D004284E
:101F10000BD0082872D10DE00220EEE70420ECE798
:101F20000820EAE7FEF770FE01E0FEF791FE0100EF
:101F300001D17CE01146606A37F810206768B1FB78
:101F4000F2F007EB4703834270D8B0EB073F6DD840
:101F5000002308461946FEF75DF9090241EA1061BF
:101F600002027808101871413A460023FEF752F930
:101F70003F4AA0F54071914258D82168C86056E0A8
:101F8000E3694FF6EF7893422CD109284ED2DFE86F
:101F900000F00508114D0D4D4D4D1000FEF734FEBB
:101FA00001E0FEF743FE010004D140E0FEF750FEE1
:101FB000F9E71146606A37F81000B1FBF0F0410014
:101FC000606801EB5001B1FBF0F0A0F11001414558
:101FD0002CD84FF6F0710140C0F342000143206855
:101FE000C16024E0092821D2DFE800F005091220B1
:101FF0000E2020201100FEF707FE02E016E0FEF79B
:1020000015FE010004D112E0FEF722FEF9E71146A9
:10201000606A37F81000B1FBF0F1606801EB500125
:10202000B1FBF0F0A0F1100141450AD901250120D2
:10203000A4F86A0024F8680F2846E6602661BDE827
:10204000F08180B299E7000000800040F369FFCF83
:10205000FFF4FF110038014000100240004400402E
:1020600000480040004C00400024F40034230008E5
:10207000FFFC0F002DE9F047994617460D46044630
:102080004FF00008089E33E0701C31D0FEF79AFA3A
:10209000A0EB0900B04218D8BEB12068016849071A
:1020A00026D5802D24D0402D22D0C169C9430907EF
:1020B0000DD4082505622046FFF778FEC4F890503D
:1020C00084F884800120BDE8F0870320FBE7C06925
:1020D000C04300050CD421684FF40060086220461C
:1020E000FFF764FE2020C4F8900084F88480ECE7B9
:1020F0002068C06935EA000004D00020B842C3D08F
:102100000020E0E70120F9E7FEE700000FB4054BEF
:1021100010B503A9044A029800F028F810BC5DF835
:1021200014FB0000C1220008180000200907090E56
:10213000002804DB00F1E02080F80014704700F074
:102140000F0000F1E02080F8141D704702E008C87D
:10215000121F08C1002AFAD170477047002001E021
:1021600001C1121F002AFBD1704700002DE9FF4F6B
:1021700089B09B460446002506E025280BD05A4628
:102180000B999047641C6D1C20780028F5D10DB088
:102190002846BDE8F08F0027B8460122474900E0F5
:1021A000074314F8013F203B02FA03F00842F7D13D
:1021B00020782E2819D114F8010F47F004072A2897
:1021C0000ED06FF02F022078A0F1300109290CD831
:1021D00008EB880102EB410100EB0108641CF2E707
:1021E0000A98641C50F8048B0A9020780028CED0FE
:1021F000642808D0692806D075281ED05A460B9945
:1022000090476D1C58E00A994FF00A0901C90A91DC
:10221000002802DA40422D2102E0390504D52B21A5
:102220008DF82010012103E0F90704D02021F7E701
:102230008A4608AE0DE00021FAE70A994FF00A0934
:1022400001C90A91F7E74946FEF727F8303106F849
:10225000011D0028F7D1ADEB060000F12009780739
:1022600001D44FF00108C84502DDA8EB090000E0E9
:1022700000208046002706E008A85A46C05D0B995A
:1022800090476D1C7F1C5745F6DB04E030205A4612
:102290000B9990476D1CB8F10001A8F10108F5DC1D
:1022A00005E016F8010B5A460B9990476D1CB9F1E1
:1022B0000001A9F10109F4DC641C65E709280100AB
:1022C00013B54FF0FF33012269460248FEF7EAFFDB
:1022D00000981CBD5C000020FEF782F9FFF756FC59
:1022E000FFF760FAFFF78EFAFFF756F90020FFF7C5
:1022F000ADF94FF6FF70FFF7BDF90020FFF7F2F8D8
:10230000094C00BFFFF726F8207001460728F9D2D4
:10231000DFE800F00405050504050500F2E703A069
:10232000FFF7F4FEEEE700000600002025640D0A2A
:1023300000000000010002000400060008000A007E
:102340000C0010002000400080000001010101038A
:102350000701000008040204080101010000000058
:102360000000000001020304060708090000000045
:102370000102030494230008000000201C00000058
:102380004C210008B02300081C000020D4040000E9
:102390005C2100080000FFFF0000000010000000AA
:1023A00001000000000000000024F4000000000014
:04000005080001D915
:00000001FF
