:020000040800F2
:10000000A0050020F1010008BF26000867210008B4
:10001000BD26000875080008692F000800000000D0
:10002000000000000000000000000000D7290008C8
:100030007708000800000000C1260008D929000840
:100040000B0200080B0200080B0200080B0200085C
:100050000B0200080B0200080B0200080B0200084C
:100060000B0200080B0200080B0200080B0200083C
:100070000B0200080B0200080B0200080B0200082C
:100080000B020008000000000B0200080B02000831
:100090000B0200080B0200080B0200080B0200080C
:1000A0000B0200080B0200080B0200080B020008FC
:1000B0000B0200080B0200080B0200080B020008EC
:1000C0000B0200080B0200080B0200080B020008DC
:1000D0000B0200080B0200080B0200080B020008CC
:1000E0000B0200080B0200080B0200080B020008BC
:1000F0000B0200080B0200080B02000800000000C1
:10010000000000000B020008000000000B020008C5
:100110000B020008000000000B0200080B020008A0
:100120000B0200080B0200080B0200080B0200087B
:100130000B02000800000000000000000B02000895
:100140000B0200080B020008000000000000000085
:10015000000000000000000000000000000000009F
:100160000000000000000000000000000B0200087A
:100170000B0200080000000000000000000000006A
:10018000000000000B02000800000000000000005A
:10019000000000000000000000000000000000005F
:1001A00000000000000000000B0200080B02000825
:1001B0000B0200080B0200080B0200080000000000
:1001C000000000000B02000800000000000000001A
:1001D0000B0200080B020008DFF810D000F0B4FAA0
:1001E0000048004771380008AFF30080A0050020E8
:1001F0000648804706480047FEE7FEE7FEE7FEE7C1
:10020000FEE7FEE7FEE7FEE7FEE7FEE7392A000825
:10021000D90100082DE9F05F0546002092469B4673
:1002200088460646814640241BE02846414647460C
:10023000224600F0D6F853465A46C01A914110D3D0
:1002400011461846224600F0BDF82D1A67EB01084A
:100250004F4622460120002100F0B4F817EB0009B8
:100260004E41201EA4F10104DFDC484631462A46F7
:100270004346BDE8F09FD2B201E000F8012B491ED1
:10028000FBD270470022F6E710B513460A46044633
:100290001946FFF7F0FF204610BD2DE9FE4F81EA19
:1002A000030404F0004421F0004100944FF0000BDF
:1002B00023F0004350EA01045ED052EA03045BD00D
:1002C000C3F30A54C1F30A552C44A4F2F334019445
:1002D000A0FB0254C1F3130141F48011C3F31303D3
:1002E00043F4801301FB024400FB034E840A970A87
:1002F00044EA815447EA8357A4FB076802958D0AB4
:1003000005FB07854FEA932C04FB0C542705029D3F
:100310004FEA065847EA1637B5EB08056EEB070CAF
:10032000870E920E47EA811742EA8312A7FB020169
:10033000B6EB0B0164EB00042B0D43EA0C335E18A3
:1003400044EB1C50DA465146E7FB0201C5F31304A7
:100350004FEA0B3343EA14534FEA0432019C43EA59
:100360000603A4F10C040294009CCDE900B400F053
:1003700057F803B0BDE8F08F00200146F9E70EB54D
:1003800040F2334102910021CDE900110A460B46AB
:1003900000F046F803B000BD30B50B460146002022
:1003A0002022012409E021FA02F59D4205D303FA37
:1003B00002F5491B04FA02F52844151EA2F10102B8
:1003C000F1DC30BD202A04DB203A00FA02F10020E3
:1003D00070479140C2F1200320FA03F31943904083
:1003E0007047202A04DB203A21FA02F000217047EE
:1003F00021FA02F3D040C2F120029140084319468D
:10040000704710B5141E73F1000408DA401C41F166
:10041000000192185B411A4301D120F0010010BD88
:100420002DE9F04D92469B4611B1B1FA81F202E0FE
:10043000B0FA80F220329046FFF7C4FF04460F4620
:1004400040EA0A0041EA0B0153465A46084313D0DA
:10045000114653EA010019D0C8F140025046FFF797
:10046000C0FF05460E46504659464246FFF7AAFFD2
:10047000084305D0012004E020463946BDE8F08D50
:100480000020054346EAE0762C4337430A9863058B
:10049000E40AA0EB08000022FD0A44EA47540A30AF
:1004A00002D500200146E9E7010510196941DDE99F
:1004B000084500196941BDE8F04DA2E72DE9FE4F5E
:1004C000804681EA0300C00F0C46009021F00041F5
:1004D00023F00045B8EB0200A94105D24046214671
:1004E00090461C460B46024623F00040104347D07E
:1004F000270DC7F30A00C3F30A510290401A019076
:1005000040286BDAC3F3130040F4801B0098924636
:1005100020B10023D2EB030A63EB0B0B0198594681
:10052000C0F140025046FFF74DFF06460D465046CB
:100530005946019A00F01AF910EB080061410024B5
:1005400087EA115284EAE7731A4340D0009A62B3F3
:10055000019A012A4FEA075215DC001B61EB0201E8
:100560004FF0004202EA0752CDE90042001C41F57B
:10057000801132462B46FFF753FF03B0BDE8F08FE2
:1005800040462146F9E7001B61EB0201001C41F5E2
:10059000801300185B412018A2F5001747EB0301F8
:1005A00040EAD570B6196D4111E06D084FEA360684
:1005B00045EAC0754FEA0752001B61EB0201001CBF
:1005C00041F5801149084FEA300000195141324687
:1005D0002B4603B0BDE8F04FFFF713BF0098012290
:1005E00040000023D0EB020263EBE0730098214649
:1005F0004FEAE074B8EB000061EB0401E9E783F037
:1006000000435BE781F0004158E72DE9F04D81EAB6
:10061000030404F0004B21F0004514464FF0000A9B
:1006200023F0004150EA050220D054EA01021DD017
:10063000C5F30A570246C5F31303C1F31300C1F310
:100640000A5640F4801543F48013A7EB0608101BEC
:10065000D64608F2FD3873EB050002D308F1010815
:1006600001E092185B41B8F1000F03DA0020014667
:10067000BDE8F08D00204FF48011064684460EE060
:10068000171B73EB050705D3121B63EB050306432A
:100690004CEA010C49084FEA300092185B4150EADD
:1006A0000107EDD152EA030012D082EA040083EA86
:1006B0000501084305D0101BAB4106D201220023DF
:1006C00006E000224FF0004302E06FF001025310F9
:1006D0001AEB06004CEB085110EB0A0041EB0B0142
:1006E000BDE8F04DFFF78DBEC1F30A52C1F313010F
:1006F00040F2FF3341F480119A4202DA00200146B1
:10070000704740F233439A42A2F2334202DC524233
:10071000FFF767BEFFF756BE30B5041E71F1000447
:1007200004DB4FF00044404264EB0101141E73F1FE
:10073000000405DB1C464FF00043524263EB040308
:10074000994208BF904230BD064C074D06E0E06874
:1007500040F0010394E8070098471034AC42F6D308
:10076000FFF73EFD7439000894390008202A06DBA3
:10077000CB17203A41FA02F043EAE07306E041FA6F
:1007800002F3D040C2F1200291400843194670475D
:10079000F8B50446002000902068816811F0010F30
:1007A00041D18168214A11422ED18168D543294027
:1007B000491C81601E48806800F0E07000020DD581
:1007C0001C481D490068B0FBF1F0401C00EB4000E4
:1007D000800000E0401E00900028FBD100F0FAFDF0
:1007E00006461BE0816811F0010F03D181682940A2
:1007F000491C816000F0EEFD801B02280ED92068A4
:100800000068C043C00709D0E06D40F01000E0650B
:10081000206E40F0010020660120F8BD20680168CC
:10082000C943C907DED10020F8BD00003F000080A9
:100830000003005028000020400D030010B50548BB
:1008400000F018FC034800F0A5FAFFF798FD41EC12
:10085000100B10BD3000002010B5054800F00AFC58
:10086000034800F097FAFFF78AFD41EC100B10BD2A
:100870009C000020FEE77047002240F6B83306E0F7
:100880000021491C89B29942FBD3521C92B2824288
:10089000F6D37047704700002DE9F047044690F802
:1008A00058009CB00E464FF00009012815D00120D9
:1008B00084F8580000251795189520684FF0A04837
:1008C00040450ED1284F0097384601F0E9FD824699
:1008D000206801F0E5FD60B10EE002201CB0BDE82B
:1008E000F087E06D40F02000E06584F8585001206A
:1008F000F4E7BAF1000F09D0E06D40F02000E065A8
:100900004FF0010984F858504846E7E71748326825
:1009100040F61F71002A826822F4604216D094F8D3
:10092000383042EA433273681A438260D8F80820AC
:10093000BB6802F0010203F001031A43E2D1B3687D
:1009400032681A4383688B431A430BE08260D8F8FD
:100950000820BB6802F0010203F001031A43D1D161
:1009600082688A438260CDE7000100500003005096
:100970002DE9F84F00270446009790F85800DFF85B
:10098000E0930D46B846012811D0012684F858603E
:10099000206801F081FD60B1E06D40F02000E0656D
:1009A0005FF0010784F858803846BDE8F88F0220D0
:1009B000FBE7D5E900210C23206803EA91131844D2
:1009C000036B01F01F014FF01F0C0CFA01FCC2F386
:1009D000846223EA0C038A4013430363206801F016
:1009E0005BFD8246206801F053FD5AEA00003CD1CD
:1009F000AA6829682068B2F1004F37D001F054FD91
:100A00002068416921F00041416120686969C2683C
:100A1000C2F3C102520091402A69042A31D000EB8E
:100A200082002B68026EDFF83CC303F0F84302EA51
:100A30000C020B431A4342F00041016620682A6908
:100A4000A96900EB8200026E22F080720A430266FE
:100A5000297F22682869012910D0002102EB80003B
:100A6000026E22F000720A4302667DE0002201F06D
:100A70001BFD2068416941F00041C5E74FF000715E
:100A8000ECE7002101F0FEFC400320684FF000017C
:100A900072D001F0F7FC90FAA0F0B0FA80F128686B
:100AA00042036ED090FAA0F0B0FA80F0814204D1F7
:100AB00000221146206801F006FD0121206801F0A6
:100AC000E1FC400320684FF001015DD001F0DAFC49
:100AD00090FAA0F0B0FA80F12868420359D090FA59
:100AE000A0F0B0FA80F0814204D1002201212068F8
:100AF00001F0E9FC0221206801F0C4FC40032068F9
:100B00004FF0020148D001F0BDFC90FAA0F0B0FA1D
:100B100080F12868420344D090FAA0F0B0FA80F047
:100B2000814204D100220221206801F0CCFC032183
:100B3000206801F0A7FC400320684FF0030133D088
:100B400001F0A0FC90FAA0F0B0FA80F1286842030E
:100B50002FD090FAA0F0B0FA80F0814204D10022A8
:100B60000321206801F0AFFC2068816811F0010FBB
:100B700022D0ACE000E004E001F084FCC0F384612A
:100B80008DE7C0F3846091E701F07CFCC0F38461E1
:100B9000A2E7C0F38460A6E701F074FCC0F38461AF
:100BA000B7E7C0F38460BBE701F06CFCC0F384617D
:100BB000CCE7C0F38460D0E72A7B296850F8B03FC7
:100BC000C1F3120C23EA0C0302F0180C664A22FA55
:100BD0000CF20A4013430360E968494577D128685D
:100BE00041031CD090FAA0F1B1FA81F1491C01F047
:100BF0001F0109294FEA403132D8002912D000BF25
:100C000090FAA0F1B1FA81F101F1010101F01F01A7
:100C100006FA01F609D100BFC0F3846109E0C0F310
:100C20008461E3E7C0F38461EEE790FAA0F1B1FAE2
:100C300081F101F1010101F01F0146EA816102D158
:100C4000C0F3846003E090FAA0F0B0FA80F000F105
:100C5000010000F01F0000EB400041EA005132E0CB
:100C600000290ED090FAA0F1B1FA81F101F1010151
:100C700001F01F0106FA01F606D100BFC0F384613E
:100C800006E0C0F38461F1E790FAA0F1B1FA81F1D6
:100C900001F1010101F01F0146EA816102D1C0F3B7
:100CA000846003E090FAA0F0B0FA80F000F1010057
:100CB00000F01F002D4A00EB400002EB005041EA1B
:100CC000000141F00071AA68206801F0EDFB28489E
:100CD0002A6802423FF466AE26488168264B01F03E
:100CE000E0719A4202D0254B9A421CD10B021AD4D1
:100CF0002268B2F1A04F7FF455AE826841F4000142
:100D000022F0E0720A4382601D481E490068B0FB71
:100D1000F1F0401C00EB4000800000E0401E00901D
:100D20000028FBD13EE6184D184BAA4207D1CD0151
:100D300005D422689A42F5D041F0807109E0144D43
:100D4000AA42EFD14A02EDD422689A42EAD041F495
:100D50008001826822F0E0720A43826022E600008D
:100D600000007F4000F0FF03FFFF0700000020FEAF
:100D70000000088000030050000021C31000C09054
:100D800028000020400D0300000052C70001005061
:100D9000000084CB0068006C70470000F8B54FF08D
:100DA000000504002E46009502D0E06D10B107E06A
:100DB0000120F8BD204600F0EBF8266684F8586064
:100DC00020688168C1F3407119B18168684A114097
:100DD000816020688168C1F3007189B98168654AC2
:100DE000114041F080518160634864490068B0FB64
:100DF000F1F04000801C00E0401E00900028FBD174
:100E000020688168C1F3007141B9E16D41F01001C2
:100E1000E165216E41F001012166012501F03CFBF5
:100E2000E16DC90600D430B1E06D40F01000E0651E
:100E300001252846F8BDE06D20F4807040F00200E6
:100E4000E0652068806810F0010F11D14FF0A040DC
:100E500080684B4900F00100896801F001010843F6
:100E600006D148486168826822F47C120A43826095
:100E7000E168E06B627F0843A16841EA42310843C0
:100E800094F8241040EA0140012904D1218D3E4A02
:100E900002EB41410843E16A29B101F47871226B08
:100EA000014342EA01002268D168384B19400143EE
:100EB000D16020680169626B21F0406111430161DA
:100EC000206801F0E5FA70BB207F94F838108003A9
:100ED00040EA41022168C86844F202039843104383
:100EE000C86020690028206801690AD041F4803177
:100EF0000161206850F8C01F22696FF30D01114392
:100F000007E021F480310161206850F8C01F6FF3C1
:100F10000D01016094F8400001280CD0206801699F
:100F200021F001010161606901282068016B21F055
:100F30000F0111D013E0D4E911010843D4E91312D1
:100F40001143084321680A6940F2FC739A43104335
:100F500040F001000861E6E7226A521E1143016376
:100F6000E06D20F0020040F00100E06561E7000064
:100F7000C0FFFF5FC0FFFF7F28000020400D03007F
:100F800000010050000300500000FEFF0740F0FF8A
:100F90002DE9F04397B00446142111A8FFF772F928
:100FA00044216846FFF76EF94FF0005021682D4D3F
:100FB0000327DFF8B49086132C4C4FF00008B1F1F2
:100FC000A04F10D02A4A914248D100960F9068460F
:100FD00000F0F0FA08B1FFF75DFC2868401C2860BB
:100FE000012824D02BE000960F90684600F0E2FA2A
:100FF00008B1FFF74FFC2868401C2860012807D182
:10100000E06C40F40050E064E06C00F40050169096
:10101000E06C40F00200E064E06C11A900F0020016
:1010200016904FF4805081E88101484614E0E06C4E
:1010300040F40050E064E06C00F400501690E06C66
:1010400040F00200E064E06C11AA00F0020016908B
:1010500082E8C00111A9484600F098F817B0BDE831
:10106000F083000018000020000400480010024037
:10107000000100502DE9F04104463848806800F036
:101080001F05206801F008FA18B102210846BDE8E2
:10109000F08194F8580001280CD0012084F8580001
:1010A0002046FFF775FB01004FF0000304D084F8E1
:1010B0005830EBE70220EAE7E06D40F6016290432A
:1010C00040F48070E065264A20684FF0A0469042C8
:1010D00001D1374600E00746874200D01DB9E76DD1
:1010E00027F48017E765E76DFF0404D5276E27F026
:1010F0000607276600E023661C27076084F858303F
:101100002068904201D1334600E00346834215D067
:10111000A5B1052D12D0092D10D0E36D43F4801335
:10112000E365904200D13046C0688001AED5E06DE5
:1011300020F4005040F48050E065A7E7C2689201B7
:1011400005D5E26D22F4005242F48052E2658268D5
:10115000044B1A40121D826098E700000003005003
:1011600000010050C0FFFF7F70B5044600F032F967
:101170000546601C02D004484068044400F02AF987
:10118000401BA042FAD370BD1C0000202DE9F04F97
:10119000DFF82092002301260324A9F1040B85B077
:1011A0000F2709F1040AABF1040EFAE006FA03F581
:1011B0002A407CD091F804C00CF0030CBCF1010F64
:1011C00002D0BCF1020F26D1D0F808C0CDF800C083
:1011D0004FEA430C04FA0CF8CDF810C0DDF800C05B
:1011E0002CEA080CCDF800C0D1F80C80DDF810C056
:1011F00008FA0CF8DDF800C048EA0C08C0F80880CE
:10120000D0F804C02CEA050C0D79C5F300159D40FB
:1012100045EA0C0545600D79ED43AD070ED0C56874
:101220004FEA430804FA08FC25EA0C05D1F808C087
:101230000CFA08FC4CEA050CC0F80CC00D7905F05E
:101240000305022D16D1DD0800EB850CCDF808C092
:10125000DCF820805D074FEAD56C07FA0CF528EA28
:1012600005080D6905FA0CF5DDF808C045EA080522
:10127000CCF8205005684FEA430CCDF808C004FABA
:101280000CFC25EA0C0591F804C00CF00308DDF80D
:1012900008C008FA0CF848EA0508C0F800804D6854
:1012A00015F4403F7CD0444DD5F860C000E077E0B5
:1012B0004CF0010CC5F860C02D6E23F0030C05F056
:1012C000010500953D4D65440295AD684FEA837C6C
:1012D0004FEA1C7807FA08FC25EA0C05B0F1904F9C
:1012E00006D0DFF8DCC0604505D14FF0010C20E0EE
:1012F0004FF0000C1DE0DFF8CCC0604502D14FF08C
:10130000020C16E0DFF8C0C0604502D14FF0030CBC
:101310000FE0DFF8B8C0604502D14FF0040C08E0E0
:10132000DFF8ACC0604502D14FF0050C01E04FF092
:10133000060C0CFA08FC4CEA050C029DC5F808C026
:10134000D9F80050CC46D1F8048095435FEAC8280C
:1013500000D51543CCF80050DAF80050D446D1F847
:10136000048095435FEA882800D51543CCF80050E7
:10137000DBF80050DC46D1F8048095435FEA8838FA
:1013800000D51543CCF80050DEF80050F446D1F8F3
:10139000048095435FEAC83800D51543CCF8005067
:1013A0005B1C0A6832FA03F57FF400AF05B0BDE8B4
:1013B000F08F0000080401400010024000000140CE
:1013C0000004004800080048000C004800100048D5
:1013D0000014004801488068704700001C0000208D
:1013E0000248816842681144816070471C000020F7
:1013F00010B50024032000F065F8002000F008F884
:1014000008B1012401E000F025F8204610BD0000DD
:1014100070B50E4E05460024706898B14FF47A718D
:10142000B1FBF0F00A490968B1FBF0F000F052FDA1
:1014300040B9102D06D200222946501E00F022F895
:10144000356000E00124204670BD00001C00002033
:10145000280000200A4882B0016E41F001010166B7
:10146000016E01F001010091816D41F080518165B3
:10147000806D00F08050009002B000F093B8000042
:1014800000100240F0B40E4B1B680C46C3F302235D
:10149000C3F10705042D00D90425191D072901D220
:1014A000002300E0DB1E012606FA05F1491E21405B
:1014B00099409E40761E16403143F0BC01F066BD57
:1014C0000CED00E0064900F0070208684FF6FF0344
:1014D000184040EA0220034A1043086070470000A9
:1014E0000CED00E00000FA052B492C4B0A68322174
:1014F0004A432B4940B1B0F5007F086829D020F459
:10150000C06040F480602CE00868C0F341200228ED
:1015100004D051F8800F20F4807022E0D1F88000D0
:1015200020F48070C1F88000086820F4C06040F4A6
:1015300000700860B2FBF3F0401C00E0401E4A69F6
:10154000520501D50028F9D1486940050AD5032084
:101550007047C0F34120022806D051F8800F40F4B4
:101560008070086000207047D1F8800040F48070DF
:10157000C1F88000086820F4C06040F40070086082
:10158000B2FBF3F0401C00E0401E4A695205DBD577
:101590000028F9D1D8E700002800002040420F00C1
:1015A000007000400248816841F4804181607047CA
:1015B000007000402DE9F8430446006800269D4D68
:1015C00000035ED5A86D0027C00008D4A86D40F0C8
:1015D0008050A865A86D012700F080500090DFF8CA
:1015E0005892D9F8001041F48071C9F80010FFF743
:1015F000F1FE804606E000BFFFF7ECFEA0EB08001E
:1016000002282BD8D9F80000C005F5D5D5F89000F0
:1016100010F4407014D0216C814211D0D5F89000A4
:10162000D5F8901020F4407041F48031C5F8901046
:10163000D5F8901021F48031C5F89010C5F89000CD
:10164000C00711D0FFF7C6FE804641F2883907E097
:10165000FFF7C0FEA0EB0801494501D903260BE0C6
:10166000D5F890008007F3D5D5F89000216C20F4D0
:1016700040700843C5F890001FB1A86D20F080505D
:10168000A8652078C00707D0D5F88800616820F0E9
:1016900003000843C5F888002078800707D5D5F8EF
:1016A0008800A16820F00C000843C5F88800207865
:1016B000400707D5D5F88800E16820F030000843DE
:1016C000C5F888002078000707D5D5F8880021697B
:1016D00020F0C0000843C5F888002078800607D5B0
:1016E000D5F88800616920F440600843C5F8880097
:1016F0002078400607D5D5F88800A16920F440502D
:101700000843C5F888002078000607D5D5F888007A
:10171000E16920F440400843C5F888002088C005EE
:1017200007D5D5F88800216A20F440300843C5F871
:1017300088002088800507D5D5F88800616A20F4E4
:1017400040200843C5F88800208840050FD5D5F80B
:101750008800A16A20F440100843C5F88800A06AF8
:10176000B0F5801F03D1E86840F48010E86020885D
:1017700000050FD5D5F88800E16A20F44000084341
:10178000C5F88800E06AB0F5800F03D1E86840F43E
:101790008010E8602088C0040FD5D5F88800216B40
:1017A00020F040700843C5F88800206BB0F1807FBE
:1017B00003D1E86840F48010E86020884FF00061B1
:1017C00080040ED5D5F88800626B20F0406010438D
:1017D000C5F88800606B884203D1E86840F4801047
:1017E000E860208840040ED5D5F88800A26B20F070
:1017F00040601043C5F88800A06B884203D1E868B8
:1018000040F48010E860208800040FD5D5F88800E7
:10181000E16B20F040500843C5F88800E06BB0F160
:10182000805F03D1E86840F48030E8603046BDE86E
:10183000F883000000100240007000402DE9F047DE
:101840000E4605004FF0000725D0DFF8AC81D8F830
:10185000000000F00F00B0420CD2D8F8001021F0C8
:101860000F013143C8F80010D8F8000000F00F0055
:10187000B04210D12968614CC80741F2883A5AD069
:101880006868DFF87C91032808D0022820682DD0F2
:10189000400500282CDB0120BDE8F087206880018E
:1018A000F9D5E06800F00302E068C0F30310401CC3
:1018B000032A19D0534A00BFB2FBF0F0E268C2F32A
:1018C00006225043E268C2F34162521C5200B0FB50
:1018D000F2F0484517D9A06810F0F00F0CD0880737
:1018E00011D5A86840B10EE0474AE5E78003D0E78C
:1018F00000F0B6F8484506D9A06820F0F00040F0A6
:101900008000A0608027A068696820F00300084379
:10191000A060FFF75FFD814606E000BFFFF75AFDBC
:10192000A0EB090151453AD8A068696800F00C00A5
:10193000B0EB810FF2D12868810714D5400703D599
:10194000A06840F4E060A0602878000705D5A06892
:1019500020F4605040F4E060A060A068A96820F026
:10196000F000084304E0802F03D1A06820F0F000CD
:10197000A060D8F80010404601F00F01B14216D91E
:10198000016821F00F0131430160FFF723FD074695
:1019900007E000BFFFF71EFDC11B514501D9032021
:1019A0007AE7D8F8000000F00F00B042F2D12878B2
:1019B000400705D5A068E96820F4E0600843A0600E
:1019C0002878000706D5A068296920F4605040EA0D
:1019D000C100A06000F044F8A1680C4AC1F30311F3
:1019E000515C01F01F01C8400949086009480068BE
:1019F000BDE8F047FFF70CBD002002400010024098
:101A000000B4C4040024F40000366E015C39000800
:101A1000280000201C00002005480649006889684D
:101A2000054AC1F30221515C01F01F01C840704713
:101A300028000020001002406C39000805480649C3
:101A400000688968054AC1F3C221515C01F01F0199
:101A5000C840704728000020001002406C39000880
:101A6000184910B58868C0F381021748012A0BD0C5
:101A70008A68164BC2F38102022A06D08A68C2F332
:101A80008102032A03D0002010BD184610BDCA6889
:101A900002F00304CA68C2F30312521C032C02D0E2
:101AA000B0FBF2F001E0B3FBF2F0CA68C968C2F320
:101AB00006225043C1F34161491C4900B0FBF1F0DB
:101AC00010BD0000001002400024F40000366E013A
:101AD0002DE9F84304007AD02078F84DC00747D0AC
:101AE000A868E96800F00C0001F003010C2802D09E
:101AF000082817D001E0032914D06068B0F5803FB2
:101B000017D0B0F5A02F286817D020F480302860B7
:101B1000286820F4802028606068E0B1FFF75AFC54
:101B2000064614E02868800322D560680028D2D0D9
:101B30001EE0286840F48030EDE740F48020286003
:101B4000F7E700BFFFF746FC801B642870D82868C1
:101B50008003F7D50CE0FFF73DFC064605E000BF2B
:101B6000FFF738FC801B6428F0D828688003F7D47E
:101B7000207880074CD5A868E96800F00C0001F0D7
:101B800003010C2802D004280DD001E002290AD05C
:101B9000E068002828682BD040F480702860FFF7A8
:101BA00019FC064619E02868400502D5E0680028BF
:101BB00091D06868217C20F0FE4040EA01606860B6
:101BC000BF480068FFF724FC002800D120E072E144
:101BD000FFF700FC801B0228B8D828684005F7D51D
:101BE0006868217C20F0FE4040EA016068600FE0F8
:101BF00020F480702860FFF7EDFB064605E000BF8B
:101C0000FFF7E8FB801B0228A0D828684005F7D41E
:101C10002078000729D560690028D5F8940013D0F2
:101C200040F00100C5F89400FFF7D4FB064606E03B
:101C300090E000BFFFF7CEFB801B022886D8D5F8C6
:101C400094008007F6D510E020F00100C5F894005C
:101C5000FFF7C0FB064604E0FFF7BCFB801B022831
:101C600078D8D5F894008007F6D42078400761D55D
:101C7000A86D0026C00008D4A86D40F08050A8656B
:101C8000A86D012600F0805000908E480168C905BB
:101C900011D40168804641F480710160FFF79AFB1E
:101CA000074604E0FFF796FBC01B022852D8D8F87D
:101CB0000000C005F6D5A068012815D00528D5F884
:101CC000900016D020F00100C5F89000D5F89000E3
:101CD00020F00400C5F89000A06841F28838B8B13F
:101CE000FFF778FB07460EE0D5F8900040F00100C2
:101CF000F0E740F00400C5F89000F5E7FFF76AFB55
:101D0000C11B414526D8D5F890008007F6D50CE0D8
:101D1000FFF760FB074604E0FFF75CFBC11B414592
:101D200018D8D5F890008007F6D41EB1A86D20F021
:101D30008050A8652078800629D5A0690028D5F8AC
:101D4000980013D040F00100C5F89800FFF742FB5F
:101D5000064606E075E000BFFFF73CFB801B02284B
:101D60006FD8D5F898008007F6D510E020F0010074
:101D7000C5F89800FFF72EFB064604E0FFF72AFBA4
:101D8000801B02285DD8D5F898008007F6D4E0695A
:101D9000F0B3A968C1F3810103295DD00228286846
:101DA00020F08070286003D0FFF714FB04464BE05E
:101DB000FFF710FB064604E0FFF70CFB801B022830
:101DC0003FD828688001F7D4F4E908016FF00F02CA
:101DD00002EB01110843218A5204490802EB4151E8
:101DE000A26841EA02210843217D4FF07E42490862
:101DF00002EB41610843217B40EAC160E968324A55
:101E000011400843E860286840F08070286000E0D6
:101E10005EE0E86840F08070E860FFF7DBFA0446B7
:101E200005E000BFFFF7D6FA001B022809D8286892
:101E30008001F7D54CE000BFFFF7CCFA001B022869
:101E400002D90320BDE8F88328688001F4D4E8684B
:101E50001E490840E8603BE00128F3D0E868226AA8
:101E600000F00301914226D1616A00F0F0020901FD
:101E7000103991421FD1A26A00F4FE41B1EB022F4A
:101E800019D194F82C2000F07841B1EBC26F12D137
:101E9000218E00F4C00249084905A1F500119142C4
:101EA00009D194F8341000F0C06049084906A1F146
:101EB000007181420CD00120C4E7000000100240F4
:101EC0001C000020007000400C809F01FCFFEEFE13
:101ED0000020B7E710B5401EB0F1807F01D301208C
:101EE00010BD4FF0E02460610F21601701F04EF843
:101EF0000020A06107202061002010BD90F8841010
:101F0000012918D0012180F884102421C0F88810FC
:101F100001680A680B6823F001030B6022F000518E
:101F200000224266036819602021C0F8881080F8FA
:101F30008420104670470220704770B5044690F820
:101F4000840001281DD0012084F884002420C4F8D6
:101F5000880020680568026822F00102026020689B
:101F6000826822F060620A438260204600F072FDBF
:101F7000206805602020C4F88800002084F88400D0
:101F800070BD022070BD70B5044690F88400012831
:101F90001DD0012084F884002420C4F88800206823
:101FA0000568026822F0010202602068826822F05F
:101FB00060420A438260204600F04CFD20680560C4
:101FC0002020C4F88800002084F8840070BD02201E
:101FD00070BD10B5040003D0D4F8880010B107E03C
:101FE000012010BD002084F88400204600F026F86F
:101FF0002420C4F888002068016821F001010160F4
:10200000A06A10B1204600F047FD204600F028FEEF
:102010000128E6D02068416821F4904141602068A1
:10202000816821F02A0181602068016841F0010186
:1020300001602046BDE8104000F092BD10B598B098
:102040000446142111A8FEF71DF944216846FEF745
:1020500019F917492068884228D101200024CDE9C8
:1020600000046846FFF7A6FA08B1FEF713FC114812
:10207000016E41F480410166016E01F480411691C8
:10208000C16C41F00101C164C06C11A900F00100F4
:1020900016904FF4C06011900220CDE91204072081
:1020A000CDE914404FF09040FFF770F818B010BD24
:1020B00000380140001002402DE9F8430446D0F8F2
:1020C0008800984616460D46202802D00220BDE81A
:1020D000F883A5B19EB10020C4F890002120C4F877
:1020E00088001834FFF776F9A6878146E68754F80A
:1020F000100C2027183CB0F5805F02D003E00120CF
:10210000E5E7206910B12E46002510E000260EE01C
:102110008021204600F0DEFEC0B9DEB116F8010BCA
:1021200021688862B4F85600401EA4F85600B4F83E
:1021300056004B464FF00002CDF800800028E7D152
:102140004FF04001204600F0C5FE40B1C4F8887051
:102150000320BCE735F8020BC0F30800E0E7C4F841
:1021600088700020B3E7FEE700B585B0142168460B
:10217000FEF788F84FF6FF70009000200321CDE9AC
:102180000201019069460248FFF700F805B000BD62
:102190000008004800B585B014216846FEF772F8C3
:1021A0004FF6FF7000900120019003200390002063
:1021B000029069460248FEF7E9FF05B000BD000045
:1021C0000008004870B5002406462146204600F06D
:1021D000B5F800F0F3F84FF49635304600F0C2F849
:1021E000641CAC42F9D370BD70B586B0142168464A
:1021F000FEF748F81E48C16C41F00401C164C16C8F
:1022000001F004010591C16C41F00101C164C16C90
:1022100001F001010591C16C41F00201C164C06C83
:10222000032500F0020005904FF4487001240026B9
:1022300003958DE8510069460E48FEF7A7FF20027E
:1022400003958DE851004FF0904469462046FEF713
:102250009DFFFFF79FFFA06940F48070A0610548D3
:102260001830016841F40871016006B070BD0000CB
:10227000001002400004004810B5FFF7B5FF002031
:1022800000F014F8084CA080A088A0F50241303975
:1022900006D000F09FFA002000F008F8A08010BDE2
:1022A00000F00FFAF7E700000000002070B51D49AC
:1022B0000A6842F400720A600A6842F480720A6096
:1022C000184C103C226842F020022260164A10602E
:1022D000086840F02000086000BF00BF00BF206811
:1022E00040F020002060206840F480702060FFF7FC
:1022F0003BFF4FF09041886A40F48070886200BFD5
:1023000000BF00BF0848001F006885B2886940F41C
:1023100080708861FFF73EFF206840F40070206005
:10232000284670BD280400481408004801B5BDF8CF
:1023300000000149488008BD0000002010B50C468F
:102340000146202000F068F82146BDE81040212019
:1023500000F062B801B5BDF800000149088008BD71
:1023600000000020134A116841F400711160114906
:1023700010390B6843F480730B600B6843F0200343
:102380000B600D4B1860106840F02000106000BF1B
:1023900000BF00BF086840F020000860086840F4F3
:1023A0008070086000BF00BF00BF086840F4007084
:1023B0000860704728040048140800481449086859
:1023C00040F400700860086840F4807008601048AD
:1023D0001038026842F0200202600E4B22221A607E
:1023E0000A6842F020020A6000BF00BF00BF016817
:1023F00041F020010160016841F48071016000BF7B
:1024000000BF00BF016841F4007101607047000027
:102410002804004814080048184B10B51A6842F404
:1024200000721A601A6842F480721A60134A103AF5
:10243000146844F020041460114C2060186840F0C7
:102440002000186000BF00BF00BF106840F02000EF
:102450001060106840F4807010602160186840F0CF
:102460002000186000BF00BF00BF106840F02000CF
:102470001060106840F48070106010BD280400489F
:102480001408004800EB8100006E00F0F84070472F
:102490008068C0F3C00070478068C0F38000704758
:1024A0008068C0F380007047042303EAD15310B55D
:1024B00018444369C1F3045107248C40A3438A4064
:1024C0001343436110BD00EB8100016E21F0004118
:1024D000114301667047000030B58BB000240894AA
:1024E0000994202168460A94FDF7CCFE1C484FF061
:1024F000A041042501604FF40031C0E90114C4601B
:102500000461C0E90545047744770121016280F840
:102510002440C462046380F83840C46380F84040BB
:10252000FEF73CFC08B1FEF7B5F908A90C48089481
:10253000FEF7B2F908B1FEF7ADF90A48009006209F
:10254000CDE901047F200594CDE9030569460448DF
:10255000FEF70EFA002801D0FEF79CF90BB030BD53
:10256000300000200008302E30B589B020216846A8
:10257000FDF788FE19481849002401604902C0E9A6
:102580000114C46004250461C0E90545047744775B
:102590000121016280F82440C462046380F838405D
:1025A000C46380F84040FEF7F9FB08B1FEF772F90A
:1025B0000B4800900620CDE901047F200594CDE969
:1025C000030569460548FEF7D3F9002801D0FEF758
:1025D00061F909B030BD0000000100509C000020EE
:1025E0000080F03E10B586B014216846FDF74AFE23
:1025F0001648C16C41F02001C164C16C01F020019A
:102600000591C16C41F00101C164C16C01F001018F
:102610000591C16C41F00201C164C06C002400F05E
:10262000020005900120CDE9000469464FF090407A
:102630000294FEF7ABFD0720CDE90004694604488B
:102640000294FEF7A3FD06B010BD0000001002408A
:1026500000040048184810B5164901604FF416519F
:102660004160002181600C22C160C0E904128161D7
:10267000C161016241628162FFF7ABFC08B1FEF704
:1026800009F900210C48FFF77EFC08B1FEF702F9BA
:1026900000210948FFF751FC08B1FEF7FBF8064896
:1026A000FFF72CFC002803D0BDE81040FEF7F2B87D
:1026B00010BD00000038014008010020FEE770470F
:1026C000704730B501210020FFF7A6FE4FF47A7065
:1026D000FEF7D2F800210120FFF79EFE41F2907133
:1026E0001020FFF799FE4FF41C516020FFF794FE75
:1026F00001216120FFF790FE02214620FFF78CFEAA
:1027000048F210011320FFF787FE48F2FE01122065
:10271000FFF782FE4FF4A0610220FFF77DFE41F239
:1027200030010320FFF778FE40F2033421463020C9
:10273000FFF772FE21463120FFF76EFE2146322060
:10274000FFF76AFEE51E29463320FFF765FE0321E9
:102750003420FFF761FE21463520FFF75DFE14218E
:102760003620FFF759FE21463720FFF755FE214658
:102770003820FFF751FE21463920FFF74DFE29464C
:102780003A20FFF749FE03213B20FFF745FE214693
:102790003C20FFF741FE4FF4A0513D20FFF73CFEE7
:1027A0004FF400719220FFF737FE21469320FFF788
:1027B00033FE40F60D019020FFF72EFE41F2180186
:1027C0000320FFF729FEBDE8304040F273110720D7
:1027D000FFF722BE10B543F20801E320FFF71CFE0D
:1027E0001221E720FFF718FE41F23121EF20FFF719
:1027F00013FE00210120FFF70FFE4FF4E0610220DD
:10280000FFF70AFE41F230010320FFF705FE002129
:102810000420FFF701FE40F207210820FFF7FCFD2E
:1028200000210920FFF7F8FD00210A20FFF7F4FD41
:1028300000210C20FFF7F0FD00210D20FFF7ECFD3B
:1028400000210F20FFF7E8FD00211020FFF7E4FD35
:1028500007211120FFF7E0FD00211220FFF7DCFD2A
:1028600000211320FFF7D8FDC820FEF77DFC41F2C0
:1028700090611020FFF7D0FD40F227211120FFF7D3
:10288000CBFD3220FEF770FC1D211220FFF7C4FDA6
:102890003220FEF769FC4FF400611320FFF7BCFD06
:1028A00014212920FFF7B8FD0B212B20FFF7B4FDE1
:1028B0003220FEF759FC00212020FFF7ADFD00215A
:1028C0002120FFF7A9FD07213020FFF7A5FD40F2E9
:1028D00007713120FFF7A0FD06213220FFF79CFD94
:1028E00040F204713520FFF797FD41F60471362060
:1028F000FFF792FD04213720FFF78EFD00213820DD
:10290000FFF78AFD40F206713920FFF785FD40F29E
:1029100001713C20FFF780FD0F213D20FFF77CFD7A
:1029200000215020FFF778FDEF215120FFF774FDC3
:1029300000215220FFF770FD40F23F115320FFF7B6
:102940006BFD4FF41C516020FFF766FD01216120F3
:10295000FFF762FD00216A20FFF75EFD0021802065
:10296000FFF75AFD00218120FFF756FD002182204C
:10297000FFF752FD00218320FFF74EFD0021842048
:10298000FFF74AFD00218520FFF746FD102190202A
:10299000FFF742FD00219220FFF73EFD0321932027
:1029A000FFF73AFD4FF488719520FFF735FD0021C0
:1029B0009720FFF731FD00219820FFF72DFD41F210
:1029C00018010320FFF728FDBDE8104040F2731105
:1029D0000720FFF721BD7047FEF702BD00B593B099
:1029E00038216846FDF74EFC14210EA8FDF74AFC7D
:1029F0004FF40070FEF778FD0220C10103914021E1
:102A000004910090079008901421CDE909010B90E2
:102A10000C900D906846FFF75BF80F200E90032096
:102A20000F90002010901190129002210EA8FEF736
:102A300005FF13B000BD00000548016841F47001B6
:102A4000016003494FF00060803908607047000062
:102A500088ED00E030B5416EB9B1026891689268C6
:102A6000C1F342610B4B520F9C5CE50003F108047B
:102A7000A25CB5FBF2F2A0F86A205A5C615CD2005D
:102A8000B2FBF1F1A0F8681030BD0121A0F86A1086
:102A9000F8E700004C39000890F82810090706D51F
:102AA00001684A68836B22F400421A434A6090F836
:102AB0002810C90706D001684A68C36A22F40032A8
:102AC0001A434A6090F82810890706D501684A68B9
:102AD000036B22F480321A434A6090F828104907A9
:102AE00006D501684A68436B22F480221A434A6083
:102AF00090F82810C90606D501688A68C36B22F4CD
:102B000080521A438A6090F82810890606D5016819
:102B10008A68036C22F400521A438A6090F82810E5
:102B2000490611D501684A68436C22F480121A43A1
:102B30004A60416CB1F5801F06D101684A68836C18
:102B400022F4C0021A434A6090F82810090606D5FC
:102B500001684A68C06C22F4002202434A60704750
:102B60002DE9F84300260446C0F89060FEF732FCD9
:102B70008046206800684FF0200500076FF07E4710
:102B800013D54346002229042046009700F0A2F9FD
:102B900058B1216851E8000F20F0800041E80002A0
:102BA000002AF6D1C4F8885021E020680068400768
:102BB00022D5434600224FF480012046009700F0C2
:102BC00089F9C8B1216851E8000F20F4907041E8FC
:102BD0000002002AF6D12068083050E8001F21F0DA
:102BE000010140E80012002AF5D1C4F88C5084F8A5
:102BF00084600320BDE8F883C4F88850C4F88C5082
:102C000044F86C6F666026760020F3E710B5026822
:102C100052E8001F21F4907142E80013002BF6D116
:102C20000E4B0268083252E8001F194042E80014B7
:102C3000002CF6D1C16E012908D1016851E8002F9E
:102C400022F0100241E80023002BF6D12021C0F829
:102C50008C100021C166416710BD0000FEFFFFEF30
:102C60002DE9F0410446016880682269E369104358
:102C7000626900251A431043DFF82CC20A688B4BA7
:102C80001A4002430A6020684168E26821F440511A
:102C9000114341602168A069614501D0226A104357
:102CA0008A68834B1A4002438A602068C16A626A5C
:102CB00021F00F011143C1627E4923687E488B4297
:102CC0000DD1D0F8880010F0030006D0012855D0AF
:102CD000022842D003283FD152E001203DE077494D
:102CE0008B420BD1D0F8880010F00C0035D00428AE
:102CF00033D0082840D00C282ED141E070498B42B7
:102D00000BD1D0F8880010F0300026D0102835D034
:102D1000202831D030281FD132E06A498B420BD1B4
:102D2000D0F8880010F0C00017D0402826D08028A6
:102D300022D0C02810D123E063450DD1D0F88800FF
:102D400010F4406009D0B0F5806F17D0B0F5006F77
:102D500012D0B0F5406F13D010205B495B4F0026B6
:102D60004FF4004263453BD160B1022813D00428E0
:102D70000BD0082872D10DE00220EEE70420ECE72A
:102D80000820EAE7FEF748FE01E0FEF769FE0100D1
:102D900001D17CE01146606A37F810206768B1FB0A
:102DA000F2F007EB4703834270D8B0EB073F6DD8D2
:102DB000002308461946FDF72DFA090241EA106181
:102DC00002027808101871413A460023FDF722FAF2
:102DD0003F4AA0F54071914258D82168C86056E03A
:102DE000E3694FF6EF7893422CD109284ED2DFE801
:102DF00000F00508114D0D4D4D4D1000FEF70CFE75
:102E000001E0FEF71BFE010004D140E0FEF728FEC2
:102E1000F9E71146606A37F81000B1FBF0F04100A5
:102E2000606801EB5001B1FBF0F0A0F110014145E9
:102E30002CD84FF6F0710140C0F3420001432068E6
:102E4000C16024E0092821D2DFE800F00509122042
:102E50000E2020201100FEF7DFFD02E016E0FEF755
:102E6000EDFD010004D112E0FEF7FAFDF9E711468D
:102E7000606A37F81000B1FBF0F1606801EB5001B7
:102E8000B1FBF0F0A0F1100141450AD90125012064
:102E9000A4F86A0024F8680F2846E6602661BDE8B9
:102EA000F08180B299E7000000800040F369FFCF15
:102EB000FFF4FF11003801400010024000440040C0
:102EC00000480040004C00400024F4003439000861
:102ED000FFFC0F002DE9F047994617460D460446C2
:102EE0004FF00008089E33E0701C31D0FEF772FAF4
:102EF000A0EB0900B04218D8BEB1206801684907AC
:102F000026D5802D24D0402D22D0C169C943090780
:102F10000DD4082505622046FFF778FEC4F89050CE
:102F200084F884800120BDE8F0870320FBE7C069B6
:102F3000C04300050CD421684FF4006008622046AD
:102F4000FFF764FE2020C4F8900084F88480ECE74A
:102F50002068C06935EA000004D00020B842C3D020
:102F60000020E0E70120F9E7FEE700000FB4054B81
:102F700010B503A9044A029800F0EAF810BC5DF805
:102F800014FB0000593800082C0000200907090E26
:102F9000002804DB00F1E02080F80014704700F006
:102FA0000F0000F1E02080F8141D704702E008C80F
:102FB000121F08C1002AFAD170477047002001E0B3
:102FC00001C1121F002AFBD1704700002DE9FF5FED
:102FD00082B00021DDE90430020DDDF840B003438A
:102FE00018D044F61050A2F2FF3242431514119843
:102FF00001281FD0A5EB0B00401C5FEA000A4FF030
:1030000000064E4FDFF83891B046504615D5CAF14C
:10301000000413E0119801244AA3012801D16FEAAA
:103020000B010298119AC0E90031C0E9024206B0D2
:10303000BDE8F09FCBF10000DFE704460021404AE5
:10304000491842EB0450CDE9001012E0E00707D028
:1030500032463B4640464946FDF71FF980468946C1
:1030600032463B4610461946FDF717F906460F460D
:103070006410002CEAD1DDE90401DDE90023BAF196
:10308000000F06DAFDF709F942464B46FDF705F950
:1030900005E0FDF7BAFA42464B46FDF7B6FA04469C
:1030A0000E460022284BFDF737FB03D84FF0FF30C8
:1030B000014607E00022254B20463146FDF7FEF988
:1030C000FDF712FB102409E0002C0ADB0A22002382
:1030D000FDF7A0F8039B30321A55641E50EA010236
:1030E000F2D1641C039AC4F111031444119A012A09
:1030F00003D0012208430DD10AE0084304D0002088
:103100004FF0110B119072E7A3EB0B056D1E0DE054
:103110005B4504DD4FF0000205F1010504E003DA30
:103120004FF00002A5F10105002AECD00298119998
:10313000C0E90231C0E9004579E700000000144011
:103140000000F03F300000000000F0430000E03FCE
:103150002DE9FF4F95B09A46884606460025EEE1D8
:10316000252877D100242746F94A0121039400E05D
:10317000044316F8013F203B01FA03F01042F7D157
:1031800030782A2811D06FF02F033078A0F1300268
:10319000092A16D8039A44F0020402EB820203EBD8
:1031A00042021044761C0390EFE758F8042B039278
:1031B000002A03DA504244F40054039044F002041D
:1031C000761C30782E2816D116F8010F44F004042E
:1031D0002A280DD06FF02F023078A0F13003092B90
:1031E00009D807EB870302EB4303C718761CF3E704
:1031F00058F8047B761C30786C280FD006DC4C28FD
:1032000017D068280DD06A2814D104E0742810D093
:103210007A280FD10DE044F400140AE044F480143D
:1032200001E044F440147278824202D104F5801423
:10323000761C761C307866280BD013DC582877D0A3
:1032400009DC002875D04528F6D04628F4D0472858
:103250001AD193E118E0632835D0642879D0652825
:1032600012D18BE1702873D008DC6728F1D069286F
:103270006FD06E280DD06F2806D1ACE073282CD00B
:10328000752874D0782853D05246179990476D1CF2
:1032900054E1C4F30250022809D003280DD0D8F815
:1032A000001004280DD00D6008F1040846E1D8F89C
:1032B0000010EA17C1E90052F6E7D8F800100D80B7
:1032C000F2E70D70F0E718F8041B8DF800100020ED
:1032D0008DF80100EB46012003E058F804BB4FF0E5
:1032E000FF3061074FF0000102D40DE009F1010148
:1032F0008946B9420FDA8145F8DB1BF8091000292D
:10330000F4D108E009F1010189468142FADB1BF89A
:1033100009100029F6D103985346A0EB090721466E
:103320003846179A00F080FA284400EB090507E0B8
:1033300044E008E10DE01BF8010B52461799904755
:10334000B9F10109F7D2534621463846179AF2E0FF
:1033500039E00A21C4F302524FF0000B0091022A17
:1033600006D058F8040BC117032A09D00AE023E05D
:1033700008F1070020F00702F2E80201904605E09C
:1033800000B2C117042A01D140B2C117002906DAE0
:103390000A460021404261EB02012D2202E0220593
:1033A00004D52B228DF80420012203E0E20701D08E
:1033B0002022F7E7914657E00A2100E010214FF064
:1033C000000B00910BE010214FF0000B44F00404BF
:1033D0000827009103E008204FF0000B0090C4F391
:1033E0000252022A05D058F8040B0021032A08D003
:1033F00008E008F1070020F00702F2E80201904619
:1034000003E080B2042A00D1C0B24FF000092207C5
:103410002AD53278702A07D0DDF800C08CF0100C65
:103420005CEA0B0C05D00EE040228DF8042001224E
:1034300008E050EA010306D030238DF804308DF8FF
:10344000052002229146009B83F0080353EA0B03F8
:103450000AD150EA010201D1620705D530228DF868
:1034600004204FF001097F1E3278582A04D039A277
:103470000C920CAA02920BE03BA2F9E75B46009A81
:10348000FCF7C8FE0C9B9B5C029A521E02921370C2
:1034900050EA0102F2D1029804A9081A00F1200BA7
:1034A000600702D524F4803400E001275F4502DD87
:1034B000A7EB0B0000E0002000EB0B01009003984D
:1034C0004944401A0390E00306D453462146179A14
:1034D000039800F0A9F90544002706E001A8524628
:1034E000C05D179990476D1C7F1C4F45F6DBE003CC
:1034F0000CD553462146179A039800F095F90544D8
:1035000004E030205246179990476D1C0099481EE0
:1035100000900029F5DC08E00298029952460078F4
:10352000491C0291179990476D1CBBF10001ABF14A
:10353000010BF1DC5BE100F065F90544761C3078A5
:1035400000287FF40DAE19B02846BDE8F08F0000CA
:103550000928010030313233343536373839616269
:10356000636465660000000030313233343536372D
:10357000383941424344454600000000600700D40A
:10358000062708F1070020F00700F0E80223804634
:1035900003F0004C5FEA0C0001D097A009E0200581
:1035A00001D596A005E0E00701D095A001E0AFF2BB
:1035B0004C001390307823F0004365280CD006DCD3
:1035C000452809D046281DD047287FD13BE06628F2
:1035D00018D067287AD136E00021112F01DB1120A5
:1035E00000E0781CCDE9000104A90CA8FFF7EEFC6F
:1035F000DDE90D010C9A4FF0000B07F10109109263
:1036000000914EE04FF000400097CDE9011004A971
:103610000CA8FFF7DBFCDDE90D020C9B0F994FF0C6
:10362000000B91461093009211B9791C00EB01092F
:10363000B7EB090003D4C0F1FF3B07F10109A9EB87
:103640000700019042E0012F00DA01270021112F2D
:1036500001DD112000E03846CDE9000104A90CA8E5
:10366000FFF7B4FCDDE90D010C9A00914FF0000B5F
:10367000B946109221070FD4009A4A4503DA9146C1
:1036800001E0A9F10109B9F1010F05DD109AA9F1D5
:103690000101515C3029F4D0B84202DA10F1040F74
:1036A00003DA0121CDE9011010E0002803DC834496
:1036B000A9EB000102E0411C494500DD8946A0EB71
:1036C0000B00401C01904FF000400290200705D4F1
:1036D0000198484502DB4FF0FF30019000208DF843
:1036E0004B0002980DF14B07B0F1004F25D002209E
:1036F0000C902B200D90029800280CDA404202908A
:103700002D200D9007E00A210298FCF745FE30318C
:10371000029007F8011D0C99481E0C900029F2DC5C
:1037200002980028EFD1791E0D980870307800F0CB
:10373000200040F0450007F8020D11A8C01BC01D75
:1037400002901398007800B1012000EB0901019864
:1037500001EBE071029801440398401A401E039067
:10376000E00306D453462146179A039800F05CF80C
:1037700005441398007818B15246179990476D1C6C
:10378000E00323D553462146179A039800F04CF8DE
:1037900005441BE0BBF1000F07DB0098584504DD32
:1037A0001098179910F80B0001E017993020524635
:1037B000904701980BF1010B401E05F101050190A6
:1037C00004D12E205246179990476D1CB9F1000183
:1037D000A9F10109DEDC05E017F8010B5246179943
:1037E00090476D1C0299481E02900029F4DC534654
:1037F0002146179A03989EE62D0000002B0000003A
:10380000200000002DE9F041044600251E46174621
:10381000880404D405E039462020B0476D1C641E9E
:10382000F9D52846BDE8F0812DE9F0410446002590
:103830001E469046C80301D5302700E020278804A3
:1038400004D505E041463846B0476D1C641EF9D5E5
:103850002846BDE8F081000013B54FF0FF33012288
:1038600069460248FEF728FC00981CBD08010020AC
:103870002DED048BFDF7BCFDFFF7B0F8FEF7B2FEAF
:10388000FEF7E8FEFEF728FEFEF76EFEFEF7F4FCFC
:103890000020FEF74BFD4FF6FF70FEF75BFD0020AA
:1038A000FEF790FC9FED188B9FED199B1A4C00BF03
:1038B000FCF7D2FF53EC182B51EC100BFCF7EDFC8E
:1038C00053EC192BFCF7E9FCC4E90201FCF7B6FF45
:1038D00053EC182B51EC100BFCF7DFFC53EC192BBD
:1038E000FCF7DBFCC4E9000194ED020B0BA053ECE8
:1038F000102BFFF73BFB94ED000B0BA053EC102BB0
:10390000FFF734FBD4E700000000006066660A4061
:10391000000000000000303F080000205233373A1A
:10392000252E32660D0A00005233383A252E3266B3
:103930000D0A0000010002000400060008000A0051
:103940000C00100020004000800000010101010374
:103950000701000008040204080101010000000042
:10396000000000000102030406070809000000002F
:103970000102030494390008000000203000000018
:10398000AC2F0008C439000830000020700500008A
:10399000BC2F00080000FFFF000000000000000036
:1039A0000000000000000000000000000000000017
:1039B0001000000001000000000000000024F400DE
:0439C0000000000003
:04000005080001D915
:00000001FF
