:020000040800F2
:10000000D8050020ED01000821310008B5280008BE
:100010001D31000805030008B95A0008000000005F
:100020000000000000000000000000003151000846
:1000300009030008000000002531000835510008C0
:10004000070200080702000807020008070200086C
:10005000070200080702000807020008070200085C
:10006000070200080702000807020008070200084C
:10007000070200080702000807020008070200083C
:10008000070200080000000007020008070200083D
:10009000070200080702000807020008070200081C
:1000A000070200080702000807020008070200080C
:1000B000555100080702000807020008070200085F
:1000C00007020008070200080702000807020008EC
:1000D00007020008070200080702000807020008DC
:1000E00007020008070200080702000807020008CC
:1000F00007020008070200080702000800000000CD
:1001000000000000070200080000000007020008CD
:1001100007020008000000000702000807020008AC
:10012000070200080702000807020008070200088B
:10013000070200080000000000000000070200089D
:10014000070200080702000800000000000000008D
:10015000000000000000000000000000000000009F
:10016000000000000000000000000000070200087E
:10017000070200080000000000000000000000006E
:10018000000000000702000800000000000000005E
:10019000000000000000000000000000000000005F
:1001A000000000000000000007020008070200082D
:1001B000070200080702000807020008000000000C
:1001C000000000000702000800000000000000001E
:1001D0000702000807020008DFF80CD000F07AF8E8
:1001E00000480047BD5A0008D8050020064880474F
:1001F00006480047FEE7FEE7FEE7FEE7FEE7FEE70C
:10020000FEE7FEE7FEE7FEE739510008D9010008E6
:100210002DE9F05F0546002092469B46884606463B
:10022000814640241BE0284641464746224600F0CE
:1002300041F853465A46C01A914110D31146184608
:10024000224600F028F82D1A67EB01084F46224697
:100250000120002100F01FF817EB00094E41201E7D
:10026000A4F10104DFDC484631462A464346BDE896
:10027000F09FD2B201E000F8012B491EFBD270477B
:100280000022F6E710B513460A4604461946FFF762
:10029000F0FF204610BD202A04DB203A00FA02F1CC
:1002A000002070479140C2F1200320FA03F3194364
:1002B00090407047202A04DB203A21FA02F0002106
:1002C000704721FA02F3D040C2F120029140084366
:1002D000194670471CB50948009009480190054629
:1002E000009C06E0E06840F0010394E807009847AE
:1002F0001034AC42F6D3FFF773FF0000105C000827
:10030000305C0008FEE70000704700007047000006
:1003100090F85820012A04BF02207047B0B582B07F
:100320000022019200920368B3F1A04F30D140F255
:1003300008344FF6006EC5F20004CFF6FF7E54F885
:100340000E209B681A43520722D4D1F800C02268BD
:10035000BCF1000F22F4604328D04A6890F838506E
:1003600042EA45321A4322604FF60052CFF6FF723E
:10037000A25854F80E301A43D20727D1226840F60B
:100380001F7389689A43114341EA0C011DE000BFC5
:10039000C16D41F02001C1650121002280F8582083
:1003A00002B0BDE8B0400846704700BF4FF60051AC
:1003B0002360CFF6FF71615854F80E201143C9072E
:1003C00004D1216840F61F72914321600021E4E7C7
:1003D000F0B581B00022009290F85820012A03D194
:1003E0000221084601B0F0BD0123076880F85830AB
:1003F000BB685B0734D4D1E900351F26C5F301245F
:1004000007EB8404226B05F01F05AE40C3F3846341
:10041000B243AB401A432263BA68BB6802F00402DD
:1004200003F00803D21840F0BC800A6807F11403F7
:100430000426C2F34064D1F808E006EAD25C53F81F
:100440002440C2F304550722AA40BEF1004F24EA1B
:1004500002040BD143F80C401A6842F000430DE04F
:10046000C16D41F02001C165012178E10EFA05F26C
:10047000224343F80C201A6822F000437B61D1E943
:100480000435FC68042B5FD13A6E3A6E0B68C2F3F8
:10049000846293FAA3F6C3F3846C6FF3DF43B6FA76
:1004A00086F5002B2C464FF6FF7E08BF6446A2421D
:1004B000C0F2070E0CD13A6E22F000423A660A688A
:1004C00002EA0E03C2F3846C92FAA2F2B2FA82F547
:1004D0007A6E7A6E002BC2F384622C4608BF6446A3
:1004E000A2420CD17A6E22F000427A660A6802EAD1
:1004F0000E03C2F3846C92FAA2F2B2FA82F5BA6EDB
:10050000BA6E002BC2F384622C4608BF6446A24236
:100510000CD1BA6E22F00042BA660A6802EA0E03F3
:10052000C2F3846C92FAA2F2B2FA82F5FA6EFA6E13
:10053000002BC2F3846208BF6546AA4231D1FA6E2D
:1005400022F00042FA662CE0062202EA940205FA42
:1005500002FC0E6807F1600555F823404FF20002D7
:10056000C0F2FF3206F0F846224046EA0C0632435B
:1005700042F0004245F823200A698B6955F8226051
:1005800026F08076334345F822300A690B7F55F810
:100590002260012B26F0007608BF06F1007645F8B0
:1005A0002260BA680D68D20750D1CA68D7F8B06027
:1005B0002B466FF3DF4326EA030C4FF6FF7602F07B
:1005C0001804C0F20706E64000242E40C4F27F045F
:1005D00046EA0C06A242C7F8B06037D193B195FA4B
:1005E000A5F2B2FA82F2013202F01E03092B02F0E8
:1005F0001F0310D801229A4003EB430342EA03533E
:1006000015E000BF012202EB956202F01E030A2BE7
:1006100002F01F03EED3012200269A4003EB4303AE
:10062000CFF6206606EB03531A4342F00073C3F380
:10063000406607EB86068A687569C3F3045307248E
:100640009C40A5439A402A4372610D680021C8F27C
:1006500008010D4200F0828040F2083CC5F2000C17
:10066000DCF800400021CCF221318D4204F0E07E24
:1006700004D01021C9F2C0018D4241D1B7F1A04F81
:100680004FF0000108BF14F4000268D1DCF800103C
:1006900042F6635221F0E07141EA0E0141F400019B
:1006A000CCF8001040F20C01C2F200010968C0F25F
:1006B0003E528909A1FB0212910901EB41010C2272
:1006C00002EB810100910099002947D0009901397E
:1006D00000910099002941D00099013900910099B9
:1006E000E1B30099013900910099B9B3009901393A
:1006F0000091009900294FF00001E7D12FE000BFE1
:100700000021CCF252718D4210D10021B1EB1E6F4D
:100710000CD1ACF502718F4220D0DCF8001021F032
:10072000E07141EA0E0141F0807115E0ACF5027113
:100730008F424FF0000112D00022CCF68432954255
:1007400008BF14F480020AD1DCF8001021F0E07137
:1007500041EA0E0141F48001CCF800100021002292
:1007600080F85820084601B0F0BD0000B0B582B056
:1007700000210028019155D0C16D39B9044600F01F
:1007800009F920460021216684F858100268916812
:1007900089004FF6C071C5F6FF7102D593680B4012
:1007A00093609368DB002ED4936801F18051194067
:1007B00041F08051916040F20C01C2F200010968E1
:1007C00042F663538909C0F23E53A1FB0313990912
:1007D000022303EB410101910199A1B10199013972
:1007E0000191019979B1019901390191019951B1B1
:1007F000019901390191019929B1019901390191B9
:1008000001990029EAD19168C90011D4C16D4FF056
:10081000010E41F01001C165016E41F00101016658
:1008200008E000BF4FF0010E704602B0B0BD00BF3F
:100830004FF0000E9368C46D03F0040304F010043D
:100840001B19C36D68D123F481730233C3659368A8
:10085000DB071AD140F2083C4FF600544FF6006314
:10086000C5F2000CCFF6FF74CFF6FF735CF80440BE
:100870005CF803302343DB0707D14368DCF8004012
:1008800024F47C142343CCF80030437FC46BD0E9BC
:1008900002C144EA4333194390F8243041EA0C0181
:1008A000012B41EA034306D1816A0024CFF6FE748E
:1008B00004EB41410B43C46A24B1016B04F4787426
:1008C00021430B43D16844F20704CFF6F074214072
:1008D0001943D1601169436B21F0406119431161E3
:1008E0009168090743D490F83810037F490041EA22
:1008F0008331D36844F20204A3431943D1600369EE
:1009000014698BB144F480311161D2F8C01043F600
:10091000FF74A1430B4310E043F010024FF0010EAF
:10092000C265704602B0B0BD24F480311161D2F8C6
:10093000C01043F6FF7321EA0303C2F8C03090F8F9
:100940004010136901290FD140F2FD7123EA010C17
:10095000D0E91134D0E9131543EA0C0323431943BA
:10096000294341F0010301E023F0010313614169D0
:10097000136B012923F00F0302D1016A01390B43E4
:100980001363C26D012161F30102C265704602B0BA
:10099000B0BD000010B598B0044600201790CDE916
:1009A0001500CDE9130002A84421FFF769FC206877
:1009B00040F20011C5F20001884231D0B0F1A04FE1
:1009C00067D14FF4004002904FF00050119002A800
:1009D00000F09CFA002818BFFFF798FC40F21001C5
:1009E000C2F200010A6841F24C00C4F20200531C3A
:1009F0000B6042B9016841F400510160016801F4E3
:100A0000005101910199016841F002010160006803
:100A100000F00200019001984FF480502DE000BFDB
:100A20004FF4004002904FF00050119002A800F0E7
:100A30006DFA002818BFFFF769FC40F21001C2F2FE
:100A400000010A6841F24C00C4F20200531C0B6022
:100A500042B9016841F400510160016801F400519C
:100A600001910199016841F002010160006800F004
:100A70000200019001984FF400401390032014905D
:100A80000020159040F20040C4F6000013A900F0C9
:100A900017F818B010BD0000B0B5044600F0F0F82B
:100AA000054640F20000C2F200004068611C18BF19
:100AB000044400BF00F0E4F8401BA042FAD3B0BDEC
:100AC0002DE9F04F83B00E68002E00F0CF8000F1CA
:100AD000200241F2004C009200F13847C4F6000CAD
:100AE00006224FEAB725604508BF0522052D38BF0D
:100AF0004FEAB722002500274FF0000801920AE0D4
:100B00000E6808F1010836FA08F207F1020705F14C
:100B1000040500F0AB80012202FA08FE16EA0E0975
:100B2000EED0D1F804C003220CF0030BABF10106A8
:100B300002FA07F4012E6FEA040A11D88468CE681D
:100B400004EA0A04BE4034438460446824EA0E0682
:100B5000CCF3001404FA08F42643466006E000BF14
:100B6000BBF1030F02D14FF0030B21E0C6688C6884
:100B700006EA0A06BC402643BBF1020FC66017D145
:100B80006FF00302009B02EA580605F01C020F24D6
:100B900053F806C004FA02FE0C692CEA0E0C04FAA3
:100BA00002F242EA0C029A51D1F804C00CF0030B95
:100BB00002680BFA07F302EA0A021A431CF4403FE8
:100BC00002609DD041F26003C4F202031A6840F251
:100BD000004E42F001021A601A68C4F2010E02F0DF
:100BE00001020292029A28F003024FF6084C724466
:100BF000CFF6FF7C52F80C3005F00C060F24B44001
:100C0000A343019C04FA06F6334342F80C30DEF8A5
:100C100008204B6842EA090640F20C4CDC0258BF3F
:100C200022EA0906CEF80860C4F2010CDCF80020C4
:100C30009C0242EA090658BF22EA0906CCF8006085
:100C4000DEF804209C0342EA090658BF22EA09069E
:100C5000CEF80460DEF80020DB0342EA090658BF44
:100C600022EA0906CEF800604AE700BF03B0BDE8FB
:100C7000F08F00001823002A08BF2823C1507047B6
:100C800040F2D010C2F200000068704740F200004D
:100C900040F2D011C2F20000C2F2000140680A68BE
:100CA000104408607047000080B5032000F08CF805
:100CB000002000F009F800281CBF012080BD00F0D2
:100CC0002BF8002080BD0000B0B540F20005C2F254
:100CD00000056968F1B1044640F20C00C2F2000060
:100CE0004FF47A720068B2FBF1F1B0FBF1F000F062
:100CF0009BFE01460F2C4FF001000AD8002918BFB7
:100D0000B0BD4FF0FF302146002200F031F8002046
:100D10002C60B0BD0120B0BD82B041F25800C4F2D9
:100D20000200816841F001018160816801F00101E8
:100D300001910199016841F080510160006800F063
:100D400080500090009802B000F0D6B8002848BF4C
:100D5000704700F01F01012202FA01F11C2202EA91
:100D6000D0004EF20012CEF2000281507047000017
:100D700010B54EF60C5CCEF2000CDCF80030C3F37C
:100D8000022E8EF00704042C28BF0424BEF10303B6
:100D90004FF0FF3E0EFA04F438BF0023A143994000
:100DA0000EFA03F39A43114300F00F0200F160437F
:100DB0000901043A03F564436244002848BF02F184
:100DC0000C03197010BD00004EF60C51CEF200015C
:100DD0000A684FF6FF031A4060F30A2242F080606F
:100DE00040F0FD700860704747F21401C4F2000142
:100DF00051F8142CB0F5007F3CD0002874D1C86E97
:100E000002F4C06220F48070B2F5806FC8662FD102
:100E100051F8140C012262F34A2041F8140C40F2FC
:100E20000C00C2F200000068322250434DF683628B
:100E3000C4F21B32A0FB0202900C00BF0A685205EC
:100E400011D5421C0FD00A6852050CD558B10A685A
:100E5000520508D5012806D00A68520503D5022894
:100E6000A0F10400EAD10868400544BF03207047A0
:100E700000207047C86E02F4C06240F48070B2F582
:100E8000806FC866F4D151F8140C012262F34A2035
:100E900041F8140C40F20C00C2F20000006832224B
:100EA00050434DF68362C4F21B32A0FB0202900C49
:100EB0000A68520511D5421C0FD00A6852050CD59C
:100EC00058B10A68520508D5012806D00A685205AB
:100ED00003D50228A0F10400EAD10868400544BF08
:100EE00003207047C4E700BF022060F34A2241F8A4
:100EF000142C00207047000047F20800C4F20000E4
:100F0000016841F480410160704700002DE9F04123
:100F100082B00446807841F288060007C4F20206D7
:100F200002D400202FE000BF56F8300C5FEAC00862
:100F30000BD456F8300C40F0805046F8300C56F880
:100F4000300C00F080500190019847F20007C4F285
:100F50000007386840F480703860FFF791FE05465E
:100F60003868C00500F1D680FFF78AFE401B0228D2
:100F7000F6D90320B8F1000F05D456F8301C21F043
:100F8000805146F8301C2168CA0713D18A0719D44A
:100F90004A071FD40A0725D48A062BD44A0631D41F
:100FA0000A0637D4CA053DD48A0543D44A0549D434
:100FB00057E000BF3268636822F003021A433260D0
:100FC0008A07E5D53268A36822F00C021A43326022
:100FD0004A07DFD53268E36822F030021A433260F4
:100FE0000A07D9D53268236922F0C0021A43326059
:100FF0008A06D3D53268636922F440621A433260AC
:101000004A06CDD53268A36922F440521A433260B1
:101010000A06C7D53268E36922F440421A433260B7
:10102000CA05C1D53268236A22F440321A433260BD
:101030008A05BBD53268636A22F440221A433260C3
:101040004A050ED53268A36A22F440121A43B3F55A
:10105000801F326005D156F87C2C42F4801246F88D
:101060007C2C0A050ED53268E36A22F440021A434A
:10107000B3F5800F326005D156F87C2C42F4801213
:1010800046F87C2CCA040ED53268236B22F04072DD
:101090001A43B3F1807F326005D156F87C2C42F4BC
:1010A000801246F87C2C8A040ED53268636B22F0DD
:1010B00040621A43B3F1006F326005D156F87C2CC0
:1010C00042F4801246F87C2C4A040ED53268A36B99
:1010D00022F040621A43B3F1006F326005D156F836
:1010E0007C2C42F4801246F87C2C09040ED5316821
:1010F000E26B21F040511143B2F1805F316005D1C4
:1011000056F87C1C41F4803146F87C1C02B0BDE8E6
:10111000F08100BFB06810F4407010D0216C88429C
:101120000BD0B068B16820F4407041F48031B160F8
:10113000B16821F48031B160B060C0070CD1B068F3
:10114000216C20F440700843B0600020B8F1000F1B
:101150003FF519AF11E700BFFFF792FD054641F2D9
:10116000883700BFB0688007E9D4FFF789FD401BCE
:10117000B842F7D9FDE600002DE9F047002863D01A
:1011800042F2000AC4F2020A0446DAF800000D46F0
:1011900000F00F0081420CD9DAF8000020F00F00B7
:1011A0002843CAF80000DAF8000000F00F00A84257
:1011B0004AD1216841F20808C807C4F2020803D1E5
:1011C000880740F1D080B5E0606858F8082C022804
:1011D00038D003283CD1920136D5D8F80420D8F86D
:1011E000043042F20046C3F3031302F00302D8F8BE
:1011F00004700133C0F2F406032A04BF43F2006610
:10120000C0F26E16B6FBF3F2D8F80430C7F3062727
:101210007A43C3F34163022707EB4303B2FBF3F2C4
:101220004BF20043C0F2C4439A4259D9D8F8002087
:1012300012F0F00F49D0890752D5A16800294FD18B
:1012400043E000BF910305D40120BDE8F08700BF53
:101250005105F9D5D8F8001001F00C0104293FD050
:10126000D8F8001001F00C01082939D0D8F8001086
:1012700001F00C010C2933D1D8F80410D8F804205F
:1012800042F20047C2F3031201F00301D8F8043020
:101290000132C0F2F407032904BF43F20067C0F231
:1012A0006E17B7FBF2F1D8F80420C3F306235943B5
:1012B000C2F34162022303EB4202B1FBF2F14BF2B3
:1012C0000042C0F2C44291420AD9D8F80010082264
:1012D00062F307114FF00109C8F8001002E000BFE7
:1012E0004FF00009D8F8001021F003010843C8F8B6
:1012F0000000FFF7C5FC064641F28837D8F8000029
:10130000616800F00C00B0EB810F07D0FFF7B8FC6C
:10131000801BB842F2D90320BDE8F0872168880716
:1013200008D4B9F1000F1ED0D8F8000020F0F0006A
:1013300017E000BF480705D5D8F8000040F4E0608A
:10134000C8F80000080706D5D8F80000072262F3A5
:101350000D20C8F80000D8F80000A26820F0F000C6
:101360001043C8F80000DAF8000000F00F008542D2
:101370001BD2DAF8000020F00F002843CAF8000062
:10138000FFF77EFC064641F2883700BFDAF800001E
:1013900000F00F00A84207D0FFF772FC801BB84294
:1013A000F4D90320BDE8F0872168480707D5D8F8AD
:1013B0000000E26820F4E0601043C8F8000008076D
:1013C00008D5D8F80000216920F4605040EAC10037
:1013D000C8F80000D8F8000042F20041C0F2F40161
:1013E00000F00C00042808462DD0D8F8000000F0CA
:1013F0000C00082843F20060C0F26E1023D0D8F829
:10140000002002F00C020C2A1CD1D8F80420D8F8D5
:10141000043002F00302C3F30313D8F8047001335D
:10142000032A08BF0146B1FBF3F0D8F80410C7F354
:101430000627C1F341610222784302EB4101B0FB70
:10144000F1F000E00020D8F8001045F68E32C1F32C
:101450000311C0F60002515C40F20C0201F01F01C2
:1014600020FA01F140F20000C2F200000068C2F26E
:1014700000021160BDE8F047FFF726BC40F20C0007
:1014800041F20801C2F20000C4F2020100680968DA
:1014900045F69E32C1F30221C0F60002515C01F014
:1014A0001F01C8407047000040F20C0041F20801E3
:1014B000C2F20000C4F202010068096845F69E32DB
:1014C000C1F3C221C0F60002515C01F01F01C84007
:1014D0007047000041F20C01C4F2020151F8040C03
:1014E00042F20042C0F2F40200F00C000428104660
:1014F00008BF704751F8040C00F00C00082843F2B4
:101500000060C0F26E1025D051F8043C03F00C03CB
:101510000C2B1CBF0020704780B5D1F800C00B68B1
:101520000CF0030CC3F3031E0B680EF1010EBCF1AB
:10153000030F08BF02460968B2FBFEF0C3F306239F
:10154000C1F341610222584302EB4101B0FBF1F0CB
:10155000BDE8804070470000002804BF01207047AC
:101560002DE9F04182B00446007841F20006C00740
:10157000C4F202061ED1207880073DD420780007EF
:1015800064D42078400700F187802078800600F13D
:10159000D980E569002D00F04282B06800F00C00AF
:1015A0000C2840F03181012D40F08E81012002B0E5
:1015B000BDE8F081B06800F00C01F068082961D046
:1015C000032281F00C0122EA00000844B0FA80F006
:1015D000400957D161683068B1F5803F07D0B1F557
:1015E000A02F40F0E38040F480203060306840F469
:1015F00080303060E4E000BFB068F16800F00C00BB
:10160000042871D001F0030180F00C0081F0020188
:101610000844B0FA80F0400966D1E16830680029DA
:1016200000F0E08040F480703060FFF729FB054651
:101630003068400500F10A81FFF722FB401B0228B9
:10164000F6D9032002B0BDE8F08100BF6169D6F889
:101650009400002900F0948040F00100C6F8940046
:10166000FFF70EFB054600BFD6F8940080073FF554
:1016700088AFFFF705FB401B0228F5D9032002B015
:10168000BDE8F081306880037FF575AF60680028A1
:101690007FF471AF3EE000BFB06D5FEAC00808D4D0
:1016A000B06D40F08050B065B06D00F0805001909A
:1016B000019847F20007C4F200073868C0052DD42E
:1016C000386840F480703860FFF7DAFA054600BFEA
:1016D0003868C00522D4FFF7D3FA401B0228F7D997
:1016E000032002B0BDE8F0813068400501D5E06814
:1016F00080B17068216920F0FE4040EA01607060AE
:1017000040F20000C2F200000068FFF7DDFA002896
:101710003FF434AF012002B0BDE8F081A168D6F8F3
:101720009000012908D0052940F0AE8040F0040067
:10173000C6F89000D6F8900040F00100C6F890007E
:10174000AEE000BFA169D6F89800002900F08680BD
:1017500040F00100C6F89800FFF792FA054600BF76
:10176000D6F8980080073FF514AFFFF789FA401BC1
:1017700002284FF00300F3D902B0BDE8F08100BFAA
:1017800020F00100C6F89400FFF77AFA054600BF82
:10179000D6F8940080077FF5F4AEFFF771FA401B8E
:1017A0000228F5D9032002B0BDE8F08120F4803092
:1017B00030603068002920F48020306000F0BE8066
:1017C000FFF75EFA054600BF306880033FF5D3AEF1
:1017D000FFF756FA401B6428F6D9032002B0BDE893
:1017E000F08100BF20F480703060FFF749FA0546B1
:1017F000306840057FF5C2AEFFF742FA401B022871
:101800004FF00300F4D9B7E7306820F08070306003
:10181000FFF736FA022D05460CD100BF3068800173
:1018200040F1B880FFF72CFA401B02284FF003006C
:10183000F4D9A1E73068800140F1EA80FFF720FA8F
:10184000401B02284FF00300F4D995E77068216926
:1018500020F0FE4040EA016070608FE620F0010059
:10186000C6F89800FFF70CFA054600BFD6F89800B6
:1018700080077FF58EAEFFF703FA401B02284FF07A
:101880000300F3D978E700BF20F00100C6F890000C
:10189000D6F89000002920F00400C6F890005DD032
:1018A000FFF7EEF9054641F2883700BFD6F8900001
:1018B000800765D4FFF7E4F9401BB842F6D903204E
:1018C00002B0BDE8F08100BFF068216A00F00302B9
:1018D0008A427FF41FAF626A6FF00F0300F0F001DD
:1018E00003EB021291427FF415AFA16A00F4FE42AD
:1018F000B2EB012F7FF40EAFE16A00F07842B2EB59
:10190000C16F7FF407AF226B0023CFF6E07303EAC9
:10191000025200F4C001A2F5001291427FF4FAAE27
:10192000616B4FF07E4202EA016100F0C06001F19C
:101930007E4188427FF4EEAE71E000BFFFF7A0F970
:10194000054600BF306880037FF515AEFFF798F9B4
:10195000401B64284FF00300F4D90DE7FFF790F91E
:10196000054641F2883700BFD6F89000800707D5BA
:10197000FFF786F9401BB8424FF00300F4D9FBE6AD
:10198000B8F1000F3FF501AEB06D20F08050B065AA
:10199000FBE500BFF06848F20C01C0F29F1104F1B2
:1019A000200700EA010C8ECF6FF00F00D4E90C5431
:1019B00000EB02100022CFF6E07241EA0C0102EACD
:1019C00005520843A2F500124FF07E4540EA03207D
:1019D00005EA0465104305F17E4540EAC7602843E7
:1019E000F060306840F080703060F06840F08070E7
:1019F000F060FFF745F90446306880010FD4FFF727
:101A00003FF9001B02284FF00300F5D9B4E600BFF0
:101A1000F0684FF6FC71CFF6EE610840F0600020F0
:101A200002B0BDE8F0810000411E0020B0EB116F54
:101A30001CBF012070474EF21002CEF2000251602E
:101A40004EF62351CEF20001F0230B700721906077
:101A50001160704770470000704700007047000039
:101A600070470000704700007047000090F83C206D
:101A7000012A4FF002024AD070B580F83D2002687A
:101A800043F2004C54689368C4F2010C42F6004ED5
:101A90006245C4F2010E01D0724503D14D6824F4B1
:101AA00070042C434FF68F75CFF6FF550E682C400F
:101AB00042F6FF35C4F201053443AA4254600FDCFC
:101AC000B2F1804F16D040F20046C4F20006B24296
:101AD00010D040F60006C4F20006B2420AD00EE072
:101AE000724507D044F20006C4F20106B24201D0AA
:101AF000624504D1896823F0800319439160012174
:101B0000002280F83D1080F83C20BDE8704010466F
:101B10007047000070470000002804BF0120704794
:101B200010B5044690F83D0028B9002084F83C0028
:101B3000204600F023F8022084F83D002068211D93
:101B400003F00EFB012084F8480084F83E0084F87E
:101B50003F0084F8400084F8410084F8420084F893
:101B6000430084F8440084F8450084F8460084F873
:101B7000470084F83D00002010BD00000068B0F16F
:101B8000804F18BF704780B582B041F25800C4F250
:101B900002000168002241F001010160006800219B
:101BA00000F00100019001981C20FFF7E1F81C20D3
:101BB00002B0BDE88040FFF7C9B8000090F83C20B3
:101BC000012A4FF0020200F0AC8080B580F83D2081
:101BD000D0F800C08822DCF80830CFF6CE721A4068
:101BE000CCF808200B686F2B10DD1F22C0F210020A
:101BF000934237DCB3F5005F6EDA702B00F0B680ED
:101C0000B3F5805F00F08480D8E000BF2F2B35DD76
:101C10004F2B39DC302B6FD0402B40F0CF80D1F8E8
:101C200004E0C968DCF82030DCF8202022F0010252
:101C3000CCF82020DCF8182022F0F00242EA011152
:101C400023F00A0242EA0E02CCF81810CCF8202049
:101C5000DCF808104FF68872CFF6CF72114047318A
:101C600054E000BF3F21C0F210018B423ADC20213A
:101C7000C0F210018B423FD0302139E0E3B3102B8A
:101C80003AD0202B38D099E0502B4DD0602B40F02B
:101C90009580D1F804E0C968DCF82030DCF8202019
:101CA00022F01002CCF82020DCF8182022F4704238
:101CB00042EA013123F0A00242EA0E12CCF81810D9
:101CC000CCF82020DCF808104FF68872CFF6CF72DF
:101CD000114067311AE000BF5CD0B3F1101F0BD088
:101CE0006CE000BF4021C0F210018B4204D0702193
:101CF000C0F210018B4261D1DCF808104FF68872F7
:101D0000CFF6CF721140194341F00701CCF808100B
:101D10000022012180F83D10002180F83C10BDE830
:101D200080401046704700BFD1F804E0C968DCF875
:101D30002030DCF8202022F00102CCF82020DCF852
:101D4000182022F0F00242EA011123F00A0242EACE
:101D50000E02CCF81810CCF82020DCF808104FF652
:101D60008872CFF6CF7211405731CFE7D1E901E346
:101D7000C968DCF8082043EA0E0322F47F4243EAF4
:101D800001211143CCF80810DCF8081041F077016C
:101D9000BCE700BFD1E901E3C968DCF8082043EAE9
:101DA0000E0322F47F4243EA01211143CCF80810CC
:101DB000DCF8081041F48041A8E700BF0122A8E741
:101DC00070470000F0B581B004460068C568066938
:101DD000B10717D515F0020114D06FF002010161AF
:101DE000012121778069800704D02046FFF7E8FFB2
:101DF00006E000BF204600F0CBF8204600F0E2FAF3
:101E000000202077700719D515F0040016D020683F
:101E10006FF00401016102212177806910F4407F95
:101E200004D02046FFF7CCFF06E000BF204600F0BC
:101E3000AFF8204600F0C6FA00202077300717D50B
:101E400015F0080014D020686FF00801016104212A
:101E50002177C069800703D02046FFF7B1FF05E076
:101E6000204600F095F8204600F0ACFA00202077DC
:101E7000F00619D515F0100016D020686FF010018B
:101E8000016108212177C06910F4407F04D0204609
:101E9000FFF796FF06E000BF204600F079F82046E5
:101EA00000F090FA00202077F00718BF15F001002D
:101EB00006D020686FF001010161204600F0D2FBDE
:101EC00016F4025F05F0800718BF002F02D1F0055D
:101ED00009D410E020686FF4025101612046FFF739
:101EE000BBFDF00507D537B120686FF48071016143
:101EF0002046FFF7AFFD700609D515F0400006D06B
:101F000020686FF040010161204600F0ADFBB00693
:101F100009D515F0200006D020686FF0200101617E
:101F20002046FFF79BFDF00209D515F4801006D07E
:101F300020686FF4801101612046FFF793FDB00225
:101F400009D515F4001006D020686FF40011016166
:101F50002046FFF785FD700209D515F4800006D0F4
:101F600020686FF4800101612046FFF77DFD30029B
:101F70000CD515F4000009D021686FF4000220464A
:101F80000A6101B0BDE8F040FFF7C4BD01B0F0BD8B
:101F90007047000090F83C30012B04BF02207047CE
:101FA0004FEAB202052A00F2D3812DE9F041DFE8C1
:101FB00012F0070035018D00E1005100870100BFDC
:101FC00003681D6A1A6AA3F1804622F001021A62B0
:101FD0001A465C6852F818CF8F68A6F59636D1F885
:101FE00000E025F002054FEAB626072E45EA070570
:101FF0000AD80127B74017F0E50F1FBFCF6825F0BB
:102000000C0527F004073D43072E0BD8012707FADC
:1020100006F616F0E50F1FBFD1E9056724F44074FA
:1020200034433C434FF68C76CFF6FE760CEA060737
:1020300047EA0E075C609F614F6809695F631D6234
:102040009F6947F008079F619F6927F004079F6118
:1020500073E100BF0368D3F820C01A6AA3F1804778
:1020600022F480321A621A46A7F596375D6852F854
:10207000508FD1F800E08E684FEAB727072F09D8B4
:102080000124BC4014F0E50F1EBF4C6925F48035D7
:1020900045EA04252CF4003747EA06474FF68C76CC
:1020A000CFF6FE76033606EA080646EA0E065D60BF
:1020B0001E654E6809699E641F621F6D47F0080720
:1020C0001F651F6D27F004071F6536E1036843F2A3
:1020D00000461D6A1A6AC4F2010622F480721A626E
:1020E0001A46D3F804C052F81CEFB3428E68D1F8F8
:1020F000008025F4007545EA062505D042F6004625
:10210000C4F20106B34207D1CE6840F2FF4736025F
:1021100025F44065BE433543A3F18046A6F59636C7
:102120004FEAB626072E0CD8012707FA06F616F056
:10213000E50F1FBFD1E905672CF44054374344EA4B
:10214000071C4FF68C74CFF6FE740EEA040747EABC
:102150000807C3F804C0DF614F680969DF631D62C7
:10216000DF6947F00807DF61DF6927F00407DF61F7
:10217000E3E000BF036843F200461D6A1A6AC4F236
:10218000010622F480521A621A46D3F804C052F8AB
:102190001C8FB3428E68D1F800E025F4005545EA63
:1021A000063505D042F60046C4F20106B34207D117
:1021B000CE6844F6FF77360325F44045BE433543E9
:1021C000A3F18046A6F596364FEAB626072E0CD820
:1021D000012707FA06F616F0E50F1FBFD1E90567DC
:1021E0002CF44044374344EA871C48F6FF44CFF6BA
:1021F000FF6404EA080444EA0E27C3F804C0DF6160
:102200004F6809691F641D62DF6947F40067DF6179
:10221000DF6927F48067DF618EE000BF036843F267
:1022200000461D6A1A6AC4F2010622F010021A6200
:102230001A465C6852F818CFB3428E68D1F800E0B5
:1022400025F0200545EA061505D042F60046C4F201
:102250000106B34207D1CE686FF0400725F0C005F4
:1022600007EA06163543A3F18046A6F596364FEAEF
:10227000B626072E0CD8012707FA06F616F0E50F4A
:102280001FBFD1E9056724F440643E4344EA860455
:1022900048F6FF46CFF6FF660CEA060747EA0E2728
:1022A0005C609F614F6809699F631D629F6947F485
:1022B00000679F619F6927F480679F613CE000BFD2
:1022C0000368D3F820C01A6AA3F1804722F4801271
:1022D0001A621A46A7F596375D6852F8508FD1F802
:1022E00000E08E684FEAB727072F09D80124BC40C9
:1022F00014F0E50F1EBF4C6925F4802545EA8425BE
:102300002CF4001747EA065748F6FF46CFF6FF665B
:1023100006F5407606EA080646EA0E265D601E656A
:102320004E680969DE641F621F6D47F400671F6510
:102330001F6D27F480671F65090213681943116038
:102340000021BDE8F041002280F83C20084670479B
:102350000121002280F83C2008467047002804BF75
:102360000120704710B5044690F83D0028B90020C0
:1023700084F83C00204600F023F8022084F83D0059
:102380002068211D02F0ECFE012084F8480084F84A
:102390003E0084F83F0084F8400084F8410084F84F
:1023A000420084F8430084F8440084F8450084F82F
:1023B000460084F8470084F83D00002010BD00006E
:1023C000704700007047000080B509B30B1F4FEA4B
:1023D000B30E43224FF03F0CBEF1040F38BF0CEB9D
:1023E000B302825C012A1CBF012080BDBEF1030F35
:1023F0003ED8DFE80EF003311D2700BF022280F82F
:102400003F204FEAB103032B4FF001022DD838E0F3
:1024100090F83E20012A1CBF012080BD022280F8D6
:102420003E204FEAB103032B4FF001021DD828E0F4
:10243000022280F841204FEAB103032B4FF0010242
:1024400013D81EE0022280F842204FEAB103032B8A
:102450004FF0010209D814E0022280F840204FEA30
:10246000B103032B4FF001020BD9104680BD00BF12
:10247000022280F843204FEAB103032B4FF0010200
:10248000F3D845F6C03C0068C0F6000C5CF823C0E9
:10249000C36801F01F0143EA0C03C360036A02FA38
:1024A00001F123EA01020262026A0A43A0F18041BB
:1024B000A1F596314FEAB1210629026246D80122E0
:1024C00002FA01F111F0650F40D0416C42F6FF3283
:1024D000C4F2010241F400419042416410DCB0F1C9
:1024E000804F1FD040F20041C4F20001884219D051
:1024F00040F60001C4F20001884213D01EE000BF84
:1025000042F60041C4F2010188420BD044F20001BE
:10251000C4F20101884205D043F20041C4F2010136
:1025200088420BD181680722C0F2010211400629BE
:102530004FF0000299D0B1F5803F96D0016800229B
:1025400041F001010160104680BD00BF42F6FF313D
:10255000C4F201018842C2DD43F6FF71C4F20101F9
:10256000884207DC42F60041C4F201018842D3D11F
:10257000D8E700BF44F20001C4F201018842D1D083
:1025800044F60001C4F20101884202BF416C41F4EB
:1025900000414164D2E700004FEAB10CBCF1030FE7
:1025A0004FF001025CD810B545F6D03E0368C0F686
:1025B000000E5EF82CE0DC6801F01F0104EA0E0456
:1025C000DC601C6A02FA01F124EA01011962A3F13C
:1025D0008041A1F596311A6A4FEAB12106291A62A3
:1025E00014D8012202FA01F111F0650F0ED0196A18
:1025F00041F2111211420FD1196A44F244421142C0
:102600000AD1596C21F40041596405E044F60001F7
:10261000C4F201018B42EAD0196A41F2111211424F
:1026200008D1196A44F24442114203D1196821F0D9
:1026300001011960BDE81040DFE80CF0020E060A47
:10264000012180F83E100AE0012180F8401006E0E8
:10265000012180F8411002E0012180F83F100022A2
:1026600010467047704700007047000090F88410D3
:10267000012904BF022070472421C0F88810016896
:102680000A680B6822F0005223F001030B6000235C
:1026900043660A602021C0F8881080F8843000204A
:1026A0007047000090F88420012A04BF0220704780
:1026B000B0B52422C0F888200268D0F864E0D2F8CF
:1026C00000C01368BEF1000F23F00103136093688C
:1026D00023F0606341EA0301916019D09368916827
:1026E00045F6004E490FC0F6000E45F608451EF8A7
:1026F0000140C0F60005695CC3F34263E400B4FB2B
:10270000F1F11EF80340EB5CE500B5FBF3F301E0EB
:1027100001210123A0F86A102021A0F86830C2F836
:1027200000C0C0F88810002180F884100020B0BDDF
:1027300090F88420012A04BF02207047B0B52422FB
:10274000C0F888200268D0F864E0D2F800C01368AE
:10275000BEF1000F23F001031360936823F0604380
:1027600041EA0301916019D09368916845F6004EE3
:10277000490FC0F6000E45F608451EF80140C0F6A8
:102780000005695CC3F34263E400B4FBF1F11EF899
:102790000340EB5CE500B5FBF3F301E0012101230D
:1027A000A0F86A102021A0F86830C2F800C0C0F874
:1027B0008810002180F884100020B0BD10B5D0B181
:1027C0000446D0F8880028B9002084F88400204608
:1027D00000F026F82420C4F888002068A16A026866
:1027E00022F00102026011B1204602F053FD2046A2
:1027F00002F07AFE10B1012010BD00BF21684868C8
:1028000020F490404860886820F02A0088600868BA
:1028100040F0010220460A60BDE8104002F0AEBD63
:10282000B0B598B0044602A8002508303C211795A1
:10283000CDE91555CDE91355FDF722FD206843F686
:102840000001C4F20101884202D018B0B0BD00BF3F
:102850000120CDE9020502A8FEF758FB002818BFA9
:10286000FDF754FD41F24C00C4F20200416941F40D
:1028700080414161416901F4804101910199016800
:1028800041F001010160006813A900F0010001900E
:1028900001984FF4C0601390022014900020CDE9FD
:1028A0001500072017904FF09040FEF709F918B077
:1028B000B0BD0000FEE7000040F21841C4F6000180
:1028C0000A6942F400720A610A6942F480720A617C
:1028D0000A6842F020020A602022C1F8FC230A693B
:1028E00042F020020A6100BF00BF00BF0A6842F048
:1028F00020020A600A6842F480720A600022C1F86D
:10290000FC230B6943F020030B6100BF00BF00BF35
:102910000B6843F020030B600B6843F480730B607B
:102920000B6943F400730B610B6943F480730B6113
:102930000B6843F020030B602123C1F8FC330B69C3
:1029400043F020030B6100BF00BF00BF0B6843F0E2
:1029500020030B600B6843F480730B60C1F8FC2309
:102960000A6942F020020A6100BF00BF00BF0A6886
:1029700042F020020A600A6842F480720A600A6922
:1029800042F400720A610A6942F480720A610A68BC
:1029900042F020020A602222C1F8FC230A6942F0B8
:1029A00020020A6100BF00BF00BF0A6842F0200297
:1029B0000A600A6842F480720A6000BF00BF00BF6C
:1029C0000A6842F400720A604FF496320B69053AC5
:1029D00043F400730B610B6843F480730B600B6866
:1029E00043F020030B60C1F8FC030B6943F02003A4
:1029F0000B6100BF00BF00BF0B6843F020030B60FA
:102A00000B6843F480730B6000BF00BF00BF0B680E
:102A100043F400730B600B6943F400730B610B68A4
:102A200043F480730B600B6843F020030B60C1F824
:102A3000FC030B6943F020030B6100BF00BF00BF24
:102A40000B6843F020030B600B6843F480730B604A
:102A500000BF00BF00BF0B6843F400730B600B693D
:102A600043F400730B610B6843F480730B600B68D5
:102A700043F020030B60C1F8FC030B6943F0200313
:102A80000B6100BF00BF00BF0B6843F020030B6069
:102A90000B6843F480730B6000BF00BF00BF0B687E
:102AA00043F400730B600B6943F400730B610B6814
:102AB00043F480730B600B6843F020030B60C1F894
:102AC000FC030B6943F020030B6100BF00BF00BF94
:102AD0000B6843F020030B600B6843F480730B60BA
:102AE00000BF00BF00BF0B6843F400730B600B69AD
:102AF00043F400730B610B6843F480730B600B6845
:102B000043F020030B60C1F8FC030B6943F0200382
:102B10000B6100BF00BF00BF0B6843F020030B60D8
:102B20000B6843F480730B6000BF00BF00BF0B68ED
:102B300043F400730B607FF449AF70472DE9F04F09
:102B40008BB0002641F24C000596CDE90366CDE935
:102B50000166C4F20200016840F2184541F0040128
:102B600001600168C4F6000501F0040106910699B0
:102B7000016801AC41F001010160016840F61409EF
:102B800001F001010691069901684FF0030841F038
:102B9000020101600068214600F0020006900698DC
:102BA0004FF44870019001200290A5F11800C4F67E
:102BB00000090127CDE90368FDF782FF4FF480701B
:102BC000CDE901074FF090402146CDE90368FDF7BC
:102BD00077FF4FF6FF7005F57A74069006A9204638
:102BE0000A964FF6FF7BCDF82480CDE90776FDF7F6
:102BF00067FF4FF6004ACFF6FF7A55F80A0006A99C
:102C000040F4807045F80A0028684FF6FF7740F4DA
:102C100008702860286940F400702861286940F431
:102C200080702861286840F020002860C9F80060A2
:102C3000286940F02000286100BF00BF00BF28685D
:102C400040F020002860286840F48070286020460A
:102C50000A96CDF818B0CDF82480CDE90766FDF7C7
:102C60002FFF4FF6104BCFF6FF7B55F80B0007A94F
:102C700040F4807045F80B0000BF00BF00BFD5F8DE
:102C8000F89355F80A0040F4807045F80A000120D6
:102C900081E8410106A920460A960697FDF710FF34
:102CA000286848F2302140F40070286040F2160095
:102CB000C2F20000A0F800900088884202D100F023
:102CC00033FA01E000F0A4FF2869002740F4007007
:102CD000286128694FF6FF7840F4807028612868E1
:102CE0004FF0030940F02000286040F61400C4F6BD
:102CF00000000760286906A940F02000286100BF95
:102D000000BF00BF286840F020002860286840F419
:102D10008070286020460A97CDE90687CDE90879BA
:102D2000FDF7CEFE55F80B0007A940F4807045F87A
:102D30000B0000BF00BF00BFD5F8F86355F80A00CC
:102D400040F4807045F80A00012081E8810206A95C
:102D500020460A97CDF81880FDF7B2FE286840F4A7
:102D60000070286040F21600C2F2000006800BB02E
:102D7000BDE8F08F81B0ADF80200BDF8020040F26E
:102D80000801C2F20001088001B0704781B0ADF8BF
:102D90000200BDF8020040F21401C2F200010880F6
:102DA00001B0704710B58CB040F21800C2F20000BC
:102DB0004FF0A04100244FF40032042380E81600B5
:102DC0000121CDE90A44CDE90744CDE90544CDE927
:102DD0000344CDE90144C0E90344C0E905438483C9
:102DE000016280F82440C0E90B4480F83840C46395
:102DF00080F84040FDF7BAFC002818BFFDF786FABE
:102E000040F21800C2F2000009A90994FDF780FA07
:102E1000002818BFFDF77AFA40F60000C2F63060CD
:102E2000019006207F21029000200491042103904C
:102E3000CDE9051040F21800C2F2000001A9FDF72B
:102E4000C7FA002818BFFDF761FA0CB010BD0000EA
:102E5000B0B588B040F2840040F20011C2F2000028
:102E6000C5F2000100244FF40032042580E816006A
:102E70000121CDE90644C0E90344C0E90545848346
:102E8000016280F82440C0E90B4480F83840C463F4
:102E900080F84040FDF76AFC002818BFFDF736FABD
:102EA00048F20000C3F6F06000900620CDE901046E
:102EB0007F20CDE9030540F28400C2F2000069469C
:102EC0000594FDF785FA002818BFFDF71FFA08B032
:102ED000B0BD00002DE9F04186B0002641F24C0063
:102EE0000596CDE90366CDE90166C4F202000168EA
:102EF00040F6004441F0200101600168C4F600047E
:102F000001F02001009100990168002241F00101C7
:102F1000016001684FF0040801F00101009100997F
:102F2000016841F002010160016801F002010091B5
:102F30000099016841F0080101600068042100F077
:102F40000800009000982046FDF794FE01AD01278F
:102F50004FF090402946CDE901760396FDF7B0FD8C
:102F60000720CDE90106A4F5006029460396FDF788
:102F7000A7FD20462946CDE90187CDE90366FDF787
:102F80009FFD06B0BDE8F08110B594B040F2F000AE
:102F90000021C2F200004FF080424F234FF6FF7431
:102FA0000D91CDE90B11CDE90811CDE90611CDE95F
:102FB0000411CDE90211CDE90011C0E90023C0E9F7
:102FC000021401618161FEF7A7FD002818BFFDF71B
:102FD0009DF94FF480500A9040F2F000C2F20000D8
:102FE0000AA9FEF7EBFD002818BFFDF78FF940F2A4
:102FF000F000C2F20000FFF7B1F9002818BFFDF79A
:1030000085F940F2F0000024C2F2000007A90794FD
:103010000994FEF72BFD002818BFFDF777F9602013
:1030200000904FF4FA70CDE90104049440F2F004EA
:10303000C2F20004694620460422FEF7ABFF0028D6
:1030400018BFFDF763F921680020B1F1804F13909C
:10305000CDE9110010900F9002D014B010BD00BF48
:1030600041F24C01C4F202010A6842F001020A6016
:10307000096801F001010E910E990221CDE91100BC
:103080000120CDE90F1113900FA94FF09040FDF7EB
:1030900017FD14B010BD000080B540F23C1043F69F
:1030A0000001C2F20000C4F2010100234FF00C0C39
:1030B0004FF4165280E80E00C0E90333C0E905C39F
:1030C000C0E90733C0E90933FFF778FB002818BFD0
:1030D000FDF71CF940F23C10C2F200000021FFF79E
:1030E00027FB002818BFFDF711F940F23C10C2F28F
:1030F00000000021FFF7D6FA002818BFFDF706F9F7
:1031000040F23C10C2F20000FFF7B0FA002808BFFE
:1031100080BDBDE88040FDF7F9B80000FEE7000083
:10312000704700007047000040F21840C4F60000ED
:103130000169002241F40071016101694FF0030C43
:1031400041F480710161016841F020010160C0F823
:10315000FC23016941F02001016100BF00BF00BFF5
:10316000016841F020010160016841F48071016053
:103170000121C0F8FC13036943F02003036100BF81
:1031800000BF00BF036843F020030360036843F4FB
:1031900080730360036943F400730361036943F4BC
:1031A00080730361036843F020030360C0F8FC13DD
:1031B000036943F02003036100BF00BF00BF036841
:1031C00043F020030360036843F480730360C0F896
:1031D000FC23026942F02002026100BF00BF00BF71
:1031E000026842F020020260026842F480720260CB
:1031F000026942F400720261026942F48072026163
:10320000026842F0200202601022C0F8FC2302692A
:1032100042F02002026100BF00BF00BF026842F01E
:1032200020020260026842F48072026041F29072F1
:10323000C0F8FC23026942F02002026100BF00BF17
:1032400000BF026842F020020260026842F480720D
:103250000260026942F400720261026942F4807203
:103260000261026842F0200202606022C0F8FC2382
:10327000026942F02002026100BF00BF00BF026885
:1032800042F020020260026842F4807202604FF451
:103290001C52C0F8FC23026942F02002026100BF08
:1032A00000BF00BF026842F020020260026842F4E0
:1032B00080720260026942F400720261026942F4A3
:1032C00080720261026842F0200202606122C0F84E
:1032D000FC23026942F02002026100BF00BF00BF70
:1032E000026842F020020260026842F480720260CA
:1032F000C0F8FC13016941F02001016100BF00BF6B
:1033000000BF016841F020010160016841F4807153
:103310000160016941F400710161016941F480714A
:103320000161016841F0200101604621C0F8FC13F1
:10333000016941F02001016100BF00BF00BF0168C9
:1033400041F020010160016841F4807101600221B7
:10335000C0F8FC13026942F02002026100BF00BF06
:1033600000BF026842F020020260026842F48072EC
:103370000260026942F400720261026942F48072E2
:103380000261026842F0200202601322C0F8FC23AE
:10339000026942F02002026100BF00BF00BF026864
:1033A00042F020020260026842F48072026048F239
:1033B0001002C0F8FC23026942F02002026100BF43
:1033C00000BF00BF026842F020020260026842F4BF
:1033D00080720260026942F400720261026942F482
:1033E00080720261026842F0200202601222C0F87C
:1033F000FC23026942F02002026100BF00BF00BF4F
:10340000026842F020020260026842F480720260A8
:1034100048F2FE02C0F8FC23026942F02002026179
:1034200000BF00BF00BF026842F0200202600268D5
:1034300042F480720260026942F400720261026921
:1034400042F480720261026842F020020260C0F819
:10345000FC13016941F02001016100BF00BF00BF02
:10346000016841F020010160016841F48071016050
:103470004FF4A061C0F8FC13016941F02001016123
:1034800000BF00BF00BF016841F02001016001687A
:1034900041F480710160016941F4007101610169C9
:1034A00041F480710161016841F020010160C0F8C0
:1034B000FCC3026942F02002026100BF00BF00BFEE
:1034C000026842F020020260026842F480720260E8
:1034D00041F23002C0F8FC23026942F0200202618E
:1034E00000BF00BF00BF026842F020020260026815
:1034F00042F480720260026942F400720261026961
:1035000042F480720261026842F0200202603022BE
:10351000C0F8FC23026942F02002026100BF00BF34
:1035200000BF026842F020020260026842F480722A
:10353000026040F20332C0F8FC23036943F0200329
:10354000036100BF00BF00BF036843F020030360B6
:10355000036843F480730360036943F400730361F9
:10356000036943F480730361036843F0200303603D
:103570003123C0F8FC33036943F02003036100BF2B
:1035800000BF00BF036843F020030360036843F4F7
:1035900080730360C0F8FC23036943F020030361D8
:1035A00000BF00BF00BF036843F02003036003684F
:1035B00043F480730360036943F400730361036998
:1035C00043F480730361036843F0200303603223F4
:1035D000C0F8FC33036943F02003036100BF00BF60
:1035E00000BF036843F020030360036843F4807363
:1035F0000360C0F8FC23036943F02003036100BFAC
:1036000000BF00BF036843F020030360036843F476
:1036100080730360036943F400730361036943F437
:1036200080730361036843F0200303603323C0F811
:10363000FC33036943F02003036100BF00BF00BFF8
:10364000036843F020030360036843F4807303605E
:103650004FF44073C0F8FC33016941F0200101616F
:1036600000BF00BF00BF016841F020010160016898
:1036700041F480710160016941F4007101610169E7
:1036800041F480710161016841F020010160342141
:10369000C0F8FC13016941F02001016100BF00BFC7
:1036A00000BF016841F020010160016841F48071B0
:1036B0000160C0F8FCC3016941F02001016100BF55
:1036C00000BF00BF016841F020010160016841F4C2
:1036D00080710160016941F400710161016941F487
:1036E00080710161016841F0200101603521C0F85D
:1036F000FC13016941F02001016100BF00BF00BF60
:10370000016841F020010160016841F480710160AD
:10371000C0F8FC23016941F02001016100BF00BF36
:1037200000BF016841F020010160016841F480712F
:103730000160016941F400710161016941F4807126
:103740000161016841F0200101603621C0F8FC13DD
:10375000016941F02001016100BF00BF00BF0168A5
:1037600041F020010160016841F480710160142181
:10377000C0F8FC13016941F02001016100BF00BFE6
:1037800000BF016841F020010160016841F48071CF
:103790000160016941F400710161016941F48071C6
:1037A0000161016841F0200101603721C0F8FC137C
:1037B000016941F02001016100BF00BF00BF016845
:1037C00041F020010160016841F480710160C0F89E
:1037D000FC23016941F02001016100BF00BF00BF6F
:1037E000016841F020010160016841F480710160CD
:1037F000016941F400710161016941F48071016165
:10380000016841F0200101603821C0F8FC13016912
:1038100041F02001016100BF00BF00BF016841F01D
:1038200020010160016841F480710160C0F8FC234F
:10383000016941F02001016100BF00BF00BF0168C4
:1038400041F020010160016841F48071016001696B
:1038500041F400710161016941F480710161016805
:1038600041F0200101603921C0F8FC13016941F0E9
:103870002001016100BF00BF00BF016841F02001CD
:103880000160016841F480710160C0F8FC230169A6
:1038900041F02001016100BF00BF00BF016841F09D
:1038A00020010160016841F480710160016941F407
:1038B00000710161016941F480710161016841F0A9
:1038C000200101603A21C0F8FC13016941F0200198
:1038D000016100BF00BF00BF016841F0200101602D
:1038E000016841F480710160C0F8FC33016941F066
:1038F0002001016100BF00BF00BF016841F020014D
:103900000160016841F480710160016941F4007156
:103910000161016941F480710161016841F0200198
:1039200001603B21C0F8FC13016941F020010161F5
:1039300000BF00BF00BF016841F0200101600168C5
:1039400041F480710160C0F8FCC3016941F02001BD
:10395000016100BF00BF00BF016841F020010160AC
:10396000016841F480710160016941F400710161F5
:10397000016941F480710161016841F02001016039
:103980003C21C0F8FC13016941F02001016100BF36
:1039900000BF00BF016841F020010160016841F4EF
:1039A00080710160C0F8FC23016941F020010161D0
:1039B00000BF00BF00BF016841F020010160016845
:1039C00041F480710160016941F400710161016994
:1039D00041F480710161016841F0200101603D21E5
:1039E000C0F8FC13016941F02001016100BF00BF74
:1039F00000BF016841F020010160016841F480715D
:103A000001604FF4A051C0F8FC13016941F020019E
:103A1000016100BF00BF00BF016841F020010160EB
:103A2000016841F480710160016941F40071016134
:103A3000016941F480710161016841F02001016078
:103A40009221C0F8FC13016941F02001016100BF1F
:103A500000BF00BF016841F020010160016841F42E
:103A6000807101604FF40071C0F8FC13016941F0EE
:103A70002001016100BF00BF00BF016841F02001CB
:103A80000160016841F480710160016941F40071D5
:103A90000161016941F480710161016841F0200117
:103AA00001609321C0F8FC13016941F0200101611C
:103AB00000BF00BF00BF016841F020010160016844
:103AC00041F480710160C0F8FC23016941F02001DC
:103AD000016100BF00BF00BF016841F0200101602B
:103AE000016841F480710160016941F40071016174
:103AF000016941F480710161016841F020010160B8
:103B00009021C0F8FC13016941F02001016100BF60
:103B100000BF00BF016841F020010160016841F46D
:103B20008071016040F60D01C0F8FC13016941F09D
:103B30002001016100BF00BF00BF016841F020010A
:103B40000160016841F480710160016941F4007114
:103B50000161016941F480710161016841F0200156
:103B60000160C0F8FCC3016941F02001016100BFA0
:103B700000BF00BF016841F020010160016841F40D
:103B80008071016041F21801C0F8FC13016941F035
:103B90002001016100BF00BF00BF016841F02001AA
:103BA0000160016841F480710160016941F40071B4
:103BB0000161016941F480710161016841F02001F6
:103BC00001600721C0F8FC13016941F02001016187
:103BD00000BF00BF00BF016841F020010160016823
:103BE00041F48071016040F27311C0F8FC13016967
:103BF00041F02001016100BF00BF00BF016841F03A
:103C000020010160016841F480710160704700008B
:103C10002DE9F04F81B040F21844C4F60004206949
:103C20004FF0120940F4007020612069002540F433
:103C3000807020612068112640F020002060E32081
:103C4000C4F8FC0320694FF0130B40F02000206102
:103C500000BF00BF00BF2068102740F02000206098
:103C600020684FF0070840F48070206043F208009D
:103C7000C4F8FC03206940F02000206100BF00BFB1
:103C800000BF206840F020002060206840F4807071
:103C90002060206940F400702061206940F4807049
:103CA0002061206840F020002060E720C4F8FC0379
:103CB000206940F02000206100BF00BF00BF2068E5
:103CC00040F020002060206840F480702060C4F83C
:103CD000FC93206940F02000206100BF00BF00BFBE
:103CE000206840F020002060206840F48070206050
:103CF000206940F400702061206940F480702061E8
:103D0000206840F020002060EF20C4F8FC03206908
:103D100040F02000206100BF00BF00BF206840F0DD
:103D200020002060206840F48070206041F2312043
:103D3000C4F8FC03206940F02000206100BF00BFF0
:103D400000BF206840F020002060206840F48070B0
:103D50002060206940F400702061206940F4807088
:103D60002061206840F0200020600120C4F8FC039E
:103D7000206940F02000206100BF00BF00BF206824
:103D800040F020002060206840F480702060C4F87B
:103D9000FC53206940F02000206100BF00BF00BF3D
:103DA000206840F020002060206840F4807020608F
:103DB000206940F400702061206940F48070206127
:103DC000206840F0200020600220C4F8FC03206935
:103DD00040F02000206100BF00BF00BF206840F01D
:103DE00020002060206840F4807020604FF4E06084
:103DF000C4F8FC03206940F02000206100BF00BF30
:103E000000BF206840F020002060206840F48070EF
:103E10002060206940F400702061206940F48070C7
:103E20002061206840F0200020600320C4F8FC03DB
:103E3000206940F02000206100BF00BF00BF206863
:103E400040F020002060206840F48070206041F243
:103E50003000C4F8FC03206940F02000206100BF5E
:103E600000BF00BF206840F020002060206840F4C0
:103E700080702060206940F400702061206940F467
:103E800080702061206840F0200020600420C4F889
:103E9000FC03206940F02000206100BF00BF00BF8C
:103EA000206840F020002060206840F4807020608E
:103EB000C4F8FC53206940F02000206100BF00BF1F
:103EC00000BF206840F020002060206840F480702F
:103ED0002060206940F400702061206940F4807007
:103EE0002061206840F0200020600820C4F8FC0316
:103EF000206940F02000206100BF00BF00BF2068A3
:103F000040F020002060206840F48070206040F283
:103F10000720C4F8FC03206940F02000206100BFA6
:103F200000BF00BF206840F020002060206840F4FF
:103F300080702060206940F400702061206940F4A6
:103F400080702061206840F0200020600920C4F8C3
:103F5000FC03206940F02000206100BF00BF00BFCB
:103F6000206840F020002060206840F480702060CD
:103F7000C4F8FC53206940F02000206100BF00BF5E
:103F800000BF206840F020002060206840F480706E
:103F90002060206940F400702061206940F4807046
:103FA0002061206840F0200020600A20C4F8FC0353
:103FB000206940F02000206100BF00BF00BF2068E2
:103FC00040F020002060206840F480702060C4F839
:103FD000FC53206940F02000206100BF00BF00BFFB
:103FE000206840F020002060206840F4807020604D
:103FF000206940F400702061206940F480702061E5
:10400000206840F0200020600C20C4F8FC032069E8
:1040100040F02000206100BF00BF00BF206840F0DA
:1040200020002060206840F480702060C4F8FC53B9
:10403000206940F02000206100BF00BF00BF206861
:1040400040F020002060206840F4807020602069EB
:1040500040F400702061206940F480702061206885
:1040600040F0200020600D20C4F8FC03206940F0DF
:104070002000206100BF00BF00BF206840F020008A
:104080002060206840F480702060C4F8FC532069F0
:1040900040F02000206100BF00BF00BF206840F05A
:1040A00020002060206840F480702060206940F487
:1040B00000702061206940F480702061206840F029
:1040C000200020600F20C4F8FC03206940F020008D
:1040D000206100BF00BF00BF206840F020002060CA
:1040E000206840F480702060C4F8FC53206940F0E0
:1040F0002000206100BF00BF00BF206840F020000A
:104100002060206840F480702060206940F40070D6
:104110002061206940F480702061206840F0200018
:1041200020601020C4F8FC03206940F020002061CA
:1041300000BF00BF00BF206840F020002060206862
:1041400040F480702060C4F8FC53206940F02000E7
:10415000206100BF00BF00BF206840F02000206049
:10416000206840F480702060206940F40070206175
:10417000206940F480702061206840F020002060B9
:10418000C4F8FC63206940F02000206100BF00BF3C
:1041900000BF206840F020002060206840F480705C
:1041A00020600720C4F8FC03206940F02000206153
:1041B00000BF00BF00BF206840F0200020602068E2
:1041C00040F480702060206940F400702061206914
:1041D00040F480702061206840F020002060C4F826
:1041E000FC93206940F02000206100BF00BF00BFA9
:1041F000206840F020002060206840F4807020603B
:10420000C4F8FC53206940F02000206100BF00BFCB
:1042100000BF206840F020002060206840F48070DB
:104220002060206940F400702061206940F48070B3
:104230002061206840F020002060C4F8FCB32069B1
:1042400040F02000206100BF00BF00BF206840F0A8
:1042500020002060206840F480702060C4F8FC5387
:10426000206940F02000206100BF00BF00BF20682F
:1042700040F020002060206840F480702060C8205A
:10428000FCF70AFC20694FF0320A40F4007020610C
:10429000206940F480702061206840F02000206098
:1042A000C4F8FC732069102740F02000206100BF93
:1042B00000BF00BF206840F020002060206840F46C
:1042C0008070206041F29060C4F8FC03206940F0E7
:1042D0002000206100BF00BF00BF206840F0200028
:1042E0002060206840F480702060206940F40070F5
:1042F0002061206940F480702061206840F0200037
:104300002060C4F8FC63206940F02000206100BFF9
:1043100000BF00BF206840F020002060206840F40B
:104320008070206040F22720C4F8FC03206940F030
:104330002000206100BF00BF00BF206840F02000C7
:104340002060206840F4807020603220FCF7A4FBDD
:10435000206940F400702061206940F48070206181
:10436000206840F020002060C4F8FC93206940F0F1
:104370002000206100BF00BF00BF206840F0200087
:104380002060206840F4807020601D20C4F8FC0389
:10439000206940F02000206100BF00BF00BF2068FE
:1043A00040F020002060206840F4807020603220BF
:1043B000FCF772FB206940F400702061206940F432
:1043C00080702061206840F020002060C4F8FCB3B9
:1043D000206940F02000206100BF00BF00BF2068BE
:1043E00040F020002060206840F4807020604FF48E
:1043F0000060C4F8FC03206940F02000206100BF89
:1044000000BF00BF206840F020002060206840F41A
:1044100080702060206940F400702061206940F4C1
:1044200080702061206840F0200020602920C4F8BE
:10443000FC03206940F02000206100BF00BF00BFE6
:10444000206840F020002060206840F480702060E8
:104450001420C4F8FC03206940F02000206100BF54
:1044600000BF00BF206840F020002060206840F4BA
:1044700080702060206940F400702061206940F461
:1044800080702061206840F0200020602B20C4F85C
:10449000FC03206940F02000206100BF00BF00BF86
:1044A000206840F020002060206840F48070206088
:1044B0000B20C4F8FC03206940F02000206100BFFD
:1044C00000BF00BF206840F020002060206840F45A
:1044D000807020603220FCF7DFFA2069032140F46D
:1044E000007020612069072240F4807020612068FC
:1044F00040F0200020602020C4F8FC03206940F038
:104500002000206100BF00BF00BF206840F02000F5
:104510002060206840F480702060C4F8FC5320695B
:1045200040F02000206100BF00BF00BF206840F0C5
:1045300020002060206840F480702060206940F4F2
:1045400000702061206940F480702061206840F094
:10455000200020602120C4F8FC03206940F02000E6
:10456000206100BF00BF00BF206840F02000206035
:10457000206840F480702060C4F8FC53206940F04B
:104580002000206100BF00BF00BF206840F0200075
:104590002060206840F480702060206940F4007042
:1045A0002061206940F480702061206840F0200084
:1045B00020603020C4F8FC03206940F02000206116
:1045C00000BF00BF00BF206840F0200020602068CE
:1045D00040F480702060C4F8FC83206940F0200023
:1045E000206100BF00BF00BF206840F020002060B5
:1045F000206840F480702060206940F400702061E1
:10460000206940F480702061206840F02000206024
:104610003120C4F8FC03206940F02000206100BF75
:1046200000BF00BF206840F020002060206840F4F8
:104630008070206040F20770C4F8FC03206940F0ED
:104640002000206100BF00BF00BF206840F02000B4
:104650002060206840F480702060206940F4007081
:104660002061206940F480702061206840F02000C3
:104670002060C4F8FCA3206940F02000206100BF46
:1046800000BF00BF206840F020002060206840F498
:10469000807020600620C4F8FC03206940F02000F0
:1046A000206100BF00BF00BF206840F020002060F4
:1046B000206840F480702060206940F40070206120
:1046C000206940F480702061206840F02000206064
:1046D0003520C4F8FC03206940F02000206100BFB1
:1046E00000BF00BF206840F020002060206840F438
:1046F0008070206040F20470C4F8FC03206940F030
:104700002000206100BF00BF00BF206840F02000F3
:104710002060206840F480702060206940F40070C0
:104720002061206940F480702061206840F0200002
:1047300020603620C4F8FC03206940F0200020618E
:1047400000BF00BF00BF206840F02000206020684C
:1047500040F48070206041F60470C4F8FC032069C6
:1047600040F02000206100BF00BF00BF206840F083
:1047700020002060206840F480702060206940F4B0
:1047800000702061206940F480702061206840F052
:10479000200020603720C4F8FC03206940F020008E
:1047A000206100BF00BF00BF206840F020002060F3
:1047B000206840F4807020600420C4F8FC03206965
:1047C00040F02000206100BF00BF00BF206840F023
:1047D00020002060206840F480702060206940F450
:1047E00000702061206940F480702061206840F0F2
:1047F000200020603820C4F8FC03206940F020002D
:10480000206100BF00BF00BF206840F02000206092
:10481000206840F480702060C4F8FC53206940F0A8
:104820002000206100BF00BF00BF206840F02000D2
:104830002060206840F480702060206940F400709F
:104840002061206940F480702061206840F02000E1
:1048500020603920C4F8FC03206940F0200020616A
:1048600000BF00BF00BF206840F02000206020682B
:1048700040F48070206040F20670C4F8FC032069A8
:1048800040F02000206100BF00BF00BF206840F062
:1048900020002060206840F480702060206940F48F
:1048A00000702061206940F480702061206840F031
:1048B000200020603C20C4F8FC03206940F0200068
:1048C000206100BF00BF00BF206840F020002060D2
:1048D000206840F48070206040F20170C4F8FC034E
:1048E000206940F02000206100BF00BF00BF2068A9
:1048F00040F020002060206840F480702060206933
:1049000040F400702061206940F4807020612068CC
:1049100040F0200020603D20C4F8FC03206940F0F6
:104920002000206100BF00BF00BF206840F02000D1
:104930002060206840F4807020600F20C4F8FC03E1
:10494000206940F02000206100BF00BF00BF206848
:1049500040F020002060206840F4807020602069D2
:1049600040F400702061206940F48070206120686C
:1049700040F0200020605020C4F8FC03206940F083
:104980002000206100BF00BF00BF206840F0200071
:104990002060206840F480702060C4F8FC532069D7
:1049A00040F02000206100BF00BF00BF206840F041
:1049B00020002060206840F480702060206940F46E
:1049C00000702061206940F480702061206840F010
:1049D000200020605120C4F8FC03206940F0200032
:1049E000206100BF00BF00BF206840F020002060B1
:1049F000206840F480702060EF20C4F8FC03206938
:104A000040F02000206100BF00BF00BF206840F0E0
:104A100020002060206840F480702060206940F40D
:104A200000702061206940F480702061206840F0AF
:104A3000200020605220C4F8FC03206940F02000D0
:104A4000206100BF00BF00BF206840F02000206050
:104A5000206840F480702060C4F8FC53206940F066
:104A60002000206100BF00BF00BF206840F0200090
:104A70002060206840F480702060206940F400705D
:104A80002061206940F480702061206840F020009F
:104A900020605320C4F8FC03206940F0200020610E
:104AA00000BF00BF00BF206840F0200020602068E9
:104AB00040F48070206040F23F10C4F8FC0320698D
:104AC00040F02000206100BF00BF00BF206840F020
:104AD00020002060206840F480702060206940F44D
:104AE00000702061206940F480702061206840F0EF
:104AF000200020606020C4F8FC03206940F0200002
:104B0000206100BF00BF00BF206840F0200020608F
:104B1000206840F4807020604FF41C50C4F8FC03FF
:104B2000206940F02000206100BF00BF00BF206866
:104B300040F020002060206840F4807020602069F0
:104B400040F400702061206940F48070206120688A
:104B500040F0200020606120C4F8FC03206940F090
:104B60002000206100BF00BF00BF206840F020008F
:104B70002060206840F4807020600120C4F8FC03AD
:104B8000206940F02000206100BF00BF00BF206806
:104B900040F020002060206840F480702060206990
:104BA00040F400702061206940F48070206120682A
:104BB00040F0200020606A20C4F8FC03206940F027
:104BC0002000206100BF00BF00BF206840F020002F
:104BD0002060206840F480702060C4F8FC53206995
:104BE00040F02000206100BF00BF00BF206840F0FF
:104BF00020002060206840F480702060206940F42C
:104C000000702061206940F480702061206840F0CD
:104C1000200020608020C4F8FC03206940F02000C0
:104C2000206100BF00BF00BF206840F0200020606E
:104C3000206840F480702060C4F8FC53206940F084
:104C40002000206100BF00BF00BF206840F02000AE
:104C50002060206840F480702060206940F400707B
:104C60002061206940F480702061206840F02000BD
:104C700020608120C4F8FC03206940F020002061FE
:104C800000BF00BF00BF206840F020002060206807
:104C900040F480702060C4F8FC53206940F020008C
:104CA000206100BF00BF00BF206840F020002060EE
:104CB000206840F480702060206940F4007020611A
:104CC000206940F480702061206840F0200020605E
:104CD0008220C4F8FC03206940F02000206100BF5E
:104CE00000BF00BF206840F020002060206840F432
:104CF00080702060C4F8FC53206940F020002061DF
:104D000000BF00BF00BF206840F020002060206886
:104D100040F480702060206940F4007020612069B8
:104D200040F480702061206840F0200020608320E3
:104D3000C4F8FC03206940F02000206100BF00BFE0
:104D400000BF206840F020002060206840F48070A0
:104D50002060C4F8FC53206940F02000206100BFAF
:104D600000BF00BF206840F020002060206840F4B1
:104D700080702060206940F400702061206940F458
:104D800080702061206840F0200020608420C4F8FA
:104D9000FC03206940F02000206100BF00BF00BF7D
:104DA000206840F020002060206840F4807020607F
:104DB000C4F8FC53206940F02000206100BF00BF10
:104DC00000BF206840F020002060206840F4807020
:104DD0002060206940F400702061206940F48070F8
:104DE0002061206840F0200020608520C4F8FC038A
:104DF000206940F02000206100BF00BF00BF206894
:104E000040F020002060206840F480702060C4F8EA
:104E1000FC53206940F02000206100BF00BF00BFAC
:104E2000206840F020002060206840F480702060FE
:104E3000206940F400702061206940F48070206196
:104E4000206840F0200020609020C4F8FC03206916
:104E500040F02000206100BF00BF00BF206840F08C
:104E600020002060206840F480702060C4F8FC734B
:104E7000206940F02000206100BF00BF00BF206813
:104E800040F020002060206840F48070206020699D
:104E900040F400702061206940F480702061206837
:104EA00040F0200020609220C4F8FC03206940F00C
:104EB0002000206100BF00BF00BF206840F020003C
:104EC0002060206840F480702060C4F8FC532069A2
:104ED00040F02000206100BF00BF00BF206840F00C
:104EE00020002060206840F480702060206940F439
:104EF00000702061206940F480702061206840F0DB
:104F0000200020609320C4F8FC03206940F02000BA
:104F1000206100BF00BF00BF206840F0200020607B
:104F2000206840F480702060C4F8FC13206940F0D1
:104F30002000206100BF00BF00BF206840F02000BB
:104F40002060206840F480702060206940F4007088
:104F50002061206940F480702061206840F02000CA
:104F600020609520C4F8FC03206940F020002061F7
:104F700000BF00BF00BF206840F020002060206814
:104F800040F4807020604FF48870C4F8FC032069FE
:104F900040F02000206100BF00BF00BF206840F04B
:104FA00020002060206840F480702060206940F478
:104FB00000702061206940F480702061206840F01A
:104FC000200020609720C4F8FC03206940F02000F6
:104FD000206100BF00BF00BF206840F020002060BB
:104FE000206840F480702060C4F8FC53206940F0D1
:104FF0002000206100BF00BF00BF206840F02000FB
:105000002060206840F480702060206940F40070C7
:105010002061206940F480702061206840F0200009
:1050200020609820C4F8FC03206940F02000206133
:1050300000BF00BF00BF206840F020002060206853
:1050400040F480702060C4F8FC53206940F02000D8
:10505000206100BF00BF00BF206840F0200020603A
:10506000206840F480702060206940F40070206166
:10507000206940F480702061206840F020002060AA
:10508000C4F8FC13206940F02000206100BF00BF7D
:1050900000BF206840F020002060206840F480704D
:1050A000206041F21800C4F8FC03206940F02000A1
:1050B000206100BF00BF00BF206840F020002060DA
:1050C000206840F480702060206940F40070206106
:1050D000206940F480702061206840F0200020604A
:1050E000C4F8FC23206940F02000206100BF00BF0D
:1050F00000BF206840F020002060206840F48070ED
:10510000206040F27310C4F8FC03206940F02000D6
:10511000206100BF00BF00BF206840F02000206079
:10512000206840F48070206001B0BDE8F08F00007E
:1051300070470000FBF7AABD4EF68850CEF2000083
:10514000016841F4700101604FF0006140F8801C7B
:105150007047000040F2F000C2F20000FCF732BEDF
:1051600040F2FF7C0268C4F2000C604524DD40F68A
:105170000003C4F20003984227D043F20043C4F274
:105180000103984221D042F60043C4F20103984241
:105190001BD043F2FF33C4F2010398421FDC604589
:1051A00030DCB0F1804F47D040F20043C4F200033E
:1051B000984241D044E000BFB0F1804F05D040F2AA
:1051C0000043C4F200039842E3D14B6822F070021E
:1051D0001A4343F2FF33C4F201039842DFDD44F285
:1051E000FF33C4F2010398421ADC43F20043C4F2D5
:1051F0000103984220D044F20003C4F20103984214
:105200001AD01DE040F60003C4F20003984213D008
:1052100042F60043C4F2010398420DD010E000BFF3
:1052200044F60003C4F20103984205D044F200435F
:10523000C4F20103984203D1CB6822F440721A43AE
:1052400080B54B6922F0800E8A6843EA0E03D1F8DC
:1052500000C00360C262A0F18042A2F596324FEA1C
:10526000B222072AC0F828C0BDE8804007D8012331
:1052700003FA02F212F0E50F1CBF09690163012174
:1052800041610169C90708BF7047016921F0010147
:1052900001617047816A0A070CD4CA0715D18A07D1
:1052A0001ED44A0727D4CA0630D48A0639D44A06FF
:1052B00042D457E00268D0F838C0536823F4004362
:1052C00043EA0C035360CA07E9D00268D0F82CC047
:1052D000536823F4003343EA0C0353608A07E0D594
:1052E0000268D0F830C0536823F4803343EA0C03DB
:1052F00053604A07D7D50268D0F834C0536823F406
:10530000802343EA0C035360CA06CED50268D0F866
:105310003CC0936823F4805343EA0C0393608A06ED
:10532000C5D50268D0F840C0936823F4005343EA1F
:105330000C0393604A0615D5D0F800C0436CDCF826
:105340000420B3F5801F22F4801242EA0302CCF855
:10535000042007D1DCF80420836C22F4C0021A4335
:10536000CCF80420090658BF70470168C06C4A6831
:1053700022F400221043486070470000B0B582B0AC
:1053800004460020C4F89000FBF77AFC216805462B
:105390000A68120737D56FF07E4C20464FF4001193
:1053A00000222B46CDF800C000F0EAF950B300BF50
:1053B000206850E8000F216820F0800041E80002DA
:1053C000DAB1206850E8000F216820F0800041E841
:1053D000000292B1206850E8000F216820F08000A0
:1053E00041E800024AB1206850E8000F216820F02F
:1053F000800041E80002002ADAD10320202188221F
:105400006BE000BF2168086840075DD56FF07E4CF7
:1054100020464FF4800100222B46CDF800C000F05A
:10542000AFF9002850D000BF206850E8000F216875
:1054300020F4907041E80002BAB3206850E8000FF1
:10544000216820F4907041E8000272B3206850E8AF
:10545000000F216820F4907041E800022AB3206810
:1054600050E8000F216820F4907041E80002002A03
:10547000DAD11AE0206850E8020F216820F001001C
:1054800041E80202DAB1206850E8020F216820F0FA
:10549000010041E8020292B1206850E8020F216841
:1054A00020F0010041E802024AB1206850E8020FF2
:1054B000216820F0010041E80202002ADAD103202D
:1054C00020218C2209E000BF2020C4F88800C4F805
:1054D0008C00002170220020E166A150002184F898
:1054E000841002B0B0BD000070B5054605F1080497
:1054F0001ECC0068194341EA0403EE69046846F6CD
:10550000F311CCF6FF71214019433143016041682A
:1055100048F2000C21F4405111434160AA69C4F2E1
:10552000000C60451CBF296A0A4381684FF2FF43A3
:10553000C1F2FF13194011438160C16AD5F824E01C
:1055400021F00F0141EA0E01C16244F6FF31C4F2BD
:10555000000188424FF0100314DD44F60041C4F20C
:105560000001884222D0604528D043F60001C4F2F1
:105570000101884238D141F28801C4F202010B686E
:105580007BA22DE044F20041C4F2000188421DD00C
:1055900044F60001C4F20001884225D141F288019D
:1055A000C4F2020109680B0916E000BF41F288014C
:1055B000C4F2020109688B090EE000BF41F28801C4
:1055C000C4F2020109688B0A06E000BF41F28801BB
:1055D000C4F2020109688B0845F6F032C0F60002F9
:1055E00003F0030152F82130604542F20040C0F25E
:1055F000F40015D0B6F5004F22D1082B4FF0010171
:1056000000F2AD80DFE803F0065C74AB64ABABABDB
:10561000720000BFFBF732FF002840F05D809AE087
:10562000082B4FF0010100F29A80DFE803F00598A3
:1056300025981B9898982300FBF720FFB0B98AE0C3
:10564000082B4FF0010100F28A80DFE803F0053DEE
:105650006F88498888886D00FBF710FF002842D1C9
:1056600079E000BFFBF736FF002874D0D5F824E0BE
:1056700002E000BF4FF4004045F6A631C0F600013D
:1056800031F81E106A68B0FBF1F002EB420188426B
:105690004FF0010163D31303984260D8010E00025A
:1056A00010EB520041F100010023FAF7B1FD4FF673
:1056B0000052A0F54071C0F20F02914249D34DE073
:1056C000FBF7F2FE40B946E0FBF7EEFE58B942E0C8
:1056D000FBF700FF00283ED0D5F824E008E000BF2B
:1056E000FBF7F8FEB8B3D5F824E01FE04FF4004014
:1056F00045F6A631C0F6000131F81E106A68B0FB0D
:10570000F1F0510801EB4000B0FBF2F04FF6EF7200
:10571000A0F11001914221D84FF6F0710140C0F381
:105720004200084415E000BF4FF4004045F6A631A2
:10573000C0F6000131F81E104FF6EF72B0FBF1F029
:10574000696800EB5100B0FBF1F0A0F1100191424B
:1057500004D82968C860002101E000BF01214FF092
:105760000110A866002208466A67AA6770BD00BFDC
:10577000010000000400000002000000080000001A
:105780002DE9F041804600681546C2690E46114079
:10579000891BB1FA81F149098D4223D1069C2CB3B2
:1057A000611C29D1C1693140891BB1FA81F14909D4
:1057B0008D4217D1C1693140891BB1FA81F1490984
:1057C0008D420FD1C1693140891BB1FA81F149097C
:1057D0008D4207D1C1693140891BB1FA81F1490974
:1057E0008D42DFD00020BDE8F08100BFFBF748FA12
:1057F0000320BDE8F08100BF1F4607E0C0693040CC
:10580000801BB0FA80F040098542EBD1FBF738FAF3
:10581000C01BA04200F2AE80D8F800000168490722
:10582000ECD5402EEAD0802EE8D0C169090700F1FE
:10583000A580C1690905E1D54FF400610162D8F87E
:10584000000050E8000FD8F8001020F4907041E8F4
:1058500000020AB3D8F8000050E8000FD8F8001092
:1058600020F4907041E80002B2B1D8F8000050E88E
:10587000000FD8F8001020F4907041E800025AB1EF
:10588000D8F8000050E8000FD8F8001020F490700D
:1058900041E80002002AD2D14FF6FE70CEF6FF702A
:1058A000D8F8001051E8021FD8F80020014042E863
:1058B0000213F3B1D8F8001051E8021FD8F8002005
:1058C000014042E80213A3B1D8F8001051E8021FCA
:1058D000D8F80020014042E8021353B1D8F8001074
:1058E00051E8021FD8F80020014042E80213002BC3
:1058F000D6D1D8F86C0001282CD1D8F8000050E897
:10590000000FD8F8001020F0100041E800020AB3A0
:10591000D8F8000050E8000FD8F8001020F0100070
:1059200041E80002B2B1D8F8000050E8000FD8F802
:10593000001020F0100041E800025AB1D8F8000031
:1059400050E8000FD8F8001020F0100041E80002E5
:10595000002AD2D120200021C8F88C00C8F86C1091
:10596000C8F87410C8F89000032088F88410BDE8C7
:10597000F08100BF0320BDE8F08100BF0821016273
:10598000D8F8000050E8000FD8F8001020F490700C
:1059900041E800020AB3D8F8000050E8000FD8F838
:1059A000001020F4907041E80002B2B1D8F8000075
:1059B00050E8000FD8F8001020F4907041E8000281
:1059C0005AB1D8F8000050E8000FD8F8001020F4C1
:1059D000907041E80002002AD2D14FF6FE70CEF658
:1059E000FF70D8F8001051E8021FD8F800200140DD
:1059F00042E80213F3B1D8F8001051E8021FD8F8BA
:105A00000020014042E80213A3B1D8F8001051E889
:105A1000021FD8F80020014042E8021353B1D8F821
:105A2000001051E8021FD8F80020014042E802139C
:105A3000002BD6D1D8F86C0001282CD1D8F8000062
:105A400050E8000FD8F8001020F0100041E80002E4
:105A50000AB3D8F8000050E8000FD8F8001020F082
:105A6000100041E80002B2B1D8F8000050E8000F81
:105A7000D8F8001020F0100041E800025AB1D8F820
:105A8000000050E8000FD8F8001020F0100041E8A6
:105A90000002002AD2D12020C8F88C000020082162
:105AA000C8F86C00C8F87400C8F8901088F8840032
:105AB0000120BDE8F0810000FEE7000094B02C2535
:105AC000C4F20005FBF7F0F800244FF40070CDE9B4
:105AD0000B44CDE90944CDE90744FBF785F94FF4C0
