:020000040800F2
:1000000050070020ED010008A54D000869390008DF
:10001000A14D000831030008CD8400080000000055
:10002000000000000000000000000000B56D0008A6
:100030004D03000800000000A94D0008B96D00083C
:10004000070200080702000807020008070200086C
:10005000070200080702000807020008070200085C
:10006000070200080702000807020008350300081D
:100070004103000807020008070200080702000801
:10008000070200080000000007020008070200083D
:10009000070200080702000807020008070200081C
:1000A000070200080702000807020008070200080C
:1000B00007020008D96D00080702000807020008BF
:1000C00007020008070200080702000807020008EC
:1000D00007020008C18400080702000807020008A0
:1000E00007020008070200080702000807020008CC
:1000F00007020008070200080702000800000000CD
:1001000000000000070200080000000007020008CD
:1001100007020008000000000702000807020008AC
:10012000070200080702000807020008070200088B
:10013000070200080000000000000000070200089D
:10014000070200080702000800000000000000008D
:10015000000000000000000000000000000000009F
:10016000000000000000000000000000070200087E
:10017000070200080000000000000000000000006E
:10018000000000000702000800000000000000005E
:10019000000000000000000000000000000000005F
:1001A000000000000000000007020008070200082D
:1001B000070200080702000807020008000000000C
:1001C000000000000702000800000000000000001E
:1001D0000702000807020008DFF80CD000F090F8D2
:1001E00000480047F1840008500700200648804777
:1001F00006480047FEE7FEE7FEE7FEE7FEE7FEE70C
:10020000FEE7FEE7FEE7FEE7BD6D0008D901000846
:100210002DE9F05F0546002092469B46884606463B
:10022000814640241BE0284641464746224600F0CE
:1002300057F853465A46C01A914110D311461846F2
:10024000224600F03EF82D1A67EB01084F46224681
:100250000120002100F035F817EB00094E41201E67
:10026000A4F10104DFDC484631462A464346BDE896
:10027000F09FD2B201E000F8012B491EFBD270477B
:100280000022F6E710B513460A4604461946FFF762
:10029000F0FF204610BD30B50B460146002020225D
:1002A000012409E021FA02F59D4205D303FA02F583
:1002B000491B04FA02F52844151EA2F10102F1DCE3
:1002C00030BD202A04DB203A00FA02F100207047FA
:1002D0009140C2F1200320FA03F319439040704784
:1002E000202A04DB203A21FA02F00021704721FA8B
:1002F00002F3D040C2F120029140084319467047F2
:100300001CB509480090094801900546009C06E08C
:10031000E06840F0010394E8070098471034AC42CD
:10032000F6D3FFF75DFF00004888000868880008E2
:10033000FEE7000040F21C10C2F2000000F046BCD4
:1003400040F27C10C2F2000000F040BC7047000098
:100350007047000090F85820012A04BF022070471F
:10036000B0B582B00022019200920368B3F1A04FB1
:1003700030D140F208344FF6006EC5F20004CFF6DB
:10038000FF7E54F80E209B681A43520722D4D1F8FE
:1003900000C02268BCF1000F22F4604328D04A68F4
:1003A00090F8385042EA45321A4322604FF6005224
:1003B000CFF6FF72A25854F80E301A43D20727D155
:1003C000226840F61F7389689A43114341EA0C0181
:1003D0001DE000BFC16D41F02001C1650121002277
:1003E00080F8582002B0BDE8B0400846704700BF12
:1003F0004FF600512360CFF6FF71615854F80E207C
:100400001143C90704D1216840F61F72914321604E
:100410000021E4E7F0B581B00022009290F8582066
:10042000012A03D10221084601B0F0BD012307686B
:1004300080F85830BB685B0734D4D1E900351F26FB
:10044000C5F3012407EB8404226B05F01F05AE40C1
:10045000C3F38463B243AB401A432263BA68BB68F8
:1004600002F0040203F00803D21840F0BC800A68CE
:1004700007F114030426C2F34064D1F808E006EA49
:10048000D25C53F82440C2F304550722AA40BEF1BF
:10049000004F24EA02040BD143F80C401A6842F0E2
:1004A00000430DE0C16D41F02001C165012178E1FB
:1004B0000EFA05F2224343F80C201A6822F000439A
:1004C0007B61D1E90435FC68042B5FD13A6E3A6E4A
:1004D0000B68C2F3846293FAA3F6C3F3846C6FF3E0
:1004E000DF43B6FA86F5002B2C464FF6FF7E08BF99
:1004F0006446A242C0F2070E0CD13A6E22F00042CE
:100500003A660A6802EA0E03C2F3846C92FAA2F217
:10051000B2FA82F57A6E7A6E002BC2F384622C46B0
:1005200008BF6446A2420CD17A6E22F000427A667D
:100530000A6802EA0E03C2F3846C92FAA2F2B2FADB
:1005400082F5BA6EBA6E002BC2F384622C4608BFE5
:100550006446A2420CD1BA6E22F00042BA660A6822
:1005600002EA0E03C2F3846C92FAA2F2B2FA82F5A6
:10057000FA6EFA6E002BC2F3846208BF6546AA4287
:1005800031D1FA6E22F00042FA662CE0062202EA2D
:10059000940205FA02FC0E6807F1600555F8234045
:1005A0004FF20002C0F2FF3206F0F846224046EA5F
:1005B0000C06324342F0004245F823200A698B6959
:1005C00055F8226026F08076334345F822300A69D8
:1005D0000B7F55F82260012B26F0007608BF06F14C
:1005E000007645F82260BA680D68D20750D1CA6813
:1005F000D7F8B0602B466FF3DF4326EA030C4FF6C3
:10060000FF7602F01804C0F20706E64000242E40F0
:10061000C4F27F0446EA0C06A242C7F8B06037D1A4
:1006200093B195FAA5F2B2FA82F2013202F01E03FA
:10063000092B02F01F0310D801229A4003EB430359
:1006400042EA035315E000BF012202EB956202F07B
:100650001E030A2B02F01F03EED3012200269A404C
:1006600003EB4303CFF6206606EB03531A4342F035
:100670000073C3F3406607EB86068A687569C3F3A7
:10068000045307249C40A5439A402A4372610D6895
:100690000021C8F208010D4200F0828040F2083CBF
:1006A000C5F2000CDCF800400021CCF221318D4273
:1006B00004F0E07E04D01021C9F2C0018D4241D186
:1006C000B7F1A04F4FF0000108BF14F4000268D149
:1006D000DCF8001042F6635221F0E07141EA0E01AD
:1006E00041F40001CCF8001040F21001C2F2000108
:1006F0000968C0F23E528909A1FB0212910901EB7F
:1007000041010C2202EB810100910099002947D0A0
:100710000099013900910099002941D000990139CF
:1007200000910099E1B30099013900910099B9B3A2
:10073000009901390091009900294FF00001E7D19B
:100740002FE000BF0021CCF252718D4210D1002168
:10075000B1EB1E6F0CD1ACF502718F4220D0DCF8EA
:10076000001021F0E07141EA0E0141F0807115E0C6
:10077000ACF502718F424FF0000112D00022CCF68E
:100780008432954208BF14F480020AD1DCF80010CC
:1007900021F0E07141EA0E0141F48001CCF8001033
:1007A0000021002280F85820084601B0F0BD00006A
:1007B000B0B582B000210028019155D0C16D39B982
:1007C000044600F009F920460021216684F85810FB
:1007D0000268916889004FF6C071C5F6FF7102D5B5
:1007E00093680B4093609368DB002ED4936801F10B
:1007F0008051194041F08051916040F21001C2F2E5
:100800000001096842F663538909C0F23E53A1FB17
:1008100003139909022303EB410101910199A1B14D
:10082000019901390191019979B101990139019138
:10083000019951B1019901390191019929B10199A8
:100840000139019101990029EAD19168C90011D4B7
:10085000C16D4FF0010E41F01001C165016E41F014
:100860000101016608E000BF4FF0010E704602B0C2
:10087000B0BD00BF4FF0000E9368C46D03F00403D9
:1008800004F010041B19C36D68D123F48173023383
:10089000C3659368DB071AD140F2083C4FF6005459
:1008A0004FF60063C5F2000CCFF6FF74CFF6FF736E
:1008B0005CF804405CF803302343DB0707D143684E
:1008C000DCF8004024F47C142343CCF80030437F50
:1008D000C46BD0E902C144EA4333194390F8243091
:1008E00041EA0C01012B41EA034306D1816A00244D
:1008F000CFF6FE7404EB41410B43C46A24B1016B93
:1009000004F4787421430B43D16844F20704CFF612
:10091000F07421401943D1601169436B21F04061AB
:10092000194311619168090743D490F83810037F87
:10093000490041EA8331D36844F20204A3431943D6
:10094000D160036914698BB144F480311161D2F82C
:10095000C01043F6FF74A1430B4310E043F01002B4
:100960004FF0010EC265704602B0B0BD24F4803174
:100970001161D2F8C01043F6FF7321EA0303C2F8F5
:10098000C03090F84010136901290FD140F2FD7179
:1009900023EA010CD0E91134D0E9131543EA0C0322
:1009A00023431943294341F0010301E023F00103EC
:1009B00013614169136B012923F00F0302D1016A0E
:1009C00001390B431363C26D012161F30102C2655A
:1009D000704602B0B0BD000010B598B004460020CB
:1009E0001790CDE91500CDE9130002A84421FFF7C7
:1009F00047FC206840F20011C5F20001884231D066
:100A0000B0F1A04F67D14FF4004002904FF000507A
:100A1000119002A800F0FCFB002818BFFFF798FC1B
:100A200040F23C01C2F200010A6841F24C00C4F2FB
:100A30000200531C0B6042B9016841F4005101608F
:100A4000016801F4005101910199016841F002012E
:100A50000160006800F00200019001984FF480509E
:100A60002DE000BF4FF4004002904FF00050119075
:100A700002A800F0CDFB002818BFFFF769FC40F288
:100A80003C01C2F200010A6841F24C00C4F20200CB
:100A9000531C0B6042B9016841F4005101600168C8
:100AA00001F4005101910199016841F002010160D6
:100AB000006800F00200019001984FF4004013908C
:100AC000032014900020159040F20040C4F600006E
:100AD00013A900F071F918B010BD0000014690F89C
:100AE0002500022828D180B50868D1E910CE8A6C8B
:100AF000036823F00E030360136823F4807313600C
:100B0000026822F0010202600EF01F00012202FAC8
:100B100000F0CCF80400D1E913205060486D30B1EA
:100B2000026822F480720260D1E91602426000205D
:100B3000BDE8804003E000BF0420C863012001221B
:100B400081F82520002281F82420704790F8251094
:100B5000022931D180B50168D0E910CE826C0B68D2
:100B600023F00E030B600B6823F001030B60116888
:100B700021F4807111600EF01F02012101FA02F2CE
:100B8000CCF80420D0E913325A60426D32B11368B8
:100B900023F480731360D0E91623536080F8251086
:100BA000826B002180F824100AB190470021BDE833
:100BB00080400846704700BF0421C1630121002224
:100BC00080F8251080F8242008467047B0B5D0E999
:100BD00010C30268DCF8001003F01F030424D2F8ED
:100BE00000E09C400C4218BF1EF0040520D10224F6
:100BF0009C400C4218BF1EF0020529D1D9400907BC
:100C000014D51EF0080108BFB0BD116821F00E0117
:100C10001160012101FA03F2CCF80420C16380F8CD
:100C20002510416B002280F8242069B9B0BD00BFB7
:100C30001168890603D4116821F004011160CCF811
:100C40000440016B0029F1D0BDE8B040084700BF67
:100C50001168890606D4116821F00A01116001218A
:100C600080F82510CCF80440C16A0022002980F8E1
:100C70002420E9D1DAE7000000284FF0010100F05C
:100C800085802DE9F04740F2000CC4F2020C0368A5
:100C90004FF6F8320CF5816ECBF6FD72734538BF16
:100CA00002F580624CF6CD441A44CCF6CC44A2FB4B
:100CB000042903F0FC02A2F10802A2FB04280CF5AF
:100CC00080646FF00305D0E902A607693CBF0024E9
:100CD000C4F2020405EA9905C0E91045022480F82F
:100CE00025401C6847F6F07224EA02023243466946
:100CF0003A4387693243C6693A43076A32433A4303
:100D000042EA0A021A600CF50262734538BF0CF51C
:100D10000062AB180CF50862C264C8F3041201FA51
:100D200002F540F68401BAF5804FC4F202018364F3
:100D3000056505D1002242601A600D6018E000BF11
:100D40004268D4B2013A032A4FF000021C600D60E1
:100D50000ED8631E01EB830747F87C2F03F01F02B8
:100D600001239340C1F8C030BC313A4602E000BFD5
:100D700000210023C0E9152100210122C365C163C0
:100D800080F8252080F82410BDE8F0470846704719
:100D9000B0B5044600F0F6F8054640F20400C2F291
:100DA00000004068611C18BF044400BF00F0EAF86E
:100DB000401BA042FAD3B0BD2DE9F04F83B00E68BE
:100DC000002E00F0CF8000F1200241F2004C009292
:100DD00000F13847C4F6000C06224FEAB7256045FB
:100DE00008BF0522052D38BF4FEAB722002500278E
:100DF0004FF0000801920AE00E6808F1010836FA87
:100E000008F207F1020705F1040500F0AB800122AA
:100E100002FA08FE16EA0E09EED0D1F804C0032249
:100E20000CF0030BABF1010602FA07F4012E6FEA96
:100E3000040A11D88468CE6804EA0A04BE40344328
:100E40008460446824EA0E06CCF3001404FA08F423
:100E50002643466006E000BFBBF1030F02D14FF00E
:100E6000030B21E0C6688C6806EA0A06BC402643EC
:100E7000BBF1020FC66017D16FF00302009B02EABC
:100E8000580605F01C020F2453F806C004FA02FEAF
:100E90000C692CEA0E0C04FA02F242EA0C029A5196
:100EA000D1F804C00CF0030B02680BFA07F302EA56
:100EB0000A021A431CF4403F02609DD041F26003D5
:100EC000C4F202031A6840F2004E42F001021A60B6
:100ED0001A68C4F2010E02F001020292029A28F08E
:100EE00003024FF6084C7244CFF6FF7C52F80C30E8
:100EF00005F00C060F24B440A343019C04FA06F647
:100F0000334342F80C30DEF808204B6842EA090609
:100F100040F20C4CDC0258BF22EA0906CEF8086009
:100F2000C4F2010CDCF800209C0242EA090658BF1A
:100F300022EA0906CCF80060DEF804209C0342EAAD
:100F4000090658BF22EA0906CEF80460DEF8002040
:100F5000DB0342EA090658BF22EA0906CEF8006020
:100F60004AE700BF03B0BDE8F08F00000069084009
:100F700018BF0120704700001823002A08BF28234B
:100F8000C150704740F24830C2F20000006870471C
:100F900040F2040040F24831C2F20000C2F2000107
:100FA00040680A68104408607047000080B503205C
:100FB00000F08CF8022000F009F800281CBF012086
:100FC00080BD00F02BF8002080BD0000B0B540F2DD
:100FD0000405C2F200056968F1B1044640F2100050
:100FE000C2F200004FF47A720068B2FBF1F1B0FB7C
:100FF000F1F000F09BFE01460F2C4FF001000AD8E3
:10100000002918BFB0BD4FF0FF302146002200F08C
:1010100031F800202C60B0BD0120B0BD82B041F29B
:101020005800C4F20200816841F0010181608168CA
:1010300001F0010101910199016841F080510160C5
:10104000006800F080500090009802B000F0D6B820
:10105000002848BF704700F01F01012202FA01F189
:101060001C2202EAD0004EF20012CEF200028150A1
:101070007047000010B54EF60C5CCEF2000CDCF8A8
:101080000030C3F3022E8EF00704042C28BF042482
:10109000BEF103034FF0FF3E0EFA04F438BF002305
:1010A000A14399400EFA03F39A43114300F00F0253
:1010B00000F160430901043A03F5644362440028E7
:1010C00048BF02F10C03197010BD00004EF60C5120
:1010D000CEF200010A684FF6FF031A4060F30A22BD
:1010E00042F0806040F0FD700860704747F21401E4
:1010F000C4F2000151F8142CB0F5007F3CD0002858
:1011000074D1C86E02F4C06220F48070B2F5806FB2
:10111000C8662FD151F8140C012262F34A2041F81D
:10112000140C40F21000C2F200000068322250435A
:101130004DF68362C4F21B32A0FB0202900C00BF8A
:101140000A68520511D5421C0FD00A6852050CD509
:1011500058B10A68520508D5012806D00A68520518
:1011600003D50228A0F10400EAD10868400544BF75
:101170000320704700207047C86E02F4C06240F43C
:101180008070B2F5806FC866F4D151F8140C01225A
:1011900062F34A2041F8140C40F21000C2F2000041
:1011A0000068322250434DF68362C4F21B32A0FB2A
:1011B0000202900C0A68520511D5421C0FD00A6831
:1011C00052050CD558B10A68520508D5012806D039
:1011D0000A68520503D50228A0F10400EAD1086884
:1011E000400544BF03207047C4E700BF022060F3FE
:1011F0004A2241F8142C00207047000047F20800F2
:10120000C4F20000016841F48041016070470000B1
:101210002DE9F04182B00446807841F2880600074B
:10122000C4F2020602D400202FE000BF56F8300CB2
:101230005FEAC0080BD456F8300C40F0805046F8F6
:10124000300C56F8300C00F080500190019847F2B5
:101250000007C4F20007386840F480703860FFF778
:1012600091FE05463868C00500F1D680FFF78AFE7A
:10127000401B0228F6D90320B8F1000F05D456F818
:10128000301C21F0805146F8301C2168CA0713D168
:101290008A0719D44A071FD40A0725D48A062BD4F3
:1012A0004A0631D40A0637D4CA053DD48A0543D448
:1012B0004A0549D457E000BF3268636822F0030250
:1012C0001A4332608A07E5D53268A36822F00C021F
:1012D0001A4332604A07DFD53268E36822F03002F1
:1012E0001A4332600A07D9D53268236922F0C00256
:1012F0001A4332608A06D3D53268636922F44062A9
:101300001A4332604A06CDD53268A36922F44052AE
:101310001A4332600A06C7D53268E36922F44042B4
:101320001A433260CA05C1D53268236A22F44032BA
:101330001A4332608A05BBD53268636A22F44022C0
:101340001A4332604A050ED53268A36A22F440126D
:101350001A43B3F5801F326005D156F87C2C42F455
:10136000801246F87C2C0A050ED53268E36A22F416
:1013700040021A43B3F5800F326005D156F87C2C39
:1013800042F4801246F87C2CCA040ED53268236BD6
:1013900022F040721A43B3F1807F326005D156F8D3
:1013A0007C2C42F4801246F87C2C8A040ED53268DC
:1013B000636B22F040621A43B3F1006F326005D1D3
:1013C00056F87C2C42F4801246F87C2C4A040ED548
:1013D0003268A36B22F040621A43B3F1006F3260AF
:1013E00005D156F87C2C42F4801246F87C2C090476
:1013F0000ED53168E26B21F040511143B2F1805FAC
:10140000316005D156F87C1C41F4803146F87C1CD3
:1014100002B0BDE8F08100BFB06810F4407010D099
:10142000216C88420BD0B068B16820F4407041F460
:101430008031B160B16821F48031B160B060C00723
:101440000CD1B068216C20F440700843B0600020DB
:10145000B8F1000F3FF519AF11E700BFFFF792FD9C
:10146000054641F2883700BFB0688007E9D4FFF72E
:1014700089FD401BB842F7D9FDE600002DE9F04791
:10148000002863D042F2000AC4F2020A0446DAF8E5
:1014900000000D4600F00F0081420CD9DAF8000080
:1014A00020F00F002843CAF80000DAF8000000F02E
:1014B0000F00A8424AD1216841F20808C807C4F2C7
:1014C000020803D1880740F1D080B5E0606858F881
:1014D000082C022838D003283CD1920136D5D8F800
:1014E0000420D8F8043042F20046C3F3031302F09C
:1014F0000302D8F804700133C0F2F406032A04BFD3
:1015000043F20066C0F26E16B6FBF3F2D8F8043070
:10151000C7F306277A43C3F34163022707EB43036C
:10152000B2FBF3F24BF20043C0F2C4439A4259D9E2
:10153000D8F8002012F0F00F49D0890752D5A168E1
:1015400000294FD143E000BF910305D40120BDE83D
:10155000F08700BF5105F9D5D8F8001001F00C0153
:1015600004293FD0D8F8001001F00C01082939D027
:10157000D8F8001001F00C010C2933D1D8F8041070
:10158000D8F8042042F20047C2F3031201F003012D
:10159000D8F804300132C0F2F407032904BF43F243
:1015A0000067C0F26E17B7FBF2F1D8F80420C3F35E
:1015B00006235943C2F34162022303EB4202B1FB0B
:1015C000F2F14BF20042C0F2C44291420AD9D8F87B
:1015D0000010082262F307114FF00109C8F800104B
:1015E00002E000BF4FF00009D8F8001021F003011D
:1015F0000843C8F80000FFF7C5FC064641F28837EB
:10160000D8F80000616800F00C00B0EB810F07D043
:10161000FFF7B8FC801BB842F2D90320BDE8F08781
:101620002168880708D4B9F1000F1ED0D8F800004F
:1016300020F0F00017E000BF480705D5D8F80000FB
:1016400040F4E060C8F80000080706D5D8F80000AC
:10165000072262F30D20C8F80000D8F80000A26845
:1016600020F0F0001043C8F80000DAF8000000F0A5
:101670000F0085421BD2DAF8000020F00F0028434B
:10168000CAF80000FFF77EFC064641F2883700BF2B
:10169000DAF8000000F00F00A84207D0FFF772FC54
:1016A000801BB842F4D90320BDE8F08721684807C1
:1016B00007D5D8F80000E26820F4E0601043C8F8CD
:1016C0000000080708D5D8F80000216920F4605010
:1016D00040EAC100C8F80000D8F8000042F200411A
:1016E000C0F2F40100F00C00042808462DD0D8F810
:1016F000000000F00C00082843F20060C0F26E10F9
:1017000023D0D8F8002002F00C020C2A1CD1D8F803
:101710000420D8F8043002F00302C3F30313D8F80E
:1017200004700133032A08BF0146B1FBF3F0D8F877
:101730000410C7F30627C1F341610222784302EB8C
:101740004101B0FBF1F000E00020D8F8001048F2B1
:10175000C872C1F30311C0F60002515C40F21002DE
:1017600001F01F0120FA01F140F20400C2F2000072
:101770000068C2F200021160BDE8F047FFF726BC26
:1017800040F2100041F20801C2F20000C4F202016E
:101790000068096848F2D872C1F30221C0F600025D
:1017A000515C01F01F01C8407047000040F210007A
:1017B00041F20801C2F20000C4F2020100680968A7
:1017C00048F2D872C1F3C221C0F60002515C01F0A8
:1017D0001F01C8407047000041F20C01C4F2020131
:1017E00051F8040C42F20042C0F2F40200F00C0086
:1017F0000428104608BF704751F8040C00F00C0094
:10180000082843F20060C0F26E1025D051F8043C65
:1018100003F00C030C2B1CBF0020704780B5D1F8DF
:1018200000C00B680CF0030CC3F3031E0B680EF131
:10183000010EBCF1030F08BF02460968B2FBFEF0BF
:10184000C3F30623C1F341610222584302EB410175
:10185000B0FBF1F0BDE8804070470000002804BFF5
:10186000012070472DE9F04182B00446007841F232
:101870000006C007C4F202061ED1207880073DD4BE
:101880002078000764D42078400700F18780207812
:10189000800600F1D980E569002D00F04282B06831
:1018A00000F00C000C2840F03181012D40F08E81B9
:1018B000012002B0BDE8F081B06800F00C01F068D2
:1018C000082961D0032281F00C0122EA00000844BB
:1018D000B0FA80F0400957D161683068B1F5803FB7
:1018E00007D0B1F5A02F40F0E38040F480203060B5
:1018F000306840F480303060E4E000BFB068F168E8
:1019000000F00C00042871D001F0030180F00C00FD
:1019100081F002010844B0FA80F0400966D1E16824
:101920003068002900F0E08040F480703060FFF7FC
:1019300029FB05463068400500F10A81FFF722FBCC
:10194000401B0228F6D9032002B0BDE8F08100BF99
:101950006169D6F89400002900F0948040F00100FD
:10196000C6F89400FFF70EFB054600BFD6F89400BA
:1019700080073FF588AFFFF705FB401B0228F5D92C
:10198000032002B0BDE8F081306880037FF575AFB9
:10199000606800287FF471AF3EE000BFB06D5FEA81
:1019A000C00808D4B06D40F08050B065B06D00F054
:1019B00080500190019847F20007C4F20007386890
:1019C000C0052DD4386840F480703860FFF7DAFA2B
:1019D000054600BF3868C00522D4FFF7D3FA401B84
:1019E0000228F7D9032002B0BDE8F0813068400535
:1019F00001D5E06880B17068216920F0FE4040EABE
:101A00000160706040F20400C2F200000068FFF75D
:101A1000DDFA00283FF434AF012002B0BDE8F081C8
:101A2000A168D6F89000012908D0052940F0AE80C1
:101A300040F00400C6F89000D6F8900040F0010095
:101A4000C6F89000AEE000BFA169D6F89800002962
:101A500000F0868040F00100C6F89800FFF792FA87
:101A6000054600BFD6F8980080073FF514AFFFF792
:101A700089FA401B02284FF00300F3D902B0BDE8F9
:101A8000F08100BF20F00100C6F89400FFF77AFA59
:101A9000054600BFD6F8940080077FF5F4AEFFF747
:101AA00071FA401B0228F5D9032002B0BDE8F0818D
:101AB00020F4803030603068002920F480203060CD
:101AC00000F0BE80FFF75EFA054600BF3068800375
:101AD0003FF5D3AEFFF756FA401B6428F6D9032032
:101AE00002B0BDE8F08100BF20F480703060FFF7E5
:101AF00049FA0546306840057FF5C2AEFFF742FA65
:101B0000401B02284FF00300F4D9B7E7306820F0FB
:101B100080703060FFF736FA022D05460CD100BF09
:101B20003068800140F1B880FFF72CFA401B022892
:101B30004FF00300F4D9A1E73068800140F1EA805A
:101B4000FFF720FA401B02284FF00300F4D995E775
:101B50007068216920F0FE4040EA016070608FE605
:101B600020F00100C6F89800FFF70CFA054600BF08
:101B7000D6F8980080077FF58EAEFFF703FA401B7A
:101B800002284FF00300F3D978E700BF20F00100EE
:101B9000C6F89000D6F89000002920F00400C6F89E
:101BA00090005DD0FFF7EEF9054641F2883700BF9F
:101BB000D6F89000800765D4FFF7E4F9401BB842DF
:101BC000F6D9032002B0BDE8F08100BFF068216AB9
:101BD00000F003028A427FF41FAF626A6FF00F03C6
:101BE00000F0F00103EB021291427FF415AFA16AFD
:101BF00000F4FE42B2EB012F7FF40EAFE16A00F079
:101C00007842B2EBC16F7FF407AF226B0023CFF6AF
:101C1000E07303EA025200F4C001A2F500129142FF
:101C20007FF4FAAE616B4FF07E4202EA016100F090
:101C3000C06001F17E4188427FF4EEAE71E000BFEA
:101C4000FFF7A0F9054600BF306880037FF515AEA9
:101C5000FFF798F9401B64284FF00300F4D90DE713
:101C6000FFF790F9054641F2883700BFD6F890009B
:101C7000800707D5FFF786F9401BB8424FF00300F5
:101C8000F4D9FBE6B8F1000F3FF501AEB06D20F0DE
:101C90008050B065FBE500BFF06848F20C01C0F26F
:101CA0009F1104F1200700EA010C8ECF6FF00F00A6
:101CB000D4E90C5400EB02100022CFF6E07241EAA6
:101CC0000C0102EA05520843A2F500124FF07E45CE
:101CD00040EA032005EA0465104305F17E4540EA29
:101CE000C7602843F060306840F080703060F06872
:101CF00040F08070F060FFF745F9044630688001DD
:101D00000FD4FFF73FF9001B02284FF00300F5D96D
:101D1000B4E600BFF0684FF6FC71CFF6EE61084004
:101D2000F060002002B0BDE8F0810000411E0020FC
:101D3000B0EB116F1CBF012070474EF21002CEF2C3
:101D4000000251604EF62351CEF20001F0230B70D9
:101D500007219060116070477047000070470000D5
:101D60007047000070470000704700007047000097
:101D700090F83C20012A4FF002024AD070B580F85A
:101D80003D20026843F2004C54689368C4F2010C91
:101D900042F6004E6245C4F2010E01D0724503D1F5
:101DA0004D6824F470042C434FF68F75CFF6FF5521
:101DB0000E682C4042F6FF35C4F201053443AA42B6
:101DC00054600FDCB2F1804F16D040F20046C4F2EE
:101DD0000006B24210D040F60006C4F20006B2423D
:101DE0000AD00EE0724507D044F20006C4F20106A4
:101DF000B24201D0624504D1896823F080031943BF
:101E000091600121002280F83D1080F83C20BDE85F
:101E1000704010467047000070470000002804BF63
:101E20000120704710B5044690F83D0028B9002005
:101E300084F83C00204600F023F8022084F83D009E
:101E40002068211D04F0CEFF012084F8480084F8AA
:101E50003E0084F83F0084F8400084F8410084F894
:101E6000420084F8430084F8440084F8450084F874
:101E7000460084F8470084F83D00002010BD0000B3
:101E800080B586B0006840F20042C4F20002002132
:101E90009042CDE90411CDE90211019112D0B0F1C7
:101EA000804F3CD141F25800C4F20200016841F079
:101EB00001010160006800F001000090009806B088
:101EC00080BD00BF41F25800C4F20200026842F037
:101ED00002020260026802F002020092009A50F8C8
:101EE0000C2C42F0010240F80C2C50F80C0C00F0C5
:101EF000010000900098802001900220CDE90201AD
:101F0000CDE9041001A94FF09040FEF755FF1D20C8
:101F100000210022FFF7AEF81D20FFF799F806B068
:101F200080BD000090F83D10012919D1022180F8F0
:101F30003D10016842F6FF30C4F20100814211DC1D
:101F4000B1F1804F20D040F20040C4F20000814245
:101F50001AD040F60000C4F20000814214D020E004
:101F60000120704742F60040C4F2010081420BD0CC
:101F700044F20000C4F20100814205D043F2004067
:101F8000C4F2010081420CD188680722C0F201022C
:101F90000240062A4FF00000E3D0B2F5803F08BFB0
:101FA0007047086840F0010008600020704700009A
:101FB00090F83C20012A4FF0020200F0AC8080B57E
:101FC00080F83D20D0F800C08822DCF80830CFF639
:101FD000CE721A40CCF808200B686F2B10DD1F2240
:101FE000C0F21002934237DCB3F5005F6EDA702B5B
:101FF00000F0B680B3F5805F00F08480D8E000BFC9
:102000002F2B35DD4F2B39DC302B6FD0402B40F0A0
:10201000CF80D1F804E0C968DCF82030DCF820205B
:1020200022F00102CCF82020DCF8182022F0F00287
:1020300042EA011123F00A0242EA0E02CCF818101B
:10204000CCF82020DCF808104FF68872CFF6CF725B
:102050001140473154E000BF3F21C0F210018B42D4
:102060003ADC2021C0F210018B423FD0302139E010
:10207000E3B3102B3AD0202B38D099E0502B4DD021
:10208000602B40F09580D1F804E0C968DCF820307E
:10209000DCF8202022F01002CCF82020DCF81820F8
:1020A00022F4704242EA013123F0A00242EA0E1209
:1020B000CCF81810CCF82020DCF808104FF6887205
:1020C000CFF6CF72114067311AE000BF5CD0B3F198
:1020D000101F0BD06CE000BF4021C0F210018B42FA
:1020E00004D07021C0F210018B4261D1DCF80810DD
:1020F0004FF68872CFF6CF721140194341F00701B5
:10210000CCF808100022012180F83D10002180F851
:102110003C10BDE880401046704700BFD1F804E095
:10212000C968DCF82030DCF8202022F00102CCF86D
:102130002020DCF8182022F0F00242EA011123F0FE
:102140000A0242EA0E02CCF81810CCF82020DCF883
:1021500008104FF68872CFF6CF7211405731CFE793
:10216000D1E901E3C968DCF8082043EA0E0322F450
:102170007F4243EA01211143CCF80810DCF8081033
:1021800041F07701BCE700BFD1E901E3C968DCF8A1
:10219000082043EA0E0322F47F4243EA012111435F
:1021A000CCF80810DCF8081041F48041A8E700BF23
:1021B0000122A8E7B0B50446007F40F218050228C6
:1021C000C2F2000517D140F22820C2F2000004211B
:1021D00000F0A4FD298A013000EE101A81B201EE50
:1021E000101AB8EE400AB8EE411A80EE010AE881F2
:1021F000207F85ED080A012818BFB0BD40F22820D5
:10220000C2F20000002100F089FD01302882B0BD3B
:1022100090F83C30012B04BF022070474FEAB20215
:10222000032A00F29180F0B5DFE802F002682A4A42
:102230000368D1E900C5D1F80CE01C6A1A6A42F6BD
:10224000FF3722F001021A621A4652F8186FC4F2E0
:102250000107BB4200F37E80B3F1804F00F08C8019
:1022600040F20047C4F20007BB4200F0858040F610
:102270000007C4F20007BB4200F07E8098E000BF78
:102280000768D1E900C5D1E902313C6A3A6A61F3D5
:10229000071522F480723A623A4652F81C6F26F013
:1022A000F30645EA060124F420660CF00A0546EA26
:1022B000052611603E62116821F00C0111606CE08E
:1022C0000368D1E900E6D1E902C11C6A1A6A360244
:1022D00022F480521A621A4652F81C5F4FF2FF072E
:1022E000BE4325F4734561F30F3624F420440EF009
:1022F0000A0746EA050144EA07371CE00368D1E90A
:1023000000E6D1E902C11C6A1A6A360222F0100204
:102310001A621A4652F8185F4FF2FF07BE4325F4BF
:10232000734561F30F3624F0A0040EF00A0746EA65
:10233000050144EA071711601F6211684FEA0C2378
:1023400021F44061116028E00121002280F83C2046
:102350000846704742F60047C4F20107BB420BD063
:1023600044F20007C4F20107BB4205D043F2004724
:10237000C4F20107BB421BD126F00306354324F00B
:102380000A070CF00A066EF3071537449D611F62B9
:102390009F6927F00C079F618B68116819431160D2
:1023A0000021BDE8F040002280F83C20084670473C
:1023B00046F00105E3E70000002804BF0120704754
:1023C00010B5044690F83D0028B9002084F83C0080
:1023D000204600F023F8022084F83D002068211DEB
:1023E00004F000FD012084F8480084F83E0084F8E1
:1023F0003F0084F8400084F8410084F8420084F8EB
:10240000430084F8440084F8450084F8460084F8CA
:10241000470084F83D00002010BD00007047000018
:1024200080B5E9B10A1F4FEAB20E43234FF03F0CCB
:10243000BEF1040F38BF0CEBB203C25C472308297E
:1024400008BF4623042908BF4523012A4FF0010293
:1024500010F803C008BFBCF1010F17D0104680BDB3
:1024600090F83E2090F84430012A4FF0010208BF56
:10247000012BF3D1022280F83E2080F844204FEA5D
:10248000B103032B4FF00102E8D838E0BEF1030F8F
:1024900028D8DFE80EF00315090F00BF022280F8EC
:1024A0003F20082911D122E0022280F8412008298A
:1024B0000BD11CE0022280F84220082905D116E049
:1024C000022280F84020082911D0042914BF80F886
:1024D000472080F845204FEAB103032B4FF001025B
:1024E000BCD80CE0022280F843200829EDD180F806
:1024F00046204FEAB103032B4FF00102AED848F259
:10250000F87C0068C0F6000C5CF823C0C36801F0DA
:102510001F0143EA0C03C360036A02FA01F123EAD4
:1025200001020262026A114342F6FF32C4F2010262
:102530009042016210DCB0F1804F1FD040F20041A8
:10254000C4F20001884219D040F60001C4F2000133
:10255000884213D020E000BF42F60041C4F20101DE
:1025600088420BD044F20001C4F20101884205D038
:1025700043F20041C4F2010188420DD18168072273
:10258000C0F20102114006294FF000023FF466AF8D
:10259000B1F5803F3FF462AF0168002241F00101D4
:1025A0000160104680BD0000F0B581B004460068AF
:1025B000C5680669B10717D515F0020114D06FF090
:1025C00002010161012121778069800704D0204642
:1025D000FFF7F0FD06E000BF204600F0CBF82046F4
:1025E00000F0E2FA00202077700719D515F00400FA
:1025F00016D020686FF00401016102212177806903
:1026000010F4407F04D02046FFF7D4FD06E000BF61
:10261000204600F0AFF8204600F0C6FA00202077F0
:10262000300717D515F0080014D020686FF00801A6
:10263000016104212177C069800703D02046FFF79C
:10264000B9FD05E0204600F095F8204600F0ACFA10
:1026500000202077F00619D515F0100016D020685C
:102660006FF01001016108212177C06910F4407FEB
:1026700004D02046FFF79EFD06E000BF204600F094
:1026800079F8204600F090FA00202077F00718BF74
:1026900015F0010006D020686FF0010101612046AD
:1026A00000F03AFB16F4025F05F0800718BF002F18
:1026B00002D1F00509D410E020686FF402510161E5
:1026C0002046FFF74BFBF00507D537B120686FF4C4
:1026D000807101612046FFF73FFB700609D515F0B8
:1026E000400006D020686FF040010161204600F0F4
:1026F0004DFBB00609D515F0200006D020686FF01C
:10270000200101612046FFF72BFBF00209D515F4EB
:10271000801006D020686FF4801101612046FFF719
:1027200023FBB00209D515F4001006D020686FF421
:10273000001101612046FFF715FB700209D515F461
:10274000800006D020686FF4800101612046FFF709
:102750000DFB30020CD515F4000009D021686FF490
:10276000000220460A6101B0BDE8F040FFF754BB0B
:1027700001B0F0BD7047000090F83C30012B04BF61
:10278000022070474FEAB202052A00F2D3812DE9F8
:10279000F041DFE812F0070035018D00E100510043
:1027A000870100BF03681D6A1A6AA3F1804622F000
:1027B00001021A621A465C6852F818CF8F68A6F5B3
:1027C0009636D1F800E025F002054FEAB626072E2E
:1027D00045EA07050AD80127B74017F0E50F1FBFE4
:1027E000CF6825F00C0527F004073D43072E0BD8D2
:1027F000012707FA06F616F0E50F1FBFD1E90567B6
:1028000024F4407434433C434FF68C76CFF6FE7686
:102810000CEA060747EA0E075C609F614F6809698A
:102820005F631D629F6947F008079F619F6927F0FA
:1028300004079F6173E100BF0368D3F820C01A6AE0
:10284000A3F1804722F480321A621A46A7F5963720
:102850005D6852F8508FD1F800E08E684FEAB727D4
:10286000072F09D80124BC4014F0E50F1EBF4C69A6
:1028700025F4803545EA04252CF4003747EA06475D
:102880004FF68C76CFF6FE76033606EA080646EA61
:102890000E065D601E654E6809699E641F621F6DAD
:1028A00047F008071F651F6D27F004071F6536E115
:1028B000036843F200461D6A1A6AC4F2010622F454
:1028C00080721A621A46D3F804C052F81CEFB34261
:1028D0008E68D1F8008025F4007545EA062505D0FC
:1028E00042F60046C4F20106B34207D1CE6840F278
:1028F000FF47360225F44065BE433543A3F18046C9
:10290000A6F596364FEAB626072E0CD8012707FA09
:1029100006F616F0E50F1FBFD1E905672CF4405409
:10292000374344EA071C4FF68C74CFF6FE740EEA68
:10293000040747EA0807C3F804C0DF614F68096964
:10294000DF631D62DF6947F00807DF61DF6927F099
:102950000407DF61E3E000BF036843F200461D6A3D
:102960001A6AC4F2010622F480521A621A46D3F897
:1029700004C052F81C8FB3428E68D1F800E025F4F1
:10298000005545EA063505D042F60046C4F2010678
:10299000B34207D1CE6844F6FF77360325F44045AD
:1029A000BE433543A3F18046A6F596364FEAB626D8
:1029B000072E0CD8012707FA06F616F0E50F1FBF01
:1029C000D1E905672CF44044374344EA871C48F6B4
:1029D000FF44CFF6FF6404EA080444EA0E27C3F874
:1029E00004C0DF614F6809691F641D62DF6947F435
:1029F0000067DF61DF6927F48067DF618EE000BF79
:102A0000036843F200461D6A1A6AC4F2010622F006
:102A100010021A621A465C6852F818CFB3428E68E8
:102A2000D1F800E025F0200545EA061505D042F66C
:102A30000046C4F20106B34207D1CE686FF04007EA
:102A400025F0C00507EA06163543A3F18046A6F532
:102A500096364FEAB626072E0CD8012707FA06F657
:102A600016F0E50F1FBFD1E9056724F440643E432B
:102A700044EA860448F6FF46CFF6FF660CEA0607EE
:102A800047EA0E275C609F614F6809699F631D627A
:102A90009F6947F400679F619F6927F480679F6182
:102AA0003CE000BF0368D3F820C01A6AA3F1804756
:102AB00022F480121A621A46A7F596375D6852F81A
:102AC000508FD1F800E08E684FEAB727072F09D85A
:102AD0000124BC4014F0E50F1EBF4C6925F480258D
:102AE00045EA84252CF4001747EA065748F6FF46C6
:102AF000CFF6FF6606F5407606EA080646EA0E2699
:102B00005D601E654E680969DE641F621F6D47F4D3
:102B100000671F651F6D27F480671F650902136832
:102B2000194311600021BDE8F041002280F83C20EB
:102B3000084670470121002280F83C200846704773
:102B4000002804BF0120704710B5044690F83D00EE
:102B500028B9002084F83C00204600F023F8022029
:102B600084F83D002068211D04F03CF9012084F820
:102B7000480084F83E0084F83F0084F8400084F860
:102B8000410084F8420084F8430084F8440084F84B
:102B9000450084F8460084F8470084F83D00002092
:102BA00010BD0000704700007047000080B5D9B12B
:102BB0000B1F4FEAB30E43224FF03F0CBEF1040F40
:102BC00038BF0CEBB302825C012A1CBF012080BD20
:102BD000BEF1030F1ED8DFE80EF00319111500BF78
:102BE000022280F83F2018E090F83E20012A1CBF06
:102BF000012080BD022280F83E200EE0022280F8F3
:102C000041200AE0022280F8422006E0022280F8F9
:102C1000402002E0022280F84320026801F01F01F8
:102C20000120136A00FA01F18B431362136A0B430C
:102C3000A2F18041A1F596314FEAB1210629136234
:102C400044D8884010F0650F40D0506C42F6FF31F8
:102C5000C4F2010140F400408A42506410DCB2F139
:102C6000804F1FD040F20040C4F20000824219D0D1
:102C700040F60000C4F20000824213D01FE000BF03
:102C800042F60040C4F2010082420BD044F2000040
:102C9000C4F20100824205D043F20040C4F20100B8
:102CA00082420CD190680721C0F20101014006293F
:102CB0004FF0000008D0B1F5803F08BF80BD10681C
:102CC00040F001001060002080BD00BF42F6FF30E0
:102CD000C4F201008242C2DD43F6FF70C4F201007B
:102CE000824207DC42F60040C4F201008242D3D1A6
:102CF000D8E700BF44F20000C4F201008242D1D004
:102D000044F60000C4F20100824202BF506C40F45D
:102D100000405064D3E70000704700004FEAB10163
:102D2000032984BF00207047006800EB8100406BDE
:102D300070470000B0B5044690F83C0001284FF001
:102D4000020008BFB0BD012584F83C5084F83D0066
:102D5000204604F0E1F800284FF0010006D00021E1
:102D600084F83D5084F83C10B0BD00BF2068C168B5
:102D700021F04001C160C16821F48041C1600020A0
:102D8000002184F83D5084F83C10B0BD704700002D
:102D900090F88410012904BF022070472421C0F854
:102DA000881001680A680B6822F0005223F00103C2
:102DB0000B60002343660A602021C0F8881080F869
:102DC000843000207047000070470000704700000A
:102DD00090F88420012A04BF02207047B0B5242255
:102DE000C0F888200268D0F864E0D2F800C0136808
:102DF000BEF1000F23F001031360936823F06063BA
:102E000041EA0301916019D09368916848F6380E41
:102E1000490FC0F6000E48F640051EF80140C0F606
:102E20000005695CC3F34263E400B4FBF1F11EF8F2
:102E30000340EB5CE500B5FBF3F301E00121012366
:102E4000A0F86A102021A0F86830C2F800C0C0F8CD
:102E50008810002180F884100020B0BD90F88420F4
:102E6000012A04BF02207047B0B52422C0F8882090
:102E70000268D0F864E0D2F800C01368BEF1000F19
:102E800023F001031360936823F0604341EA0301D8
:102E9000916019D09368916848F6380E490FC0F6D2
:102EA000000E48F640051EF80140C0F60005695CBA
:102EB000C3F34263E400B4FBF1F11EF80340EB5CA2
:102EC000E500B5FBF3F301E001210123A0F86A104E
:102ED0002021A0F86830C2F800C0C0F88810002196
:102EE00080F884100020B0BD7047000070470000DB
:102EF0007047000070B5026840F62F04D36911686E
:102F000096681C40202C0BD101F0200406F080555F
:102F10002D1916D0416F61B3BDE87040084700BF5E
:102F200040F60F052B420CD00125C1F2000506EA40
:102F3000050C40F22015C0F200450D4015EB0C05C4
:102F400024D1C46EDD0615D5012C13D111F0100566
:102F500010D0102111629168490661D4B0F85C105C
:102F6000B0F85E20B0F85E30002B18BF914240F000
:102F7000518270BDDD0215D516F4800512D04FF4D4
:102F800080111162BDE87040FFF7B0BFDD0718BFC8
:102F900011F4807540F020819D0706F0010E00F1CC
:102FA000278130E11A0606D501F0800206F40006FA
:102FB000921940F0AF825A0640F1028111F04002AE
:102FC00000F0FE80016851E8001F026821F0400116
:102FD00042E80013DBB1016851E8001F026821F0EC
:102FE000400142E8001393B1016851E8001F0268F4
:102FF00021F0400142E800134BB1016851E8001F85
:10300000026821F0400142E80013002BDAD12021B0
:10301000C0F8881000218167BDE8704000F0A2BCB4
:10302000D0F880100A685368B0F85C4099B2002963
:1030300000F0B880A14280F0B580A0F85E30116841
:10304000890600F1A38000BF016851E8001F0268F3
:1030500021F4807142E80013E3B1016851E8001FD8
:10306000026821F4807142E800139BB1016851E8C5
:10307000001F026821F4807142E8001353B1016817
:1030800051E8001F026821F4807142E80013002B10
:10309000DAD100BF016851E8021F026821F0010186
:1030A00042E80213BBB3016851E8021F026821F035
:1030B000010142E8021373B3016851E8021F02687C
:1030C00021F0010142E802132BB3016851E8021F0D
:1030D000026821F0010142E80213002BDAD11AE064
:1030E000016851E8021F026821F0400142E8021322
:1030F000DBB1016851E8021F026821F0400142E89B
:10310000021393B1016851E8021F026821F04001E7
:1031100042E802134BB1016851E8021F026821F036
:10312000400142E80213002BDAD12021C0F88C10B4
:103130000021C166016851E8001F026821F01001FA
:1031400042E80013DBB1016851E8001F026821F07A
:10315000100142E8001393B1016851E8001F0268B2
:1031600021F0100142E800134BB1016851E8001F43
:10317000026821F0100142E80013002BDAD1D0F8E8
:10318000801004460846FDF7A9FC2046022101678D
:10319000B0F85C10B0F85E20891A89B2BDE87040C2
:1031A000FFF712BE8C427FF4E4AE126892067FF500
:1031B000E0AE02220267BDE87040FFF705BE00BF27
:1031C0001A0240F1B38111F0804200F0AF81BDE8F6
:1031D0007040FFF789BE00BF01251562D0F89050FE
:1031E00045F00105C0F890509D0706F0010E0AD584
:1031F000BEF1000F07D002241462D0F8904044F0D2
:103200000404C0F890405C070AD5BEF1000F07D057
:1032100004251562D0F8905045F00205C0F8905092
:103220001D070CD501F0200555EA0C0507D008252F
:103230001562D0F8905045F00805C0F890501D0573
:103240000BD511F0806508D04FF400651562D0F8F9
:10325000905045F02005C0F89050D0F89050002DC7
:103260003FF487AE9B060BD501F0200106F080539A
:10327000C91805D0416F19B1044688472268204615
:10328000D0F89010926801F0280102F040028918ED
:1032900006D10446FFF72CFE0020C4F8900070BD54
:1032A000016851E8001F026821F4907142E80013A0
:1032B000DBB1016851E8001F026821F4907142E817
:1032C000001393B1016851E8001F026821F4907166
:1032D00042E800134BB1016851E8001F026821F475
:1032E000907142E80013002BDAD14FF6FE71CEF652
:1032F000FF7100BF026852E8022F03680A4043E8EA
:103300000226C6B1026852E8022F03680A4043E869
:10331000022686B1026852E8022F03680A4043E899
:10332000022646B1026852E8022F03680A4043E8C9
:103330000226002EDED1C16E012924D1016851E898
:10334000001F026821F0100142E80013DBB10168A0
:1033500051E8001F026821F0100142E8001393B108
:10336000016851E8001F026821F0100142E80013D3
:103370004BB1016851E8001F026821F0100142E8DA
:103380000013002BDAD12021C0F88C100021C16677
:10339000026841679168490640F1C480016851E8BC
:1033A000021F026821F0400142E80213DBB101680C
:1033B00051E8021F026821F0400142E8021393B174
:1033C000016851E8021F026821F0400142E802133F
:1033D0004BB1016851E8021F026821F0400142E848
:1033E0000213002BDAD1D0F88010002900F09A8067
:1033F00047F2D122C0F60002044608468A63FDF770
:10340000A5FB00283FF4B5ADD4F88000816BBDE882
:1034100070400847891A00BF026852E8002F03680D
:1034200022F4907243E80026DEB1026852E8002FD1
:10343000036822F4907243E8002696B1026852E8CD
:10344000002F036822F4907243E800264EB1026810
:1034500052E8002F036822F4907243E80026002E01
:10346000DAD14FF6FE72CEF6FF7200BF036853E862
:10347000023F0668134046E80235C5B1036853E8C9
:10348000023F0668134046E8023585B1036853E8F9
:10349000023F0668134046E8023545B1036853E829
:1034A000023F0668134046E80235002DDED1202297
:1034B000C0F88C200022C266426700BF026852E852
:1034C000002F036822F0100243E80026DEB10268F4
:1034D00052E8002F036822F0100243E8002696B15C
:1034E000026852E8002F036822F0100243E8002629
:1034F0004EB1026852E8002F036822F0100243E840
:103500000026002EDAD1022289B20267BDE870409F
:10351000FFF75ABC816F00293FF42BADBDE8704026
:10352000084700BFBDE87040FFF7E2BCDA017FF555
:1035300020ADB1F1FF3FC8BF70BDBDE87040FFF7DF
:1035400045BC000010B5D0B10446D0F8880028B9B9
:10355000002084F88400204600F026F82420C4F8D7
:1035600088002068A16A026822F00102026011B19D
:10357000204603F083FD204604F088FB10B10120B3
:1035800010BD00BF2168486820F4904048608868FA
:1035900020F02A008860086840F0010220460A6096
:1035A000BDE8104003F0DEBD2DE9F04198B00446BF
:1035B00002A8002508303C211795CDE91555CDE925
:1035C0001355FCF75DFE206843F60001C4F20101CB
:1035D000884203D018B0BDE8F08100BF0120CDE9DA
:1035E000020502A8FDF714FE002818BFFCF7B0FE84
:1035F00041F24C00C4F20200416940F2080841F473
:10360000804141614169002601F4804101910199A5
:103610000168C4F2020841F001010160006813A9C9
:1036200000F00100019001984FF4C0601390022057
:103630001490072017904FF09040CDE91566FDF7E4
:10364000BBFB40F21C15C2F2000518208027C5E91B
:1036500000802846C5E90266C5E90476C5E9066624
:103660002E62FDF709FB002818BFFCF771FEC4F8B5
:103670008050AC6240F27C1508F11400C2F20005E3
:103680001921102285E8C7002846C5E90566C5E965
:103690000766FDF7F1FA002818BFFCF759FE252050
:1036A00001210022E567AC62FDF7E4FC2520FDF76F
:1036B000CFFC18B0BDE8F081D0F88C30202B07D1BA
:1036C00000294FF0010318BF002A05D118467047A2
:1036D00002231846704700BF80B50023C366D0F8A8
:1036E00000C048F20003C4F200039C4503D0DCF89C
:1036F00004301B0204D404F015FC002080BD00BF80
:10370000036853E800CFD0F800E04CF080634EE847
:10371000003CBCF1000FEED0036853E800CFD0F8B6
:1037200000E04CF080634EE8003CBCF1000FE2D0BA
:10373000036853E800CFD0F800E04CF080634EE817
:10374000003CBCF1000FD6D0036853E800CFD0F89E
:1037500000E04CF080634EE8003CBCF1000FCFD19C
:10376000C9E7000040F20830C2F20000007861288A
:1037700010D180B50020002104F044FF0520FDF7A2
:1037800007FB002004F01EFF014608A004F052FFD2
:10379000BDE8804040F2742040F20831C2F20000DF
:1037A000C2F200010122FFF787BF00BF25640D0AA6
:1037B000000000002DE9F04381B00446D0F88800F5
:1037C000202809D100294FF0010018BF002A07D195
:1037D00001B0BDE8F08300BF022001B0BDE8F08376
:1037E0000020C4F8900021201D460E46C4F8880031
:1037F0001746FDF7C7FBA4F85470A4F85670A168EB
:103800008146B1F5805F02D12069002866D0374635
:103810000020B4F856202168002A67D06A1C28D0FE
:10382000002D53D0804600BFC86900060AD4FDF7BA
:10383000A9FBA0EB0900A84200F284802168086877
:10384000F2E700BF17B117F8010B04E038F8020BDC
:1038500000276FF35F208862B4F856000138A4F89F
:103860005600B4F856000028DED13FE0CA691206BF
:1038700009D4CA69120606D4CA6912065CBFCA69AD
:103880005FEA0262F2D51FB117F8012B05E000BF15
:1038900030F8022B00276FF35F228A62B4F85620BB
:1038A000013AA4F85620B4F85620002AE1D11DE0D0
:1038B00030F8022B00276FF35F228A62B4F856209B
:1038C000013AA4F85620B4F856207AB1CA69120613
:1038D00036D5002FECD017F8012BEEE70027304645
:1038E000B4F856202168002A7FF498AFC8694006D2
:1038F0001ED42DB3681C14D1C86940062AD4C869E7
:10390000400627D4C869400624D4C86940064FF051
:103910000000F1D50DE000BF20680168C0694006D5
:1039200018D4FDF72FFBA0EB0900A842F4D909E059
:1039300000202021C4F8881001B0BDE8F08300BF4A
:10394000FDF720FB03202021C4F8881001B0BDE85A
:10395000F08300BF00202021C4F8881001B0BDE82A
:10396000F083000070470000FEE7000080B586B0DD
:1039700000200590C02001900120CDE90200022026
:10398000049040F20040C4F6000001A9FDF714FACB
:1039900006B080BD2DE9F04387B040F228464FF0D5
:1039A00000098020C4F60006CDE902090120049038
:1039B0000220A6F12808059002A94046CDF81890EB
:1039C000FDF7FAF90824142700250DE04046802170
:1039D000013C6D00FDF7CAFA0138B0FA80F04009E9
:1039E000210645EA000575D0306840F0400030609F
:1039F0000297CDF804900198029988421BD2019851
:103A00000130019001980299884214D20198013046
:103A100001900198029988420DD2019801300190DD
:103A200001980299884206D20198013001900198CC
:103A300002998842E3D30297CDF804900198029945
:103A400088421BD201980130019001980299884266
:103A500014D20198013001900198029988420DD248
:103A600001980130019001980299884206D201988C
:103A700001300190019802998842E3D356F8100C66
:103A800040F0400046F8100C0297CDF804900198E1
:103A9000029988429AD201980130019001980299C6
:103AA000884293D20198013001900198029988428E
:103AB000BFF48CAF019801300190019802998842BF
:103AC000BFF484AF019801300190019802998842B7
:103AD000E1D37BE7306840F0400030601420029072
:103AE000002001900199029A91421BD20199013163
:103AF00001910199029A914214D2019901310191E7
:103B00000199029A91420DD20199013101910199D5
:103B1000029A914206D20199013101910199029ACA
:103B20009142E3D38021029111210690CDE9031047
:103B30000220059002A94046FDF73EF9E8B207B021
:103B4000BDE8F08310B582B040F22841C4F6000110
:103B500008224FF0140C4FF0000E05E0013A130656
:103B60004FEA400000F0AA800B6843F040030B606E
:103B7000CDF804C0CDF800E0009B019CA3421BD20D
:103B8000009B01330093009B019CA34214D2009B35
:103B900001330093009B019CA3420DD2009B013393
:103BA0000093009B019CA34206D2009B013300932B
:103BB000009B019CA342E3D343B2B3F1FF3F0B460A
:103BC000D8BF103B1C6844F080041C60CDF804C0D2
:103BD000CDF800E0009B019CA3421BD2009B013367
:103BE0000093009B019CA34214D2009B01330093DD
:103BF000009B019CA3420DD2009B01330093009BCC
:103C0000019CA34206D2009B01330093009B019CC0
:103C1000A342E3D3CDF804C0CDF800E0009B019CA3
:103C2000A3421BD2009B01330093009B019CA34243
:103C300014D2009B01330093009B019CA3420DD240
:103C4000009B01330093009B019CA34206D2009B82
:103C500001330093009B019CA342E3D351F8103C35
:103C600043F0400341F8103CCDF804C0CDF800E02B
:103C7000009B019CA342BFF471AF009B01330093F2
:103C8000009B019CA342BFF469AF009B01330093EA
:103C9000009B019CA342BFF461AF009B01330093E2
:103CA000009B019CA342BFF459AF009B01330093DA
:103CB000009B019CA342E0D350E700BF086840F09E
:103CC00040000860142001900020009000980199A5
:103CD000884217D2009801300090009801998842DC
:103CE00010D200980130009000980199884209D2C2
:103CF00000980130009000980199884202D2009803
:103D00000130E2E702B010BD82B040F2184CC4F6B8
:103D1000000CDCF80010002241F08001CCF800100B
:103D2000142101910092009B019883421CD200BF94
:103D30000098013000900098019B984214D200989E
:103D4000013000900098019B98420DD200980130FC
:103D500000900098019B984206D200980130009094
:103D60000098019B9842E3D3019100920098019939
:103D700088421BD200980130009000980199884237
:103D800014D20098013000900098019988420DD219
:103D900000980130009000980199884206D200985E
:103DA00001300090009801998842E3D3DCF80000CC
:103DB000142140F040000022CCF800000191009254
:103DC0000098019B98421BD2009801300090009807
:103DD000019B984214D20098013000900098019BFA
:103DE00098420DD20098013000900098019B9842B3
:103DF00006D20098013000900098019B9842E3D3CE
:103E0000DCF8100040F04000CCF810000191009266
:103E10000098019988421BD20098013000900098C8
:103E20000199884214D200980130009000980199BD
:103E300088420DD200980130009000980199884284
:103E400006D2009801300090009801998842E3D38F
:103E500002B0704782B040F21840C4F6000001681A
:103E60004FF0140C41F0800100220160CDF804C035
:103E70000092009B01998B421CD200BF0099013136
:103E800000910099019B994214D20099013100914F
:103E90000099019B99420DD200990131009100993E
:103EA000019B994206D20099013100910099019B32
:103EB0009942E3D3016841F040010160CDF804C0AC
:103EC00000920099019A91421BD200990131009110
:103ED0000099019A914214D2009901310091009900
:103EE000019A91420DD20099013100910099019AF5
:103EF000914206D20099013100910099019A9142B4
:103F0000E3D301694FF0140C41F0800100220161FC
:103F1000CDF804C00092009B01998B421CD200BFD7
:103F20000099013100910099019B994214D20099A6
:103F3000013100910099019B99420DD20099013104
:103F400000910099019B994206D20099013100919C
:103F50000099019B9942E3D3016941F0400101615D
:103F6000CDF804C000920098019988421BD20098B5
:103F70000130009000980199884214D200980130D5
:103F800000900098019988420DD20098013000906D
:103F900000980199884206D200980130009000985C
:103FA00001998842E3D302B07047000082B040F22A
:103FB0001840C4F6000001694FF0140C41F04001B4
:103FC00000220161CDF804C00092009B01998B4250
:103FD0001CD200BF0099013100910099019B9942C8
:103FE00014D20099013100910099019B99420DD2A0
:103FF0000099013100910099019B994206D20099E4
:10400000013100910099019B9942E3D3016941F08C
:1040100080010161CDF804C000920099019A91429B
:104020001BD20099013100910099019A914214D25A
:104030000099013100910099019A91420DD20099A5
:10404000013100910099019A914206D20099013103
:1040500000910099019A9142E3D301684FF0140C4A
:1040600041F0400100220160CDF804C00092009BA5
:1040700001998B421CD200BF009901310091009937
:10408000019B994214D20099013100910099019B42
:1040900099420DD20099013100910099019B9942FA
:1040A00006D20099013100910099019B9942E3D316
:1040B000016841F080010160CDF804C000920098D1
:1040C000019988421BD20098013000900098019914
:1040D000884214D2009801300090009801998842DB
:1040E0000DD200980130009000980199884206D2C4
:1040F000009801300090009801998842E3D302B003
:104100007047000070B586B00025802040F2004462
:10411000CDE900050120C4F60004029002200390BE
:10412000694620460495FCF747FE1420009005954B
:104130000599009A91421BD2059901310591059983
:10414000009A914214D20599013105910599009A7E
:1041500091420DD20599013105910599009A91423C
:1041600006D20599013105910599009A9142E3D350
:10417000A16941F04001A161009005950598009961
:1041800088421BD205980130059005980099884215
:1041900014D20598013005900598009988420DD2F7
:1041A00005980130059005980099884206D2059837
:1041B00001300590059800998842E3D3204680217C
:1041C0008025FCF7D3FE012840F0D2801420009017
:1041D0000020059005980099884217D20598013073
:1041E000059005980099884210D2059801300590F5
:1041F00005980099884209D20598013005900598E4
:104200000099884202D205980130E2E720468021D9
:10421000FCF7ACFE012840F0AB8014200090002099
:10422000059005980099884218D2059801300590AC
:1042300005980099884211D205980130059005989B
:10424000009988420AD20598013005900598009996
:10425000884203D205980130E2E700BF2046802162
:10426000FCF784FE012840F0838014200090002099
:10427000059005980099884218D20598013005905C
:1042800005980099884211D205980130059005984B
:10429000009988420AD20598013005900598009946
:1042A000884203D205980130E2E700BF2046802112
:1042B000FCF75CFE01285BD11420009000200590E3
:1042C00005980099884217D2059801300590059805
:1042D0000099884210D20598013005900598009900
:1042E000884209D2059801300590059800998842C6
:1042F00002D205980130E2E720468021FCF736FE25
:10430000012835D114200090002005900599009ACD
:1043100091421BD20599013105910599009A91426C
:1043200014D20599013105910599009A91420DD257
:104330000599013105910599009A914206D2059996
:10434000013105910599009A9142E3D380210091B2
:1043500011210490CDE90110022003906946204606
:10436000FCF72AFDFFF722FE012006B070BD00BF5A
:10437000A06A002640F04000A0621120CDE90106AD
:10438000022003906946204604960095FCF714FD30
:104390001420009005960598009988421BD2059834
:1043A0000130059005980099884214D20598013093
:1043B00005900598009988420DD205980130059026
:1043C00005980099884206D2059801300590059815
:1043D00000998842E3D3002006B070BD40F2184136
:1043E000C4F600010A6942F400720A610A6942F4E3
:1043F00080720A610A6842F020020A602022C1F835
:10440000FC230A6942F020020A6100BF00BF00BF1E
:104410000A6842F020020A600A6842F480720A6068
:104420000022C1F8FC230B6943F020030B6100BF9D
:1044300000BF00BF0B6843F020030B600B6843F420
:1044400080730B600B6943F400730B610B6943F4D9
:1044500080730B610B6843F020030B602123C1F8CC
:10446000FC330B6943F020030B6100BF00BF00BFAA
:104470000B6843F020030B600B6843F480730B6000
:10448000C1F8FC230A6942F020020A6100BF00BFA4
:1044900000BF0A6842F020020A600A6842F4807293
:1044A0000A600A6942F400720A610A6942F4807281
:1044B0000A610A6842F020020A602222C1F8FC2345
:1044C0000A6942F020020A6100BF00BF00BF0A680B
:1044D00042F020020A600A6842F480720A6000BF5B
:1044E00000BF00BF0A6842F400720A604FF49632BF
:1044F0000B69053A43F400730B610B6843F4807356
:104500000B600B6843F020030B60C1F8FC030B69E0
:1045100043F020030B6100BF00BF00BF0B6843F0F6
:1045200020030B600B6843F480730B6000BF00BF77
:1045300000BF0B6843F400730B600B6943F4007316
:104540000B610B6843F480730B600B6843F020032E
:104550000B60C1F8FC030B6943F020030B6100BF43
:1045600000BF00BF0B6843F020030B600B6843F4EF
:1045700080730B6000BF00BF00BF0B6843F4007383
:104580000B600B6943F400730B610B6843F4807399
:104590000B600B6843F020030B60C1F8FC030B6950
:1045A00043F020030B6100BF00BF00BF0B6843F066
:1045B00020030B600B6843F480730B6000BF00BFE7
:1045C00000BF0B6843F400730B600B6943F4007386
:1045D0000B610B6843F480730B600B6843F020039E
:1045E0000B60C1F8FC030B6943F020030B6100BFB3
:1045F00000BF00BF0B6843F020030B600B6843F45F
:1046000080730B6000BF00BF00BF0B6843F40073F2
:104610000B600B6943F400730B610B6843F4807308
:104620000B600B6843F020030B60C1F8FC030B69BF
:1046300043F020030B6100BF00BF00BF0B6843F0D5
:1046400020030B600B6843F480730B6000BF00BF56
:1046500000BF0B6843F400730B607FF449AF7047F1
:104660002DE9F04F8BB0002641F24C000596CDE9C4
:104670000366CDE90166C4F20200016840F2184504
:1046800041F0040101600168C4F6000501F0040175
:1046900006910699016801AC41F0010101600168D1
:1046A00040F6140901F001010691069901684FF0E6
:1046B000030841F0020101600068214600F0020099
:1046C000069006984FF44870019001200290A5F1E1
:1046D0001800C4F600090127CDE90368FCF76CFB5C
:1046E0004FF48070CDE901074FF090402146CDE9AD
:1046F0000368FCF761FB4FF6FF7005F57A740690CE
:1047000006A920460A964FF6FF7BCDF82480CDE916
:104710000776FCF751FB4FF6004ACFF6FF7A55F8C3
:104720000A0006A940F4807045F80A0028684FF690
:10473000FF7740F408702860286940F40070286111
:10474000286940F480702861286840F020002860C3
:10475000C9F80060286940F02000286100BF00BF50
:1047600000BF286840F020002860286840F480706E
:10477000286020460A96CDF818B0CDF82480CDE9FF
:104780000766FCF719FB4FF6104BCFF6FF7B55F889
:104790000B0007A940F4807045F80B0000BF00BF74
:1047A00000BFD5F8F89355F80A0040F4807045F83A
:1047B0000A00012081E8410106A920460A960697D1
:1047C000FCF7FAFA286848F2302140F400702860BB
:1047D00040F24200C2F20000A0F800900088884237
:1047E00002D100F0E3FA01E001F054F82869002753
:1047F00040F40070286128694FF6FF7840F480701B
:10480000286128684FF0030940F02000286040F636
:104810001400C4F600000760286906A940F02000D3
:10482000286100BF00BF00BF286840F0200028605A
:10483000286840F48070286020460A97CDE90687F2
:10484000CDE90879FCF7B8FA55F80B0007A940F450
:10485000807045F80B0000BF00BF00BFD5F8F863BB
:1048600055F80A0040F4807045F80A00012081E8FC
:10487000810206A920460A97CDF81880FCF79CFA19
:10488000286840F40070286040F24200C2F2000044
:1048900006800BB0BDE8F08F81B0ADF80200BDF826
:1048A000020040F20C01C2F20001088001B0704722
:1048B00081B0ADF80200BDF8020040F24001C2F242
:1048C0000001088001B0704710B58CB040F2440080
:1048D000C2F200004FF0A04100244FF40032042344
:1048E00080E816000121CDE90A44CDE90744CDE96D
:1048F0000544CDE90344CDE90144C0E90344C0E9DE
:1049000005438483016280F82440C0E90B4480F8A9
:104910003840C46380F84040FBF74AFF002818BFC6
:10492000FBF716FD40F24400C2F2000009A9099409
:10493000FBF710FD002818BFFBF70AFD40F600004A
:10494000C2F63060019006207F2102900020049181
:1049500004210390CDE9051040F24400C2F20000AA
:1049600001A9FBF757FD002818BFFBF7F1FC0CB0BD
:1049700010BD0000B0B588B040F2B00040F20011A8
:10498000C2F20000C5F2000100244FF400320425F9
:1049900080E816000121CDE90644C0E90344C0E9DE
:1049A00005458483016280F82440C0E90B4480F807
:1049B0003840C46380F84040FBF7FAFE002818BF77
:1049C000FBF7C6FC48F20000C3F6F060009006203A
:1049D000CDE901047F20CDE9030540F2B000C2F229
:1049E000000069460594FBF715FD002818BFFBF78A
:1049F000AFFC08B0B0BD000080B582B041F2480005
:104A0000C4F202000168002241F004010160016863
:104A100001F0040101910199016841F00101016077
:104A200000680E2100F00100009000980B20FCF7B8
:104A300021FB0B20FCF70CFB0C200E210022FCF7C5
:104A400019FB0C2002B0BDE88040FCF701BB000060
:104A50002DE9F04186B0002641F24C000596CDE9E3
:104A60000366CDE90166C4F20200016840F6004425
:104A700041F0200101600168C4F6000401F020014A
:104A8000009100990168002241F001010160016874
:104A90004FF0040801F0010100910099016841F014
:104AA00002010160016801F00201009100990168B2
:104AB00041F0080101600068042100F00800009046
:104AC00000982046FCF758FA01AD01274FF09040BE
:104AD0002946CDE901760396FCF76EF90720CDE96A
:104AE0000106A4F5006029460396FCF765F9204607
:104AF0002946CDE90187CDE90366FCF75DF906B0EB
:104B0000BDE8F08110B594B040F2DC100021C2F293
:104B100000004FF080424F2340F2E7340D91CDE981
:104B20000B11CDE90811CDE90611CDE90411CDE94C
:104B30000211CDE90011C0E90023C0E902140161AE
:104B40008161FDF76BF9002818BFFBF701FC4FF4FA
:104B500080500A9040F2DC10C2F200000AA9FDF772
:104B600027FA002818BFFBF7F3FB40F2DC10C2F273
:104B70000000FDF7E5FF002818BFFBF7E9FB40F256
:104B8000DC100024C2F2000007A907940994FDF785
:104B9000EFF8002818BFFBF7DBFB602000904FF414
:104BA000FA70CDE90104049440F2DC14C2F200046E
:104BB000694620460422FDF7DFFD002818BFFBF7F9
:104BC000C7FB21680020B1F1804F1390CDE911009F
:104BD00010900F9002D014B010BD00BF41F24C01F4
:104BE000C4F202010A6842F001020A60096801F099
:104BF00001010E910E990221CDE911000120CDE9AC
:104C00000F1113900FA94FF09040FCF7D5F814B096
:104C100010BD000010B590B040F2282040F20042D4
:104C20000021C2F20000C4F200024F234FF6FF74CD
:104C30000F91CDE90D11CDE90A11CDE90811CDE9AA
:104C40000611CDE90411CDE90211CDE90011C0E949
:104C50000023C0E9021401618161FDF7DFF800283B
:104C600018BFFBF775FB4FF480500C9040F22820E2
:104C7000C2F200000CA9FDF79BF9002818BFFBF752
:104C800067FB40F22820C2F20000FDF795FB0028E8
:104C900018BFFBF75DFB042007906020089040F2EE
:104CA00028200024C2F2000007A909940B94FEF703
:104CB00041F8002818BFFBF74BFB40F22820C2F256
:104CC000000004A904940694FDF752F8002818BFC8
:104CD000FBF73EFB0220CDE9000040F22820002433
:104CE000C2F2000069460022CDE90244FDF790FAC5
:104CF000002818BFFBF72CFB0120019040F2282070
:104D0000C2F20000694604220094FDF781FA0028EF
:104D100018BFFBF71DFB10B010BD000080B540F2BE
:104D2000742043F60001C2F20000C4F20101002326
:104D30004FF00C0C4FF4165280E80E00C0E903331C
:104D4000C0E905C3C0E90733C0E90933FEF7FAFB40
:104D5000002818BFFBF7FCFA40F27420C2F20000F2
:104D60000021FEF77BF8002818BFFBF7F1FA40F2AC
:104D70007420C2F200000021FEF72AF8002818BFB4
:104D8000FBF7E6FA40F27420C2F20000FEF700F8EA
:104D9000002808BF80BDBDE88040FBF7D9BA0000FD
:104DA000FEE70000704700007047000040F2184026
:104DB000C4F600000169002241F40071016101693B
:104DC0004FF0030C41F480710161016841F0200152
:104DD0000160C0F8FC23016941F02001016100BFBE
:104DE00000BF00BF016841F020010160016841F48B
:104DF000807101600121C0F8FC13036943F02003B6
:104E0000036100BF00BF00BF036843F020030360DD
:104E1000036843F480730360036943F40073036120
:104E2000036943F480730361036843F02003036064
:104E3000C0F8FC13036943F02003036100BF00BF07
:104E400000BF036843F020030360036843F48073EA
:104E50000360C0F8FC23026942F02002026100BF37
:104E600000BF00BF026842F020020260026842F404
:104E700080720260026942F400720261026942F4C7
:104E800080720261026842F0200202601022C0F8C3
:104E9000FC23026942F02002026100BF00BF00BF94
:104EA000026842F020020260026842F480720260EE
:104EB00041F29072C0F8FC23026942F020020261C4
:104EC00000BF00BF00BF026842F02002026002681B
:104ED00042F480720260026942F400720261026967
:104EE00042F480720261026842F020020260602295
:104EF000C0F8FC23026942F02002026100BF00BF3B
:104F000000BF026842F020020260026842F4807230
:104F100002604FF41C52C0F8FC23026942F02002E8
:104F2000026100BF00BF00BF026842F020020260C1
:104F3000026842F480720260026942F40072026107
:104F4000026942F480720261026842F0200202604B
:104F50006122C0F8FC23026942F02002026100BF16
:104F600000BF00BF026842F020020260026842F403
:104F700080720260C0F8FC13016941F020010161F8
:104F800000BF00BF00BF016841F02001016001685F
:104F900041F480710160016941F4007101610169AE
:104FA00041F480710161016841F0200101604621F6
:104FB000C0F8FC13016941F02001016100BF00BF8E
:104FC00000BF016841F020010160016841F4807177
:104FD00001600221C0F8FC13026942F02002026164
:104FE00000BF00BF00BF026842F0200202600268FA
:104FF00042F480720260026942F400720261026946
:1050000042F480720261026842F0200202601322C0
:10501000C0F8FC23026942F02002026100BF00BF19
:1050200000BF026842F020020260026842F480720F
:10503000026048F21002C0F8FC23026942F020022C
:10504000026100BF00BF00BF026842F020020260A0
:10505000026842F480720260026942F400720261E6
:10506000026942F480720261026842F0200202602A
:105070001222C0F8FC23026942F02002026100BF44
:1050800000BF00BF026842F020020260026842F4E2
:105090008072026048F2FE02C0F8FC23026942F00E
:1050A0002002026100BF00BF00BF026842F0200280
:1050B0000260026842F480720260026942F4007287
:1050C0000261026942F480720261026842F02002C9
:1050D0000260C0F8FC13016941F02001016100BFCA
:1050E00000BF00BF016841F020010160016841F488
:1050F000807101604FF4A061C0F8FC13016941F0B8
:105100002001016100BF00BF00BF016841F0200124
:105110000160016841F480710160016941F400712E
:105120000161016941F480710161016841F0200170
:105130000160C0F8FCC3026942F02002026100BFB6
:1051400000BF00BF026842F020020260026842F421
:105150008072026041F23002C0F8FC23026942F022
:105160002002026100BF00BF00BF026842F02002BF
:105170000260026842F480720260026942F40072C6
:105180000261026942F480720261026842F0200208
:1051900002603022C0F8FC23026942F02002026162
:1051A00000BF00BF00BF026842F020020260026838
:1051B00042F48072026040F20332C0F8FC230369BB
:1051C00043F02003036100BF00BF00BF036843F04A
:1051D00020030360036843F480730360036943F4AE
:1051E00000730361036943F480730361036843F050
:1051F000200303603123C0F8FC33036943F020032C
:10520000036100BF00BF00BF036843F020030360D9
:10521000036843F480730360C0F8FC23036943F020
:105220002003036100BF00BF00BF036843F02003F9
:105230000360036843F480730360036943F40073FD
:105240000361036943F480730361036843F020033F
:1052500003603223C0F8FC33036943F02003036189
:1052600000BF00BF00BF036843F020030360036872
:1052700043F480730360C0F8FC23036943F0200308
:10528000036100BF00BF00BF036843F02003036059
:10529000036843F480730360036943F4007303619C
:1052A000036943F480730361036843F020030360E0
:1052B0003323C0F8FC33036943F02003036100BFCC
:1052C00000BF00BF036843F020030360036843F49A
:1052D000807303604FF44073C0F8FC33016941F000
:1052E0002001016100BF00BF00BF016841F0200143
:1052F0000160016841F480710160016941F400714D
:105300000161016941F480710161016841F020018E
:1053100001603421C0F8FC13016941F020010161F2
:1053200000BF00BF00BF016841F0200101600168BB
:1053300041F480710160C0F8FCC3016941F02001B3
:10534000016100BF00BF00BF016841F020010160A2
:10535000016841F480710160016941F400710161EB
:10536000016941F480710161016841F0200101602F
:105370003521C0F8FC13016941F02001016100BF33
:1053800000BF00BF016841F020010160016841F4E5
:1053900080710160C0F8FC23016941F020010161C6
:1053A00000BF00BF00BF016841F02001016001683B
:1053B00041F480710160016941F40071016101698A
:1053C00041F480710161016841F0200101603621E2
:1053D000C0F8FC13016941F02001016100BF00BF6A
:1053E00000BF016841F020010160016841F4807153
:1053F00001601421C0F8FC13016941F02001016132
:1054000000BF00BF00BF016841F0200101600168DA
:1054100041F480710160016941F400710161016929
:1054200041F480710161016841F020010160372180
:10543000C0F8FC13016941F02001016100BF00BF09
:1054400000BF016841F020010160016841F48071F2
:105450000160C0F8FC23016941F02001016100BF37
:1054600000BF00BF016841F020010160016841F404
:1054700080710160016941F400710161016941F4C9
:1054800080710161016841F0200101603821C0F89C
:10549000FC13016941F02001016100BF00BF00BFA2
:1054A000016841F020010160016841F480710160F0
:1054B000C0F8FC23016941F02001016100BF00BF79
:1054C00000BF016841F020010160016841F4807172
:1054D0000160016941F400710161016941F4807169
:1054E0000161016841F0200101603921C0F8FC131D
:1054F000016941F02001016100BF00BF00BF0168E8
:1055000041F020010160016841F480710160C0F840
:10551000FC23016941F02001016100BF00BF00BF11
:10552000016841F020010160016841F4807101606F
:10553000016941F400710161016941F48071016107
:10554000016841F0200101603A21C0F8FC130169B3
:1055500041F02001016100BF00BF00BF016841F0C0
:1055600020010160016841F480710160C0F8FC33E2
:10557000016941F02001016100BF00BF00BF016867
:1055800041F020010160016841F48071016001690E
:1055900041F400710161016941F4807101610168A8
:1055A00041F0200101603B21C0F8FC13016941F08A
:1055B0002001016100BF00BF00BF016841F0200170
:1055C0000160016841F480710160C0F8FCC30169A9
:1055D00041F02001016100BF00BF00BF016841F040
:1055E00020010160016841F480710160016941F4AA
:1055F00000710161016941F480710161016841F04C
:10560000200101603C21C0F8FC13016941F0200138
:10561000016100BF00BF00BF016841F020010160CF
:10562000016841F480710160C0F8FC23016941F018
:105630002001016100BF00BF00BF016841F02001EF
:105640000160016841F480710160016941F40071F9
:105650000161016941F480710161016841F020013B
:1056600001603D21C0F8FC13016941F02001016196
:1056700000BF00BF00BF016841F020010160016868
:1056800041F4807101604FF4A051C0F8FC1301692E
:1056900041F02001016100BF00BF00BF016841F07F
:1056A00020010160016841F480710160016941F4E9
:1056B00000710161016941F480710161016841F08B
:1056C000200101609221C0F8FC13016941F0200122
:1056D000016100BF00BF00BF016841F0200101600F
:1056E000016841F4807101604FF40071C0F8FC134F
:1056F000016941F02001016100BF00BF00BF0168E6
:1057000041F020010160016841F48071016001698C
:1057100041F400710161016941F480710161016826
:1057200041F0200101609321C0F8FC13016941F0B0
:105730002001016100BF00BF00BF016841F02001EE
:105740000160016841F480710160C0F8FC230169C7
:1057500041F02001016100BF00BF00BF016841F0BE
:1057600020010160016841F480710160016941F428
:1057700000710161016941F480710161016841F0CA
:10578000200101609021C0F8FC13016941F0200163
:10579000016100BF00BF00BF016841F0200101604E
:1057A000016841F48071016040F60D01C0F8FC13FE
:1057B000016941F02001016100BF00BF00BF016825
:1057C00041F020010160016841F4807101600169CC
:1057D00041F400710161016941F480710161016866
:1057E00041F020010160C0F8FCC3016941F02001D3
:1057F000016100BF00BF00BF016841F020010160EE
:10580000016841F48071016041F21801C0F8FC1395
:10581000016941F02001016100BF00BF00BF0168C4
:1058200041F020010160016841F48071016001696B
:1058300041F400710161016941F480710161016805
:1058400041F0200101600721C0F8FC13016941F01B
:105850002001016100BF00BF00BF016841F02001CD
:105860000160016841F48071016040F27311C0F879
:10587000FC13016941F02001016100BF00BF00BFBE
:10588000016841F020010160016841F4807101600C
:10589000704700002DE9F04F81B040F21844C4F683
:1058A000000420694FF0120940F400702061206963
:1058B000002540F4807020612068112640F020000F
:1058C0002060E320C4F8FC0320694FF0130B40F084
:1058D0002000206100BF00BF00BF2068102740F0FB
:1058E0002000206020684FF0070840F4807020609E
:1058F00043F20800C4F8FC03206940F02000206156
:1059000000BF00BF00BF206840F02000206020687A
:1059100040F480702060206940F4007020612069AC
:1059200040F480702061206840F020002060E72073
:10593000C4F8FC03206940F02000206100BF00BFD4
:1059400000BF206840F020002060206840F4807094
:105950002060C4F8FC93206940F02000206100BF63
:1059600000BF00BF206840F020002060206840F4A5
:1059700080702060206940F400702061206940F44C
:1059800080702061206840F020002060EF20C4F883
:10599000FC03206940F02000206100BF00BF00BF71
:1059A000206840F020002060206840F48070206073
:1059B00041F23120C4F8FC03206940F0200020614E
:1059C00000BF00BF00BF206840F0200020602068BA
:1059D00040F480702060206940F4007020612069EC
:1059E00040F480702061206840F020002060012099
:1059F000C4F8FC03206940F02000206100BF00BF14
:105A000000BF206840F020002060206840F48070D3
:105A10002060C4F8FC53206940F02000206100BFE2
:105A200000BF00BF206840F020002060206840F4E4
:105A300080702060206940F400702061206940F48B
:105A400080702061206840F0200020600220C4F8AF
:105A5000FC03206940F02000206100BF00BF00BFB0
:105A6000206840F020002060206840F480702060B2
:105A70004FF4E060C4F8FC03206940F0200020618E
:105A800000BF00BF00BF206840F0200020602068F9
:105A900040F480702060206940F40070206120692B
:105AA00040F480702061206840F0200020600320D6
:105AB000C4F8FC03206940F02000206100BF00BF53
:105AC00000BF206840F020002060206840F4807013
:105AD000206041F23000C4F8FC03206940F020004F
